:020000040800F2
:1000000090050020D5000008DD000008DF00000892
:1000100000000000000000000000000000000000E0
:10002000000000000000000000000000E1000008E7
:100030000000000000000000E30000087D3300081D
:10004000E7000008E7000008E7000008E7000008F4
:10005000E7000008E7000008E7000008E7000008E4
:10006000E7000008E7000008E7000008E7000008D4
:10007000E7000008E7000008E7000008E7000008C4
:10008000E7000008E700000800000000E7000008A3
:10009000E7000008E7000008E7000008E7000008A4
:1000A000E7000008E7000008E70000081D3400082A
:1000B0002734000800000000E700000800000000EE
:1000C0000348854600F062F800480047A93500085B
:1000D000900500200448804704480047FEE7FEE7FB
:1000E000FEE7FEE7FEE7FEE7A1330008C1000008D7
:1000F00030B50B46014600202022012409E00D46C0
:10010000D5409D4205D31D469540491B2546954047
:1001100040191546521E002DF1DC30BD70B500248B
:100120002546002801DA01244042002901DA012590
:100130004942FFF7DDFFAC4200D04042002C00D026
:10014000494270BD03460B439B0703D009E008C931
:10015000121F08C0042AFAD203E00B780370401C77
:10016000491C521EF9D27047D2B201E00270401C05
:10017000491EFBD270470022F6E710B513460A4627
:1001800004461946FFF7F0FF204610BD064C012536
:10019000064E05E0E36807CC2B430C3C984710342F
:1001A000B442F7D3FFF790FFA0390008C039000828
:1001B000044A116800BF034A1268521A8242FAD3F5
:1001C000704700008C00002072B60249086862B6D1
:1001D000704700008C000020024672B60448036895
:1001E00062B6981A884201D3012070470020FCE7CC
:1001F0008C0000201CB5044601A9002002F0B6F8CE
:100200006946002002F082F86846C078207068468F
:100210004078607068468078A07068460079E07029
:1002200068464079207168468079607101201CBD64
:100230001CB5044601A9002002F098F86946002088
:1002400002F064F821786846C17061784170A17845
:100250008170E178017121794171617981710021A9
:10026000C17101A9002002F053F96946002002F093
:10027000E7F801201CBD000070B50546282901D90A
:10028000002070BD0D4B2C46CAB205E020781870D6
:10029000641C5B1C501EC2B2002AF7DCBB26074858
:1002A0002030067206480078401CC6B2044806702A
:1002B00002482030467281720120E2E720010020CE
:1002C000970000201CB50121880401F049FF01209E
:1002D0004002009001216846017103214171002113
:1002E00081710121C1716946014800F0A7FB1CBD65
:1002F0000004004810B501214902024800F014FC36
:1003000010BD00000004004810B502460B46002155
:1003100000BF04E088001058034C2060491C99423B
:10032000F8D30148006810BD003002400146024881
:100330000160006870470000003002400348806898
:1003400001210843014988607047000000300240E5
:1003500070B5044601252078632805DC60780C28F8
:1003600002DC6078002800D100256078030003F0EB
:1003700097F80D360816092B0A2C0B0C2D0D2E0E96
:10038000360000BF00BF00BF00BF00BF00BFA078A5
:100390001F2802DCA078002800D1002520E020786A
:1003A00001F096FC002807D0A0781D2802DCA07878
:1003B000002808D1002506E0A0781C2802DCA078DF
:1003C000002800D100250BE000BF00BF00BFA078CF
:1003D0001E2802DCA078002800D1002500E000BF24
:1003E00000BFE078172805DC20793B2802DC607923
:1003F0003B2800DD0025284670BD704710B5FFF78B
:1004000061FF00F003F8FFF775FF10BD1CB5012177
:10041000880401F0A5FEFF2001300090022168460B
:10042000017103214171002181710121C17169466E
:10043000044800F003FB02220821024800F046FBBA
:100440001CBD0000000400487047000010B50949B9
:100450000B680968491C074C21600749C8542146AC
:1004600009680C2905D30021224611600321034AA3
:10047000117010BDF800002060010020F400002081
:100480003EB5044610480068401C0F490860022829
:1004900018D3002008600D4800680D49884211D12A
:1004A000684600F00AF90C220A49684603F015F87C
:1004B000002803D0074800F05BF802E0054800F090
:1004C00057F800BF3EBD0000F8000020FC000020EF
:1004D000B8F0000060010020064A50731146097B05
:1004E000002903D00521044A117002E00621024AC6
:1004F0001170704760010020F4000020C1B2432950
:1005000003D10221034A117002E00021014A117057
:1005100070470000F4000020024A10730421024AD0
:100520001170704760010020F40000207047000047
:1005300010B50C490B680968491C0A4C21600A492E
:10054000C8540E39097B22461268914203D92146CC
:1005500009681E2905D30021024A11600621034AB9
:10056000117010BDF80000206E010020F400002082
:1005700010B50446607B030002F092FF05040827D3
:100580004159710001203749087069E0207B01283A
:100590001AD1A07BAA2806D1202001F067FC0120F7
:1005A0003149087005E0202001F058FC00202E4958
:1005B0000870FFF709FE2D490860AA20A0730120EA
:1005C0002073204600F084F84AE0207B012815D1F2
:1005D000A07B552807D1FF20013001F047FC012006
:1005E0002349087006E0FF20013001F037FC0020AD
:1005F0001F490870FFF7E8FD1E49086030E0207BC6
:10060000012813D1A07BAA2806D1202001F02EFCBE
:1006100001201549087005E0202001F01FFC002092
:1006200011490870FFF7D0FD1049086018E0207BE1
:10063000012813D1A07B552806D1802001F016FC9B
:1006400001200D49087005E0802001F007FC002022
:1006500009490870FFF7B8FD0849086000E000BFCD
:1006600000BF10BDE5000020E4000020E8000020ED
:10067000E7000020F0000020E6000020EC00002051
:100680001CB50121480401F06BFD042000900021FD
:100690006846017103214171002181710121C171FD
:1006A00069460920C00600F0C9F908200090694693
:1006B0000920C00600F0C2F91CBD1FB504466846FB
:1006C00002F0D2F80C2201A92046FFF73BFD1FBD26
:1006D000F0B593B006462C4C0025432228466D1CED
:1006E00001A90A542046432102F00AFF044610A83B
:1006F000FFF7E3FF00270CE010A8C25D28466D1C41
:1007000001A90A5410AAD15DA0B202F0F9FE044674
:100710007F1C0C2FF0D3327B28466D1C01A90A5494
:10072000317BA0B202F0ECFE0446727B28466D1CC1
:1007300001A90A54717B204602F0E2FE044600271C
:100740000EE030460E30C25D28466D1C01A90A54E9
:1007500032460E32D15DA0B202F0D2FE04467F1CBA
:10076000307BB842EDD8E44328466D1C01A90C54F7
:100770002004020E28466D1C0A54294601A800F0E8
:1007800067F8284613B0F0BDFFFF000010B504461F
:100790001D480078062802DD00201B4908701A4811
:1007A000007800280BD0FFF70FFD18490968401AA0
:1007B000FF21F531884202D9002013490870124800
:1007C000007800280CD12C211148FFF7D4FC1148E7
:1007D0001149086000201149086001200A49087089
:1007E000FFF7F2FC09490860E1B20B4A128890B2A7
:1007F00002F086FE08490860034800788000084A35
:1008000011582046884710BDF40000200001002048
:1008100060010020FFFF0000FC000020F800002025
:100820003C37000800B58BB0002168464173017366
:100830000020034908706846FFF74AFF0BB000BD6F
:10084000E50000200148007870470000E500002026
:1008500070B504460D4629462046FFF70DFD0028D9
:1008600003D02B21054802F037F9002000E0401C9E
:1008700002492031897A8142F9D870BD20010020D7
:100880000149C860704700000020024030B50446AE
:1008900004250B20000400F08FF80546042D17D125
:1008A0000C480069022108430A490861084644616E
:1008B000006940210843074908610B20000400F04B
:1008C0007BF8054603480069022188430149086115
:1008D000284630BD0020024004200D49C968C907E0
:1008E000C90F002901D0012010E00949C968102270
:1008F0001140002901D0022008E00549C9680422FE
:100900001140002901D0032000E0042070470000BE
:100910000020024003480069802108430149086122
:10092000704700000020024078B506460C460425BA
:10093000002000900B20000400F03EF80546042D36
:1009400024D113480069012108431149086134800A
:100950000B20000400F030F80546042D10D1B01C27
:100960000090200C009908800B20000400F024F86F
:10097000054607480069400840000549086105E050
:10098000034800694008400001490861284678BDD5
:10099000002002400548006980210840002804D05A
:1009A00003480249486003484860704700200240FD
:1009B00023016745AB89EFCD10B503460424FFF74B
:1009C0008BFF044603E0FFF787FF04465B1E012C04
:1009D00001D1002BF7D1002B00D10524204610BDFA
:1009E00010B504210920C00600F092F8002801D1BA
:1009F000012010BD0020FCE710B5FFF7F1FF044611
:100A00000B480078A04205D009480470FFF7DCFBD2
:100A100008490860FF212D3106480068FFF7DCFB1C
:100A2000002803D0024800780349087010BD000078
:100A30000C0100200801002004010020F0B50A4646
:100A400000210023002400BF3DE001258D402B46FE
:100A500015681D402C469C4234D11579012D02D0D9
:100A60001579022D16D185684F000326BE40B54387
:100A7000856055794E00B540866835438560858828
:100A800001268E40B5438580858896798E40B6B222
:100A90003543858005684F000326BE40B543056099
:100AA00015794E00B540066835430560C5684F00AE
:100AB0000326BE40B543C560D5794E00B540C66833
:100AC0003543C560491C1029BFD3F0BDF0B50023E4
:100AD00000244D07EE0E1546B5402B46CD10AE0056
:100AE00005462035AD594E07F70E0F26BE40B543DB
:100AF000CE10B60007462037BD51CD10AE003D46A2
:100B0000AD591D432C46CD10AD003E467451F0BD8D
:100B100002460020138A0B40002B01D0012000E088
:100B20000020704701857047816170473EB55FA224
:100B300007CA6B4607C30C2500F01AFC002803D037
:100B4000402001F093F902E0402001F087F95A4873
:100B50000068002800D03EBD58480078002832D1F7
:100B600000F006FC002826D155480078002814D053
:100B700000F004FC00280CD0524953480068FFF7ED
:100B80002BFB002804D000204D49087000F016FC13
:100B900089E000204A49087085E001204749087033
:100BA000FFF712FB49490860002049490880401EB0
:100BB0004849088077E042480078002873D0002038
:100BC0003F4908706FE000F0D9FB002803D000F027
:100BD000CFFB002803D0002038490870BBE73E480F
:100BE00000883E4A5043014638480068FFF7F4FA4F
:100BF000002858D0374800883549098888421DD0D8
:100C0000344800883649884214D1334800880C287B
:100C100001DB0C2001E03048008804466946085D8D
:100C2000FFF712FC2C48008829490880FFF7CCFA0E
:100C30002C49086026480088264908802749294809
:100C40000068FFF7C9FA00281AD021480088401C24
:100C50001F49088020484088098888420CDD1C48CC
:100C600000880C2801DB0C2001E0194800880446AC
:100C70006946085DFFF7E8FBFFF7A6FA1949086027
:100C8000154840881249098888420CDC0B20FFF780
:100C9000DBFB002009490870012009490870FFF7B3
:100CA00093FA0949086000BF55E7000000000102FF
:100CB000030405060708090A300000205C00002034
:100CC0006C00002010270000700000206000002051
:100CD000680000206A0000204000002060EA000058
:100CE000FFFF0000640000201CB533493348006852
:100CF000FFF772FA002811D0FFF766FA2F49086053
:100D00002F480068002856D001202E4908702E4830
:100D100000F0D6FF112000F02FFF4CE0684602F0F3
:100D20003AFC6846C07829490978884205D1684666
:100D300000792749097888423CD06946C8780A2159
:100D4000FFF7ECF9C4B2092C01DD092000E02046D0
:100D5000204908706946C8780A21FFF7DFF9CCB24C
:100D6000092C01DD092000E020461A494870694637
:100D700008790A21FFF7D2F9C4B2092C01DD092054
:100D800000E0204613498870694608790A21FFF778
:100D9000C5F9CCB2092C01DD092000E020460D493F
:100DA000C8706846C07809490870684600790849E3
:100DB000087000BF00BF1CBD881300002C0000207D
:100DC00030000020280000201C00002055000020DA
:100DD000560000201800002010B51948007800289F
:100DE00009D07D21490117480068FFF7F5F900286F
:100DF00001D002F057F91448007800281ED0FFF700
:100E000021FD00280AD00A20104908704870887017
:100E10000120C87000200C4908700FE00C490D48F3
:100E20000068FFF7D9F9002808D00A2007490870A0
:100E300048708870C87000200349087010BD000019
:100E400054000020500000204C000020240000200E
:100E5000881300004800002010B55448007804288A
:100E600002DD0020514908705048007800281BD14D
:100E700000F0EAF84E49002000F06AFD4D490120DB
:100E800000F066FD4C49022000F062FD4B49032052
:100E900000F05EFD02204A4908700E2000F0DEFFDF
:100EA000012000F0E3FF7AE04048007801281BD1E0
:100EB00000F0D4F84349002000F04AFD42490120E7
:100EC00000F046FD4149022000F042FD4049032068
:100ED00000F03EFD02203A4908700D2000F0BEFFF0
:100EE000022000F0C3FF5AE03048007802281BD1EE
:100EF00000F080F83349002000F02AFD324901203B
:100F000000F026FD3149022000F022FD3149032086
:100F100000F01EFD02202A4908700B2000F09EFF01
:100F2000042000F0A3FF3AE02048007803281BD1FA
:100F300002F094F90021084600F00AFD002101208A
:100F400000F006FD2449022000F002FD23490320A1
:100F500000F0FEFC02201A490870072000F07EFF16
:100F6000082000F083FF1AE0102000F005FE1C4866
:100F700000F0A6FE0020124908701A4900F0E8FCB3
:100F80001949012000F0E4FC1849022000F0E0FCBF
:100F90001749032000F0DCFC0F2000F05FFF03483E
:100FA0000078401C0149087010BD00004D00002071
:100FB000692E0008D12E0008AD2E0008F52E00087D
:100FC00028000020ED2F00083D30000815300008F3
:100FD000752F0008F12D00089D32000889320008A5
:100FE0001800002031310008F9310008953100085F
:100FF00065300008F8B5124948883C21FFF78EF8A3
:10100000C4B20F4948883C21FFF788F80F460A21EF
:101010003846FFF783F8C5B2094948880A21FFF727
:101020007DF8CEB20A2007490870084644708570E2
:10103000C670172000F0A0FD024800F041FEF8BD88
:10104000400000202000002010B5102000F094FD8A
:10105000014800F035FE10BD18000020F8B5124917
:1010600008883C21FFF75AF8C4B20F4908883C2190
:10107000FFF754F80F460A213846FFF74FF8C5B27C
:10108000094908880A21FFF749F8CEB20A20074922
:101090000870084644708570C670172000F06CFD1B
:1010A000024800F00DFEF8BD4000002020000020A6
:1010B00070B501242E4D2F48006800280CD17D25E5
:1010C0002D010A202C490870002048708870C870D3
:1010D0002848006829490860294629480068FFF720
:1010E0007BF8002833D1002422480068B42802D3BA
:1010F000B320204908601F480068204909688842D9
:1011000025D00A201C4908703C211A480068FEF7C7
:10111000EFFF194948703C2116480068FEF7E8FFC8
:101120000E460A213046FEF7E3FF134988703C2142
:1011300010480068FEF7DCFF0E460A213046FEF735
:10114000D7FF0D48C1700B4800680C490860002C9F
:101150000CD0FFF739F80A490860002009490870E7
:10116000094800F0ADFD102000F006FD70BD000044
:1011700088130000300000201C00002058000020D0
:101180002C000020280000201800002010B5224864
:101190000078022802DD00201F4908701E490978E6
:1011A00089001E4A505880471D480078002813D0F7
:1011B0001C480068002812D10B20FFF745F90020D9
:1011C0001749087002F0B2F8012017490870FEF7BD
:1011D000FBFF1649086002E0002002F0A7F8124861
:1011E0000078002813D0124910480068FEF7F4FF79
:1011F000002805D000200C49087000F0DFF806E058
:1012000000F0B6F8002802D0002007490870FFF768
:101210008DFC00F027F910BD28000020C036000822
:1012200038000020300000207400002078000020EA
:101230001027000010B54048007801281BD1FFF7A7
:101240000DFF3E49002000F083FB3D49012000F0E6
:101250007FFB3C49022000F07BFB3B49032000F070
:1012600077FB0220394908700D2000F0F7FD0220BD
:1012700000F0FCFD5AE03048007802281BD1FFF74F
:10128000B9FE2E49002000F063FB2D49012000F03B
:101290005FFB2C49022000F05BFB2D49032000F08E
:1012A00057FB0220294908700B2000F0D7FD0420CD
:1012B00000F0DCFD3AE02048007803281BD101F063
:1012C000CDFF0021084600F043FB0021012000F083
:1012D0003FFB2049022000F03BFB1F49032000F0A8
:1012E00037FB022019490870072000F0B7FD0820DD
:1012F00000F0BCFD1AE0102000F03EFC174800F0A2
:10130000DFFC002011490870154900F021FB154948
:10131000012000F01DFB1449022000F019FB1349C5
:10132000032000F015FB0F2000F098FD0248007824
:10133000401C0149087010BD4D000020ED2F000831
:101340003D30000815300008752F000828000020E7
:10135000F12D00089D320008893200081800002095
:1013600031310008F9310008953100086530000876
:10137000014800787047000004010020014800780F
:1013800070470000E400002010B5094800780028EC
:101390000CD0084908480068FEF71EFF002805D059
:1013A000002003490870202000F058FD10BD000007
:1013B000E400002018790000E800002000B58BB0A0
:1013C0000221684641735521817301210173FFF7A2
:1013D0007FF90BB000BD000010B51148007800285F
:1013E0000CD1104910480068FEF7F6FE002805D021
:1013F000802000F033FD0020094908700B48007878
:1014000000280CD107490A480068FEF7E5FE0028CD
:1014100005D0802000F022FD00200149087010BD99
:10142000E600002018790000EC000020E700002012
:10143000F000002010B508210920C006FFF768FB66
:10144000002801D0012010BD0020FCE710B50C20C1
:10145000FEF7FAFF0249032000F07AFA10BD0000FF
:10146000A530000810B521480078002822D0FFF7E9
:10147000E1FF002817D01E491E480068FEF7ACFEA9
:10148000002832D0FFF79AFF0B20FEF7DDFF102077
:1014900000F0ECFCFEF798FE1649086016490320A0
:1014A00000F056FA21E0102000F0D8FC00200F498F
:1014B00008701AE0FFF7BEFF002813D0FFF77EFF89
:1014C0000B20FEF7C1FF102000F0D0FCFEF77CFEE1
:1014D000084908600120054908700749032000F009
:1014E00037FA02E0102000F0B9FC10BD39000020EE
:1014F00020BF02003C0000204D14000810B500245D
:101500001C49002000F024FA1B49012000F020FAB9
:101510001A49022000F01CFA1949032000F018FAB9
:101520001849042000F014FA08221749174801F05E
:1015300054F9002808D00421144801F0EFFF1349A2
:101540004968884200D10124002C04D101200F49B0
:10155000088005204880FEF737FE0D49086000200E
:101560000C490870102000F007FB0B4800F0A8FBA6
:1015700010BD000031310008F93100089531000834
:1015800065300008590E000800A000084000002047
:101590002C000020280000201800002010B50B4867
:1015A0000068401C09490860094988420DD30020A1
:1015B0000649086007480068401E0649086008465A
:1015C0000068002801D101F0B1FE10BD34000020F8
:1015D00060EA000030000020FF20F53000BF014627
:1015E000421E90B20029FAD1704700001CB50121BB
:1015F0002120400400F0B4FD102000900021684636
:1016000081710121C1710171032141716946092074
:10161000C006FFF713FA4020009069460920C00673
:10162000FFF70CFA2020009069460920C006FFF75A
:1016300005FA8020009069460348FFF7FFF98021F2
:101640000148FFF771FA1CBD001400481FB5FFF7F1
:10165000CDFF522000F060F8022000F05DF8062077
:1016600000F05AF800200090019002900390202290
:10167000694600F0AEF8FF2210216846FEF774FDBF
:10168000002408E060106A4681180222204600F01B
:10169000A0F8A01CC4B2202CF4DB1FBD1CB500F0C8
:1016A0007DFA00F0EBFB062219491A4801F015FFFC
:1016B00000282CD1062217491548FEF743FD15488E
:1016C00001786846017013484178684641701148B6
:1016D0008178684681700F48C0780007010E0D4878
:1016E00000790007000F01436846C1700948C078BF
:1016F000F02108400011074949790907090E0843FC
:10170000694608710A22162000F063F800BF1CBD6C
:10171000A0000020A600002070B506461021092078
:10172000C006FFF7FFF9002404251FE0042028402D
:10173000002805D020210920C006FFF7F5F904E0B4
:1017400020210920C006FFF7EDF940210920C0063D
:10175000FFF7E8F9FFF740FF40210920C006FFF737
:10176000E3F9FFF739FF601C84B26D10032CDDDB59
:101770000024FF2501351FE030462840002805D011
:1017800020210920C006FFF7CFF904E0202109201D
:10179000C006FFF7C7F940210920C006FFF7C2F9CC
:1017A000FFF71AFF40210920C006FFF7BDF9FFF738
:1017B00013FF601C84B26D10092CDDDB10210920A1
:1017C000C006FFF7B1F920210920C006FFF7ACF9E8
:1017D00070BDF7B582B00F4610210920C006FFF793
:1017E000A1F9002404251FE005202840002805D089
:1017F00020210920C006FFF797F904E020210920E5
:10180000C006FFF78FF940210920C006FFF78AF9CB
:10181000FFF7E2FE40210920C006FFF785F9FFF738
:10182000DBFE601CC4B26D10032CDDDB0024202520
:101830001FE002982840002805D020210920C0067A
:10184000FFF772F904E020210920C006FFF76AF9CA
:1018500040210920C006FFF765F9FFF7BDFE4021D2
:101860000920C006FFF760F9FFF7B6FE601CC4B29E
:101870006D10062CDDDB002635E0F007C00F0028D8
:1018800004D07010385C0011019004E07010385CD6
:101890000007000F01900024012520E00198284056
:1018A000002805D020210920C006FFF73DF904E0FB
:1018B00020210920C006FFF735F940210920C00684
:1018C000FFF730F9FFF788FE40210920C006FFF737
:1018D0002BF9FFF781FE601CC4B26806050E042CCC
:1018E000DCDB701C86B204988642C6DB102109201E
:1018F000C006FFF719F920210920C006FFF714F9E7
:1019000005B0F0BD70B500BF012001F0B5F80120B1
:1019100001F0C2F8012001F09FF8002001F0CCF89E
:1019200000BF002001F006F9084C14250AE0617898
:10193000227852003E231A40104601F091FDA41C6B
:10194000681EC5B2002DF2DC70BD0000DC36000858
:101950000CB507A30CCB01930092052800D30CBD56
:101960006A46125C9200044B995000BFF7E70000F2
:1019700000010302040000004C01002010B5002407
:101980000121C9030920C006FFF7C2F8002801D1D0
:101990000120044308211048FFF7BAF8002801D1BC
:1019A00002200443FF2101310920C006FFF7B0F8EF
:1019B000002801D1042004430121C9030648FFF790
:1019C000A7F8002801D108200443002C01D1FF20F2
:1019D00010BD2046FCE70000000400481CB50121B2
:1019E0000320400400F0BCFB002168468171012106
:1019F000C17100210171032141710120C0030090D8
:101A000069460920C006FFF719F8082000906946CA
:101A10000E48FFF713F8FF200130009069460920B7
:101A2000C006FFF70BF80120C00300906946074885
:101A3000FFF704F8002405E00020A100044A5050FC
:101A4000601CC4B2052CF7D31CBD00000004004884
:101A50004C0100207CB54148007800280FD1FFF7E9
:101A60008DFF3F49087008460078FF2874D0FEF7C4
:101A7000ABFB3C4908600120384908706CE03748EE
:101A80000078012827D1FFF779FF0446C82135489F
:101A90000068FEF7A1FB002812D03148007884428C
:101AA00007D1FEF791FB2F49086002202B490870EF
:101AB00010E0002029490870FF202949087009E03A
:101AC00027480078844205D0002024490870FF2070
:101AD0002349087040E02148007802283CD10025C5
:101AE000FFF74CFF06461E480078B04201D00125A2
:101AF00008E0FF21F5311B480068FEF76DFB002868
:101B000000D00125002D26D000241BE01648005DE2
:101B100013490978884213D1A000144908580028B5
:101B200003D0A100114A5058804711A103C9019167
:101B30000090052C03D26946085DFEF785FC00BFC6
:101B4000601CC4B2052CE1D3002004490870FF20BA
:101B50000349087000BF00BF7CBD00009800002052
:101B6000990000209C000020043700084C01002050
:101B70000D0E10111200000010B504460448047048
:101B8000FEF722FB0349086000200349087010BDDE
:101B9000BD000020C0000020BC00002038B5012599
:101BA0003F480068002800D138BD3E480078002832
:101BB00014D07D21C9003C480068FEF70DFB0028C9
:101BC0000CD0FEF701FB384908603848007800283F
:101BD00001D1012000E0002034490870042230487F
:101BE00001686846FEF7AEFA2E48007800281AD041
:101BF0002E480078002816D100240BE00120A040D8
:101C0000284909780840002802D00B206946085569
:101C1000601CC4B2042CF1DB22480078102108407B
:101C2000002800D00025002435E02148005D6946E9
:101C3000095D884205D1022C2BD11E480078A842AC
:101C400027D06846005D1A490855022C19D1194859
:101C50000570002D0AD0A000174908586946095D93
:101C6000405C012108431549085512E0A0001249C3
:101C700008586946095D405C400840000F49085516
:101C800007E0A0000C4908586946095D405C0B4913
:101C90000855601CC4B2042CC7DB00BF84E70000F9
:101CA000B8000020BD000020C0000020BC000020C3
:101CB000CD000020CC000020D4000020A600002091
:101CC000002801D00149086070470000B8000020DA
:101CD00070B506467D20000134182546E017800FB8
:101CE000401980108000201A05D164212046FEF79B
:101CF00015FA002906D1FF2191312046FEF70EFA90
:101D0000002901D1012070BD0020FCE71021014015
:101D100000290CD050490978012211434E4A117014
:101D200011464978012211434B4A51700AE04A4951
:101D3000097849084900484A11701146497849080C
:101D400049005170FF2101310140002906D042496C
:101D5000C97810221143404AD17005E03E49C97844
:101D6000102291433C4AD17020210140002906D025
:101D70003949097908221143374A117105E036497A
:101D8000097908229143344A117140210140002908
:101D900006D031490979042211432F4A117105E017
:101DA0002D490979042291432B4A11718021014068
:101DB000002906D02849097902221143264A1171C7
:101DC00005E02549097902229143234A1171C1078F
:101DD000C90F002906D020494979012211431E4A22
:101DE000517105E01C494979490849001A4A517165
:101DF00002210140002906D01749497902221143E6
:101E0000154A517105E01449497902229143124A59
:101E1000517104210140002906D00F49497904225B
:101E200011430D4A517105E00B4949790422914350
:101E3000094A517108210140002906D00649497913
:101E400008221143044A517105E0034949790822E7
:101E50009143014A51717047A60000200249097858
:101E60008143014A11707047AC0000200249097893
:101E70000143014A11707047AC00002010B587483B
:101E800000781021084000281ED07D21C900844818
:101E90000068FEF7A1F900281CD0FEF795F98049EB
:101EA00008608048007810210840002805D07D484F
:101EB000007888437B4908700CE07A48007810214C
:101EC00008437849087005E0764800781021884377
:101ED000744908707148007820210840002838D0E3
:101EE0007148007800281AD07D2109016F480068E8
:101EF000FEF772F900282CD000206B490870FEF71D
:101F000063F96A4908606548007820210840002884
:101F10001FD06448007888436249087019E07D2129
:101F2000C90062480068FEF757F9002811D0012067
:101F30005D490870FEF748F95C4908605748007829
:101F400020210840002804D056480078084355490D
:101F500008705248007820210840002804D15148D8
:101F6000007888434F4908704C4800784021084069
:101F700000281BD14E480078002806D04D494E4815
:101F80000068FEF729F9002809D0002048490870A8
:101F900044480078402188434249087013E0414892
:101FA0000078402108433F4908700CE00120404977
:101FB0000870FEF709F9404908603A480078402166
:101FC00008433849087035480078802108400028C7
:101FD00005D03448007808433249087005E031489C
:101FE0000078802188432F4908702C480078C0076A
:101FF000C00F002806D02B4800780121084329494A
:10200000087005E02748007840084000254908701E
:102010002248007802210840002805D02148007895
:1020200008432049087005E01E48007802218843D3
:102030001C4908701948007804210840002805D080
:102040001848007808431749087005E015480078DB
:10205000042188431349087010480078082108407B
:10206000002805D00F48007808430E49087005E0A5
:102070000C480078082188430A490870094800780C
:102080000E490978884207D0064800780B49087045
:1020900004480078FFF73AFE10BD0000AC000020B5
:1020A000B0000020C4000020C6000020B4000020C2
:1020B000C700002010270000C8000020C500002035
:1020C00010B5002819DA1A4A03071B0F083B9B08B2
:1020D0009B00D2588307DC0EFF23A3409A438B0753
:1020E0001B0E8407E40EA3401A43114B0407240F70
:1020F000083CA408A4001A5118E00E4A03231B024E
:10210000D21883089B00D2588307DC0EFF23A3401C
:102110009A438B071B0E8407E40EA3401A43054B1A
:10212000032424021B198408A4001A5110BD0000C6
:102130001CED00E000E100E0002807D00749096835
:10214000FF2201321143054A116006E00349096884
:10215000FF2201329143014A116070470070004034
:10216000002905D0054A52690243044B5A6104E034
:10217000024A52698243014B5A6170470010024083
:10218000002905D0054AD2690243044BDA6104E014
:10219000024AD2698243014BDA6170470010024063
:1021A00010B502460021002300205111002902D160
:1021B0000C4C23680BE0012902D10A4C236A06E08B
:1021C000022902D1074C636A01E0064C636BD10619
:1021D000C90E01248C401C40002C01D0012000E0DD
:1021E000002010BD001002400849096A4908490052
:1021F000064A11621146096A04229143034A116298
:102200001146096A01431162704700000010024044
:10221000002807D00749096A0122D2031143054A61
:10222000116206E00349096A0122D2039143014A7F
:1022300011627047001002400249096A0143014AD5
:102240001162704700100240014600BFF0200840B4
:1022500000110A23584302460807000F8018C0B235
:1022600070470146002204E0501CC2B208460A38FA
:10227000C1B20A29F8DA1007000E084370470000BF
:1022800080210143C903C90BC943044AD268802392
:102290001A401143014AD1607047000000280040F5
:1022A00008B50022009200200021124AD268402383
:1022B0001A40002A1BD1421E0E4BDA6000BF0D4AA5
:1022C000D26840231A401146009A521C00921B0209
:1022D000009A9A4201D00029F1D0064AD2684023E0
:1022E0001A40002A01D0012002E0002000E0012075
:1022F00008BD0000002800400348C06880218843D2
:102300000149C860704700000028004070B50646CB
:102310000C46002513484068134908400546FF2035
:1023200000042840000CE0701F2000022840000A32
:102330006070A806800EA070072040032840400B64
:102340002070002E0DD1E078FFF77EFFE0706078FE
:10235000FFF77AFF6070A078FFF776FFA070207813
:10236000207070BD002800403FFFFF0070B506469A
:102370000C460025124800681249084005463F20D7
:1023800000042840000C20707F2000022840000A32
:1023900060706806400EA070012080052840000C87
:1023A000E070002E0BD12078FFF74EFF2070607890
:1023B000FFF74AFF6070A078FFF746FFA07070BD7E
:1023C000002800407F7F7F0030B504460025CA20EA
:1023D0001249486253204862FFF762FF002800D18B
:1023E00017E00E488068402188430C498860084601
:1023F00080682168084309498860A0680861084628
:102400000069A1880904084304490861FFF774FFC3
:102410000125FF2001494862284630BD00280040C0
:1024200008B5014600200090044800908800009AFA
:10243000801800900098006808BD000050280040F7
:10244000F8B505460C46002600200090002D08D166
:10245000607810210840102803D1607888430A3042
:102460006070002D00D108E06078FFF7EDFE0646B1
:10247000A078FFF7E9FE064600BF002D0BD0E078FC
:102480000004617809020843A178084321784903D0
:102490000843064610E0E078FFF7E3FE07046078A3
:1024A000FFF7DFFE00020743A078FFF7DAFE0743DD
:1024B0002078400307433E46CA2013494862532010
:1024C0004862FFF7EDFE002801D1009016E00F48AA
:1024D00030400D494860FFF70FFF0B48806820210E
:1024E0000840002808D100F07FF8002801D10090B2
:1024F00004E00120009001E001200090FF2002494B
:1025000048620098F8BD0000002800403FFFFF002F
:10251000F8B505460C46002600200090002D0AD193
:102520002F48806840210840002800D002E00020A9
:10253000E07000BF0EE02A48806840210840002873
:1025400004D02078FFF780FE064602E00020E0700D
:1025500000BF00BF002D0BD0207800046178090275
:102560000843A1780843E17809040843064610E0CF
:102570002078FFF776FE07046078FFF772FE00020E
:102580000743A078FFF76DFE0743E0780004074398
:102590003E46CA201249486253204862FFF780FE37
:1025A000002801D1009016E00E4830400C49086028
:1025B000FFF7A2FE0A48806820210840002808D1C1
:1025C00000F012F8002801D1009004E001200090F2
:1025D00001E001200090FF20014948620098F8BD09
:1025E000002800407F7F7F0008B500220092002075
:1025F0000021174A926820231A40002A01D00120A6
:1026000025E0CA22124B5A6253225A621A46D268F5
:10261000A0239A430E4BDA6000BF0D4AD2682023F4
:102620001A401146009A521C00929B02009A9A424C
:1026300001D00029F1D0064AD26820231A40002A8E
:1026400001D0012000E00020FF22014B5A6208BDAA
:102650000028004008B500220092044A009282003F
:10266000009BD2180092009A116008BD50280040CB
:1026700070B504460E461546602000F05BFA00284F
:1026800007D100211A2000F0EBFE40213E2000F08F
:10269000E7FE0120287000F0B9F900281BD02020A7
:1026A00000F048FA00BF002000F0F6F9002000F02A
:1026B00019FE2070641C012000F0EEF9701EC0B2FB
:1026C000061EF0D11F211C2000F0CAFE002000F0E1
:1026D00031FA0420287070BDF0B5FFB0FFB083B0B0
:1026E00005460C46164617480088401E2146814381
:1026F0000F4614480088411E21400091114802886D
:10270000394601A800F069F801AA0099501832462C
:102710002946FDF717FD3146384600F03DF8002800
:102720000ED008480288394601A800F06EF800284B
:1027300004D001207FB07FB003B0F0BD0020F9E7E6
:102740000020F7E79400002010B5030000F0A8FE79
:10275000061304070A0D10130E4B195C0DE00D4B08
:10276000195C0AE00B4B195C07E00A4B195C04E0AA
:10277000084B195C01E0052100BF00BF002205E005
:10278000002400E0641C8C42FCD3521C8242F7DB24
:1027900010BD0000CC360008FEB504460D460126EB
:1027A000601901902746B00200903520FEF768F8C6
:1027B000FEF7F0F808E02046FEF768F8042802D19A
:1027C00000983F1800E00026002E02D001988742B2
:1027D000F1D3FEF79FF83046FEBD30B504460B46F8
:1027E0001D469007800F002803D19807800F00280E
:1027F00001D0002030BD002103E028886052891CF0
:10280000AD1C9142F9D30120F4E7F7B582B005463B
:10281000164601200190039FB007800F002802D0C8
:10282000002005B0F0BD3520FEF72AF8FEF7B2F81B
:10283000002410E029593846FEF776F8042806D11E
:1028400029593868884204D00020019001E0002016
:1028500001903F1D241D0198012801D1B442E9D304
:10286000FEF758F80198DCE730B5134CA4890480D2
:102870000124A4024480104C403CE16A226B636B4B
:1028800001710C04250E45710C02250E85710D0E8B
:10289000C57102721404250E45721402250E85724C
:1028A000150EC57203731C04250E45731C02250EFC
:1028B00085731D0EC57330BDC0F7FF1F0EB5002018
:1028C000FFF7AEFD1D49884229D001210807FFF717
:1028D00057FC0120FFF730FC0120FFF785FC00BF0B
:1028E0002120FFF75DFC0028FAD0FF200130FFF720
:1028F000A3FC0120FFF78CFCFFF776FE7F20019000
:10290000FF200290002000906846FFF75DFD002840
:1029100000D10EBD09490020FFF79CFE0CE001210B
:102920000807FFF72DFC0120FFF706FCFFF75CFE10
:10293000FF200130FFF7A4FC0120EAE7F03200009D
:1029400070B50446A0000D490E582021304600F015
:1029500078FD012811D1304600F07DFDC5B208494F
:10296000304600F065FDA00006490858002804D054
:10297000A0000A4611582846884770BD7C000020F8
:10298000050105001001002010B504462046FDF7A2
:102990000FFC10BD10B50446A0B2FFF7D5FE10BD68
:1029A0001CB5012103204004FFF7DAFB0021684633
:1029B00081710121C1710021017103214171002444
:1029C0001FE0E0001049401880880090E1000E4AA6
:1029D00050586946FEF732F8E0000B494018C088AD
:1029E00000280CD1E0004018C188601CC000064AD5
:1029F0008018C088814202D0012069460871601C9D
:102A000084B2072CDDD31CBD5837000810B5022155
:102A10000920C006FEF77CF8002801D0012010BD77
:102A20000020FCE710B501210920C006FEF770F870
:102A3000002801D0012010BD0020FCE710B50121C5
:102A400089020448FEF764F8002801D0012010BD77
:102A50000020FCE70004004810B50446002C04D018
:102A600004210448FEF760F803E004210148FEF762
:102A700059F810BD0004004810B50446002C05D0DC
:102A800080210920C006FEF74FF804E080210920CC
:102A9000C006FEF747F810BD10B50446002C04D060
:102AA00001210448FEF740F803E001210148FEF748
:102AB00039F810BD0004004810B50446002C04D0BD
:102AC00002210448FEF730F803E002210148FEF736
:102AD00029F810BD0004004870B504460D462020BA
:102AE00000F028F800213E2000F0BAFC04211A2052
:102AF00000F0B6FC1F211C2000F0B2FC00BF00203B
:102B0000FFF7CAFF2078641C00F0ECFB0120FFF700
:102B1000C3FF681EC0B2051EF1D1802000F00AF884
:102B200000BFFFF77FFF0028FBD0002000F002F875
:102B300070BD000010B504467648007884427DD010
:102B4000802C4CD173480078002816D12C2100F03D
:102B500087FC0520FFF718FF4C21002000F080FCC7
:102B600019204001FFF716FF8C21002000F078FCAF
:102B7000FF20F530FFF70EFF2DE066480078202893
:102B800010D14C21002000F06BFC19204001FFF710
:102B900001FF8C21002000F063FCFF20F530FFF7DF
:102BA000F9FE18E05B480078402808D18C2100200D
:102BB00000F056FCFF20F530FFF7ECFE0BE0554827
:102BC0000078602807D18C21002000F049FCFF200C
:102BD000F530FFF7DFFE80204E49087096E0602C4C
:102BE0004ED14C480078002816D12C2100F038FC3A
:102BF0000520FFF7C9FE4C21002000F031FC192010
:102C00004001FFF7C7FE6C21002000F029FCFF20E7
:102C1000F530FFF7BFFE2FE03E480078202812D1A4
:102C20004C21002000F01CFC19204001FFF7B2FEEF
:102C30006C21002000F014FCFF2000E068E0F5307B
:102C4000FFF7A8FE18E033480078402808D16C212F
:102C5000002000F005FCFF20F530FFF79BFE0BE0A5
:102C60002C480078802807D16C21002000F0F8FB68
:102C7000FF20F530FFF78EFE60202649087045E002
:102C8000402C27D12348007800280ED12C2100F0B9
:102C9000E7FB0520FFF778FE4C21002000F0E0FB69
:102CA00019204001FFF776FE10E01A48007820282E
:102CB00008D14C21002000F0D3FB19204001FFF780
:102CC00069FE03E04C21002000F0CAFB40201149BE
:102CD00008701BE0202C12D10E480078002806D185
:102CE0002C2100F0BDFB0520FFF74EFE03E02C2158
:102CF000002000F0B5FB20200649087006E00C21FA
:102D0000002000F0ADFB002002490870002010BD3B
:102D1000FF20FCE7960000200CB5002001900090F9
:102D2000314800680121090408432F49086000BFA9
:102D30002D48006801214904084000900198401C7A
:102D400001900098002804D10521090301988842C8
:102D5000EED125480068012149040840002802D02E
:102D60000120009001E0002000900098012839D156
:102D700011201E4908601C4840681B4948600846ED
:102D800040684860084640687F21C9038843164967
:102D90004860084640681121090408431249486008
:102DA000084600680121090608430F49086000BF72
:102DB0000D4800680121490608400028F8D00A485B
:102DC0004068800880000849486008464068022141
:102DD00008430549486000BF034840680C2108408B
:102DE0000828F9D10CBD000000100240002002406C
:102DF0001CB51A4840783C214843694648806846DB
:102E00004188164880780A225043081881B26846E3
:102E1000418040881149C978401881B26846418094
:102E20000F48418868464088814213D00C4800888A
:102E3000694608800421684600F070FB0190082272
:102E400008496846FFF748FC002803D068464088D8
:102E500003494880FEF7EEF91CBD00002000002069
:102E60004000002000A0000810B51020FEF784FEEE
:102E70000D4800780A21484304460B48407804195D
:102E8000601CC0B20446182800DB00240A2120463A
:102E9000FDF744F9044908700A212046FDF73EF980
:102EA000C8B20149487010BD1800002010B51020AC
:102EB000FEF762FE0548C078401CC0B20349C870E6
:102EC000092801DD0020C87010BD00001800002096
:102ED00010B51020FEF750FE05488078401CC0B2A7
:102EE00003498870052801DD0020887010BD0000AE
:102EF000180000201CB5684600F04DFB6846FDF741
:102F000027FA002808D11121684601700A21417072
:102F10001621017000214171154800780A214843AB
:102F2000134949784018C1B26846C170104880788A
:102F30000A2148430E49C9784018C1B26846017158
:102F4000C078172801DD172001E06846C07869467F
:102F5000C87008793B2801DD3B2001E06846007914
:102F600069460871684600F09DFBFEF763F91CBDD9
:102F7000180000201CB51A4840783C214843694697
:102F8000088068460188164880780A22504308184D
:102F900081B26846018000881149C978401881B221
:102FA000684601800F48018868460088814213D036
:102FB0000C484088694648800421684600F0AEFA13
:102FC0000190082208496846FFF786FB002803D0D5
:102FD0006846008803490880FEF72CF91CBD0000F4
:102FE000200000204000002000A0000810B517209D
:102FF000FEF7C2FD0648FEF763FE05484078401C18
:10300000C0B203494870022801DD0020487010BD9D
:103010002000002010B51720FEF7AEFD0648FEF791
:103020004FFE0548C078401CC0B20349C87009284B
:1030300001DD0020C87010BD2000002010B5172051
:10304000FEF79AFD0648FEF73BFE05488078401CD7
:10305000C0B203498870052801DD0020887010BDCA
:103060002000002010B500200949086000F05EF93A
:10307000002008490870FEF77FFD0748FEF720FE94
:10308000012006490870FDF79FF80549086010BD4A
:1030900030000020380000201C0000202800002004
:1030A0002C00002010B51A4840783C2148431949AB
:1030B0000860174880780A21484316490968401873
:1030C000144908601248C07809684018114908601E
:1030D00008460068002805D00F4800F027F90120B5
:1030E0000E4908700020FEF747FD0948FEF7E8FD8D
:1030F00001200B490870FDF767F80A4908600A4982
:103100000320FEF725FC00200849087010BD0000D0
:103110001C000020300000209D1500083800002011
:10312000280000202C0000206530000854000020FA
:1031300010B50A20114908701120FEF71DFD0F4837
:10314000FEF7BEFD0D484078401CC0B20B494870E8
:10315000022801DD00204870002009490870094953
:103160000320FEF7F5FB02200749087001200749FC
:103170000870FDF729F80649086010BD1C00002002
:1031800038000020A530000828000020540000204E
:103190005000002010B50A20114908701120FEF7D8
:1031A000EBFC0F48FEF78CFD0D48C078401CC0B208
:1031B0000B49C870092801DD0020C87000200949AA
:1031C000087009490320FEF7C3FB02200749087075
:1031D000012007490870FCF7F7FF0649086010BD99
:1031E0001C00002038000020A53000082800002026
:1031F000540000205000002010B50A20114908702A
:103200001120FEF7B9FC0F48FEF75AFD0D488078F3
:10321000401CC0B20B498870052801DD0020887071
:1032200000200949087009490320FEF791FB02209C
:1032300007490870012007490870FCF7C5FF0649D7
:10324000086010BD1C00002038000020A5300008D8
:1032500028000020540000205000002010B50A2053
:1032600007490870487088700020C87005490870C8
:103270000820FEF781FC0248FEF722FD10BD000089
:10328000240000204C00002010B5034800780028DE
:1032900001D1FDF7CFFF10BD4C00002010B50E4846
:1032A0000078002816D10D48C078012812D00A20D5
:1032B0000A490870487088700020C87001200649CB
:1032C0000870FDF7AFFAFCF77FFF054908600020A2
:1032D000FEF752FC10BD00004C000020240000202E
:1032E0004800002070B5044608251AE080202040E0
:1032F000002803D00120FFF7AFFB02E00020FFF71A
:10330000ABFB0120FFF7D8FB6006040EFFF796FB2E
:10331000002801D0601CC4B20020FFF7CDFB681E5E
:10332000C5B2002DE2DC204670BD000001490860F6
:10333000704700009000002010B57D21C9000C48A6
:103340000068FCF7D5FE0446601E0A49884200D991
:103350000CE0601E084948610321081FFEF7B0FE1B
:103360000020054988610720086100BF10BD0000EA
:1033700000000020FFFFFF0000E000E010B506485D
:103380000068401C0449086004480068002802D016
:1033900002480068804710BD8C000020900000208B
:1033A00010B51B4800680121084319490860084608
:1033B00040681849084016494860084600681649A0
:1033C00008401349086008460068012189048843C1
:1033D0000F490860084640683F21090488430C49AA
:1033E00048600846C06A00090001C8620846006BD0
:1033F000FF2154318843064908630846406B400862
:103400004000486300208860FFF786FC10BD000084
:10341000001002400CB8FF08FFFFF6FE10B50020B8
:10342000FFF78EFA10BD10B50120FFF789FA10BD25
:1034300010B5002300220B0C01249C40224602629E
:1034400010BD02460020D3690B40002B01D00120A3
:1034500000E0002070470146888CC005C00D704711
:1034600070B505460C4600BF0120FFF705FB0120A3
:10347000FFF712FB0120FFF7EFFA0020FFF71CFB1C
:1034800000BF0020FFF7F8FA2846FFF72BFF204681
:10349000FFF728FF06460120FFF7EEFA304670BD21
:1034A00030B47446641E2578641CAB4204D3635D5B
:1034B0005B00E31830BC18471D46F8E702E008C877
:1034C000121F08C1002AFAD170477047002001E09E
:1034D00001C1121F002AFBD1704730B503460C46CC
:1034E000002100E0491C914203D2585C655CA8426F
:1034F000F8D0914201D1012030BD0020FCE700004E
:1035000010B5021203464B401B06DB0D024CE35A7A
:103510005A40104610BD0000A0370008F0B585B035
:1035200006460C4600200390A007800F002801D01B
:10353000012000E0002002900298002812D000250F
:10354000A007800F0190A0088000009007E000987D
:10355000411C0091325C28466D1C03A90A54019855
:103560008542F4D301214020FEF7FAFDFCF7E6FE88
:10357000A1083046FCF7C8FE07460298002803D091
:103580000398FCF7D3FE074600214020FEF7E8FD34
:10359000384605B0F0BD70B504462046FCF72AFE5B
:1035A0000546284670BD000008B5FFF7C5FEFEF7CA
:1035B0004DF800F073F8FCF721FFFEF70FFAFDF766
:1035C0005FF8FDF79BFFFFF7EBF9FEF79BF955213D
:1035D0003220FFF745FF00217220FFF741FF5528F9
:1035E00000D000BFAA213220FFF73AFF002172204D
:1035F000FFF736FFAA2800D000BF66213220FFF770
:103600002FFF00217220FFF72BFF662800D000BF9C
:103610003EE0FDF7F1F9FEF741F800201D49087082
:1036200027E0022100916A462B211B48FFF720F872
:1036300068460078042817D1002401E0601C84B299
:1036400015482030807AA042F8DC002406E02146AC
:10365000621C94B2104A505CFDF798F80E48203076
:10366000807AA042F3DC08E00A480078401C09494F
:103670000870084800781E28D3DB00BFFCF7BDFEA9
:10368000FEF7E8F9FDF782FDFDF77EFEFDF7A4FEEB
:10369000BFE70000140000202001002010B5FFF754
:1036A0000DF910BD70B5044600252046FCF750FE0C
:1036B000002803D02046FCF7BBFD0546284670BD18
:1036C000E90C0008B1100008D90D00080001020340
:1036D00004045B5C5D5E5F0001020304000C01A05A
:1036E000020703230424068F073808370CC510A3EC
:1036F0001138123816631764186519661A721B00A0
:103700001C2B1E600102040805FA60D6F46CBCBED6
:10371000E0FEFC0400FA60D6F46CBCBEE0FEFC04E3
:1037200000FA60D6F46CBCBEE0FEFC0400AF066D8F
:103730004FC6CBEB0EEFCF40000000002D05000878
:10374000FD0400084D04000819050008D90400080C
:10375000310500088104000800040048000400004E
:1037600000000048010000000000004802000000C6
:103770000004004801000100000000488000010032
:103780000004004802000100000400480400010099
:103790003031323334353637383941424344454687
:1037A0000000891112239B322446AD573665BF7441
:1037B000488CC19D5AAFD3BE6CCAE5DB7EE9F7F8F1
:1037C0008110080193331A22A5562C47B7753E6421
:1037D000C99C408DDBBF52AEEDDA64CBFFF976E8D1
:1037E00002218B30100299132667AF763444BD5501
:1037F0004AADC3BC588ED19F6EEBE7FA7CC8F5D9B1
:1038000083310A2091121803A7772E66B5543C45E0
:10381000CBBD42ACD99E508FEFFB66EAFDD874C990
:1038200004428D5316619F702004A9153227BB36C0
:103830004CCEC5DF5EEDD7FC6888E1997AABF3BA70
:1038400085520C4397711E60A1142805B3373A26A0
:10385000CDDE44CFDFFD56ECE9986089FBBB72AA50
:1038600006638F7214409D512225AB343006B91780
:103870004EEFC7FE5CCCD5DD6AA9E3B8788AF19B30
:1038800087730E6295501C41A3352A24B116380760
:10389000CFFF46EEDDDC54CDEBB962A8F99A708B10
:1038A000088481951AA793B62CC2A5D33EE1B7F040
:1038B0004008C919522BDB3A644EED5F766DFF7CF0
:1038C000899400859BB712A6ADD224C3BFF136E020
:1038D000C1184809D33B5A2AE55E6C4FF77D7E6CD0
:1038E0000AA583B4188691972EE3A7F23CC0B5D100
:1038F0004229CB38500AD91B666FEF7E744CFD5DB0
:103900008BB502A499961087AFF326E2BDD034C1DF
:10391000C3394A28D11A580BE77F6E6EF55C7C4D8F
:103920000CC685D71EE597F42880A1913AA3B3B2BF
:10393000444ACD5B5669DF78600CE91D722FFB3E6F
:103940008DD604C79FF516E4A9902081BBB332A29F
:10395000C55A4C4BD7795E68E11C680DF33F7A2E4F
:103960000EE787F61CC495D52AA1A3B03882B1937F
:10397000466BCF7A5448DD59622DEB3C700EF91F2F
:103980008FF706E69DD414C5ABB122A0B99230835F
:10399000C77B4E6AD5585C49E33D6A2CF11E780F0F
:1039A000C03900080000002010010000BC340008ED
:1039B000D03A00081001002080040000CC34000838
:1039C000006CDC02000000000000000001020304A3
:1039D00006070809000000000000000000000000C9
:1039E0000A0A00000A0A0A000000000000000000A5
:1039F00000000000000000000000000000000000C7
:103A000000000000000000000000000000000000B6
:103A10000000000000000000FF00000000000000A7
:103A200000000000000000000000FFFF0000000098
:103A3000000000000000000000000000003801400D
:103A40000044004000480040004C004000000000DE
:103A50000000000000042000000000000000000042
:103A6000FFFFFFFFFFFF000000000000000000005C
:103A70000000000000000000000000000000000046
:103A80000000000000FF00000000000000FFFFFF3A
:103A9000FF0000000937000815370008213700082B
:103AA0002D370008000000000000000000000000AA
:103AB000000000000000000000000000FFFF000008
:103AC00000000000000000000000000000000000F6
:04000005080000C12E
:00000001FF
