:020000040800F2
:10000000A8050020D5000008DD000008DF0000087A
:1000100000000000000000000000000000000000E0
:10002000000000000000000000000000E1000008E7
:100030000000000000000000E3000008BD350008DB
:10004000E7000008E7000008E7000008E7000008F4
:10005000E7000008E7000008E7000008E7000008E4
:10006000E7000008E7000008E7000008E7000008D4
:10007000E7000008E7000008E7000008E7000008C4
:10008000E7000008E700000800000000E7000008A3
:10009000E7000008E7000008E7000008E7000008A4
:1000A000E7000008E7000008E7000008AD37000897
:1000B000B737000800000000E7000008000000005B
:1000C0000348854600F062F80048004739390008C7
:1000D000A80500200448804704480047FEE7FEE7E3
:1000E000FEE7FEE7FEE7FEE7E1350008C100000895
:1000F00030B50B46014600202022012409E00D46C0
:10010000D5409D4205D31D469540491B2546954047
:1001100040191546521E002DF1DC30BD70B500248B
:100120002546002801DA01244042002901DA012590
:100130004942FFF7DDFFAC4200D04042002C00D026
:10014000494270BD03460B439B0703D009E008C931
:10015000121F08C0042AFAD203E00B780370401C77
:10016000491C521EF9D27047D2B201E00270401C05
:10017000491EFBD270470022F6E710B513460A4627
:1001800004461946FFF7F0FF204610BD064C012536
:10019000064E05E0E36807CC2B430C3C984710342F
:1001A000B442F7D3FFF790FFB4460008D4460008E6
:1001B000044A116800BF034A1268521A8242FAD3F5
:1001C000704700008800002072B60249086862B6D5
:1001D0007047000088000020024672B60448036899
:1001E00062B6981A884201D3012070470020FCE7CC
:1001F000880000201CB5044601A9002002F0D6F9B1
:100200006946002002F0A2F96846C078207068466E
:100210004078607068468078A07068460079E07029
:1002200068464079207168468079607101201CBD64
:100230001CB5044601A9002002F0B8F96946002067
:1002400002F084F921786846C17061784170A17824
:100250008170E178017121794171617981710021A9
:10026000C17101A9002002F073FA6946002002F072
:1002700007FA01201CBD000070B50546282901D9E8
:10028000002070BD0D4B2C46CAB205E020781870D6
:10029000641C5B1C501EC2B2002AF7DCBB26074858
:1002A0002030067206480078401CC6B2044806702A
:1002B00002482030467281720120E2E72C010020C2
:1002C000930000201CB50121880402F059F8012098
:1002D0004002009001216846017103214171002113
:1002E00081710121C1716946014800F0F7FC1CBD14
:1002F0000004004810B501214902024800F064FDE5
:1003000010BD00000004004810B501214902024858
:1003100000F058FD10BD00000004004810B5024672
:100320000B46002100BF04E088001058034C2060F9
:10033000491C9942F8D30148006810BD00300240C2
:10034000014602480160006870470000003002402A
:100350000348806801210843014988607047000014
:100360000030024070B5044601252078632805DC82
:1003700060780C2802DC6078002800D100256078C5
:10038000030003F055FA0D360816092B0A2C0B0C46
:100390002D0D2E0E360000BF00BF00BF00BF00BFF6
:1003A00000BFA0781F2802DCA078002800D100251B
:1003B00020E0207801F0AEFD002807D0A0781D28AD
:1003C00002DCA078002808D1002506E0A0781C28CF
:1003D00002DCA078002800D100250BE000BF00BFA0
:1003E00000BFA0781E2802DCA078002800D10025DC
:1003F00000E000BF00BFE078172805DC20793B282B
:1004000002DC60793B2800DD0025284670BD000035
:1004100010B50A2134480068FFF7DEFE002804D03A
:10042000FFF7D2FE3049086000E010BD2F48007889
:10043000002804D001282ED0022851D14CE02C48AD
:100440002C490B680ECB0EC00C388068002807D0F2
:1004500027488068401E26498860FFF755FF03E063
:100460000220224908703BE021484068002808D05B
:100470001F484068401E1E494860086800F08AF81E
:1004800005E0FFF737FF02201849087028E0012037
:100490001649087024E016488068002805D01448E2
:1004A0008068401E1249886001E0FFF723FF104872
:1004B0004068002805D00E484068401E0C4948603E
:1004C00009E000F041F80B4800680C300949086069
:1004D00000200649087003E000200749087000BFAB
:1004E00000BF00BFA1E70000A00000209400002092
:1004F00058010020980000209C00002010B5FFF754
:10050000E1FE00F003F8FFF7F5FE10BD1CB5012178
:10051000880401F035FFFF20013000900221684679
:10052000017103214171002181710121C17169466D
:10053000044800F0D3FB02220821024800F016FC18
:100540001CBD00000004004800B585B0602168466D
:1005500001800021418004218180022181810021CC
:10056000C181FF21013101820021418200200290DE
:100570006946064803F092F80121044803F07CF82C
:1005800001200349087005B000BD0000004401408F
:100590000C01002030B589B004460121480401F067
:1005A0000FFFE10022480068FFF7A2FD401E21492D
:1005B000086008460068079007216846018300210B
:1005C0000184418308A8817006A91B4803F0B0F894
:1005D0000121194803F042F818480078002825D076
:1005E00014490968491E3222514308466421FFF725
:1005F0007FFD85B26021684681800121C180042190
:10060000018100210182082141824901818200216A
:10061000C182039501A9084803F040F8012106486A
:1006200003F02AF800200549087000BF09B030BD6A
:100630000000002008010020004401400C010020BF
:1006400070B5044601253E480078002806D00C2CE1
:1006500003D100203A49087003E070BD01203849F9
:100660000870230003F0E4F8130B0F13171B1F236C
:10067000272B2F33373B474B4F53575B5F00314896
:100680003149086053E031482F4908604FE0304855
:100690002D4908604BE02F482B49086047E02E4861
:1006A0002949086043E02D48274908603FE02C486D
:1006B000254908603BE02B482349086037E02A4879
:1006C0002149086033E029481F4908602FE0284885
:1006D0001D4908602BE027481B49086027E00025DA
:1006E000002019490860FFF705FEFFF72DFF0220E3
:1006F000214908701BE021481349086017E0204891
:100700001149086013E01F480F4908600FE01E48B8
:100710000D4908600BE01D480B49086007E01C48C4
:100720000949086003E007480749086000BF00BFA7
:10073000002D02D000201049087000BF8DE7000096
:100740009C000020703A000898000020883A0008B9
:10075000B83A0008003B0008603B0008D83B00089E
:10076000683C0008103D0008D03D0008A83E000885
:10077000983F0008A040000894000020684200084C
:100780009842000864430008F8420008C842000884
:100790002843000810B509490B680968491C074C33
:1007A00021600749C854214609680C2905D3002156
:1007B000224611600321034A117010BDFC00002085
:1007C00078010020F80000203EB504460E4800687D
:1007D000401C0D490860022814D3002008600B4813
:1007E00000680B4988420DD1684600F0B6F80C222B
:1007F0000849684603F039F8002802D0054800F09F
:1008000057F800BF3EBD0000FC00002000010020A2
:10081000B8F0000078010020064A50731146097BA9
:10082000002903D00521044A117002E00621024A82
:100830001170704778010020F8000020C1B24329F0
:1008400003D10221034A117002E00021014A117014
:1008500070470000F8000020024A10730421024A89
:100860001170704778010020F800002070470000E8
:1008700010B50C490B680968491C0A4C21600A49EB
:10088000C8540E39097B22461268914203D9214689
:1008900009681E2905D30021024A11600621034A76
:1008A000117010BDFC00002086010020F80000201F
:1008B00010B50446607B002804D0012806D0022829
:1008C00024D122E001201349087020E0207B012878
:1008D0001AD1A07BAA2806D1202001F0D7FB012045
:1008E0000D49087005E0202001F0C8FB00200A49EE
:1008F0000870FFF769FC09490860AA20A07301206D
:100900002073204600F034F801E000E000BF00BF93
:1009100010BD0000F1000020F0000020F4000020D5
:100920001CB50121480401F02BFD0420009000219A
:100930006846017103214171002181710121C1715A
:1009400069460920C00600F0C9F9082000906946F0
:100950000920C00600F0C2F91CBD1FB50446684658
:1009600002F0A2F80C2201A92046FFF7EBFB1FBD05
:10097000F0B593B006462C4C0025432228466D1C4A
:1009800001A90A542046432102F082FF044610A820
:10099000FFF7E3FF00270CE010A8C25D28466D1C9E
:1009A00001A90A5410AAD15DA0B202F071FF044659
:1009B0007F1C0C2FF0D3327B28466D1C01A90A54F2
:1009C000317BA0B202F064FF0446727B28466D1CA6
:1009D00001A90A54717B204602F05AFF0446002701
:1009E0000EE030460E30C25D28466D1C01A90A5447
:1009F00032460E32D15DA0B202F04AFF04467F1C9F
:100A0000307BB842EDD8E44328466D1C01A90C5454
:100A10002004020E28466D1C0A54294601A800F045
:100A200067F8284613B0F0BDFFFF000010B504467C
:100A30001D480078062802DD00201B4908701A486E
:100A4000007800280BD0FFF7BFFB18490968401A4F
:100A5000FF21F531884202D900201349087012485D
:100A6000007800280CD12C211148FFF784FB114895
:100A70001149086000201149086001200A490870E6
:100A8000FFF7A2FB09490860E1B20B4A128890B255
:100A900002F0FEFE08490860034800788000084A1A
:100AA00011582046884710BDF8000020040100209E
:100AB00078010020FFFF000000010020FC00002062
:100AC0005044000800B58BB00021684641730173A3
:100AD0000020034908706846FFF74AFF0BB000BDCD
:100AE000F10000200148007870470000F10000206C
:100AF00070B504460D4629462046FFF7BDFB002889
:100B000003D02B21054802F007F9002000E0401C2B
:100B100002492031897A8142F9D870BD2C01002028
:100B20000149C860704700000020024030B504460B
:100B300004250B20000400F08FF80546042D17D182
:100B40000C480069022108430A49086108464461CB
:100B5000006940210843074908610B20000400F0A8
:100B60007BF8054603480069022188430149086172
:100B7000284630BD0020024004200D49C968C9073D
:100B8000C90F002901D0012010E00949C9681022CD
:100B90001140002901D0022008E00549C96804225B
:100BA0001140002901D0032000E00420704700001C
:100BB0000020024003480069802108430149086180
:100BC000704700000020024078B506460C46042518
:100BD000002000900B20000400F03EF80546042D94
:100BE00024D1134800690121084311490861348068
:100BF0000B20000400F030F80546042D10D1B01C85
:100C00000090200C009908800B20000400F024F8CC
:100C1000054607480069400840000549086105E0AD
:100C2000034800694008400001490861284678BD32
:100C3000002002400548006980210840002804D0B7
:100C4000034802494860034848607047002002405A
:100C500023016745AB89EFCD10B503460424FFF7A8
:100C60008BFF044603E0FFF787FF04465B1E012C61
:100C700001D1002BF7D1002B00D10524204610BD57
:100C800010B504210920C00600F092F8002801D117
:100C9000012010BD0020FCE710B5FFF7F1FF04466E
:100CA0000B480078A04205D009480470FFF78CFA81
:100CB00008490860FF212D3106480068FFF78CFACB
:100CC000002803D0024800780349087010BD0000D6
:100CD000180100201401002010010020F0B50A4680
:100CE00000210023002400BF3DE001258D402B465C
:100CF00015681D402C469C4234D11579012D02D037
:100D00001579022D16D185684F000326BE40B543E4
:100D1000856055794E00B540866835438560858885
:100D200001268E40B5438580858896798E40B6B27F
:100D30003543858005684F000326BE40B5430560F6
:100D400015794E00B540066835430560C5684F000B
:100D50000326BE40B543C560D5794E00B540C66890
:100D60003543C560491C1029BFD3F0BDF0B5002341
:100D700000244D07EE0E1546B5402B46CD10AE00B3
:100D800005462035AD594E07F70E0F26BE40B54338
:100D9000CE10B60007462037BD51CD10AE003D46FF
:100DA000AD591D432C46CD10AD003E467451F0BDEB
:100DB00002460020138A0B40002B01D0012000E0E6
:100DC0000020704701857047816170473EB55FA282
:100DD00007CA6B4607C30C2500F01AFC002803D095
:100DE000402001F053F902E0402001F047F95A4851
:100DF0000068002800D03EBD58480078002832D155
:100E000000F006FC002826D155480078002814D0B0
:100E100000F004FC00280CD0524953480068FFF74A
:100E2000DBF9002804D000204D49087000F016FCC2
:100E300089E000204A49087085E001204749087090
:100E4000FFF7C2F949490860002049490880401E5F
:100E50004849088077E042480078002873D0002095
:100E60003F4908706FE000F0D9FB002803D000F084
:100E7000CFFB002803D0002038490870BBE73E486C
:100E800000883E4A5043014638480068FFF7A4F9FD
:100E9000002858D0374800883549098888421DD035
:100EA000344800883649884214D1334800880C28D9
:100EB00001DB0C2001E03048008804466946085DEB
:100EC000FFF7BEFB2C48008829490880FFF77CF912
:100ED0002C49086026480088264908802749294867
:100EE0000068FFF779F900281AD021480088401CD3
:100EF0001F49088020484088098888420CDD1C482A
:100F000000880C2801DB0C2001E019480088044609
:100F10006946085DFFF794FBFFF756F91949086029
:100F2000154840881249098888420CDC0B20FFF7DD
:100F300087FB002009490870012009490870FFF764
:100F400043F90949086000BF55E7000000000102AD
:100F5000030405060708090A2C0000205800002099
:100F600068000020102700006C0000205C000020BA
:100F700064000020660000203C00002060EA0000C1
:100F8000FFFF0000600000201CB5334933480068B3
:100F9000FFF722F9002811D0FFF716F92F49086052
:100FA0002F480068002856D001202E4908702E488E
:100FB00000F0A8FF112000F001FF4CE0684602F0AD
:100FC000B2FC6846C07829490978884205D168464C
:100FD00000792749097888423CD06946C8780A21B7
:100FE000FFF79CF8C4B2092C01DD092000E020467F
:100FF000204908706946C8780A21FFF78FF8CCB2FB
:10100000092C01DD092000E020461A494870694694
:1010100008790A21FFF782F8C4B2092C01DD092002
:1010200000E0204613498870694608790A21FFF7D5
:1010300075F8CCB2092C01DD092000E020460D49ED
:10104000C8706846C0780949087068460079084940
:10105000087000BF00BF1CBD8813000028000020DE
:101060002C00002024000020180000205100002047
:10107000520000201400002010B519480078002804
:1010800009D07D21490117480068FFF7A5F800281D
:1010900001D002F027F91448007800281ED0FFF78D
:1010A00021FD00280AD00A20104908704870887075
:1010B0000120C87000200C4908700FE00C490D4851
:1010C0000068FFF789F8002808D00A20074908704F
:1010D00048708870C87000200349087010BD000077
:1010E000500000204C00002048000020200000207C
:1010F000881300004400002010B5544800780428EC
:1011000002DD0020514908705048007800281BD1AA
:1011100000F0EAF84E49002000F03CFD4D49012066
:1011200000F038FD4C49022000F034FD4B4903200B
:1011300000F030FD02204A4908700E2000F09EFFAA
:10114000012000F0A3FF7AE04048007801281BD17D
:1011500000F0D4F84349002000F01CFD4249012072
:1011600000F018FD4149022000F014FD4049032021
:1011700000F010FD02203A4908700D2000F07EFFBB
:10118000022000F083FF5AE03048007802281BD18B
:1011900000F080F83349002000F0FCFC32490120C7
:1011A00000F0F8FC3149022000F0F4FC3149032042
:1011B00000F0F0FC02202A4908700B2000F05EFFCE
:1011C000042000F063FF3AE02048007803281BD198
:1011D00002F064F90021084600F0DCFC0021012047
:1011E00000F0D8FC2449022000F0D4FC234903205D
:1011F00000F0D0FC02201A490870072000F03EFFE2
:10120000082000F043FF1AE0102000F0D7FD1C4832
:1012100000F078FE0020124908701A4900F0BAFC6C
:101220001949012000F0B6FC1849022000F0B2FC78
:101230001749032000F0AEFC0F2000F01FFF034809
:101240000078401C0149087010BD000049000020D2
:10125000A930000811310008ED30000835310008D0
:10126000240000202D3200087D320008553200088D
:10127000B531000831300008DD340008C9340008F9
:10128000140000207133000839340008D5330008F9
:10129000A5320008F8B5124948883C21FEF73EFF08
:1012A000C4B20F4948883C21FEF738FF0F460A2197
:1012B0003846FEF733FFC5B2094948880A21FEF7D0
:1012C0002DFFCEB20A200749087008464470857089
:1012D000C670172000F072FD024800F013FEF8BD42
:1012E0003C0000201C00002010B5102000F066FD1E
:1012F000014800F007FE10BD14000020F8B51249A7
:1013000008883C21FEF70AFFC4B20F4908883C2137
:10131000FEF704FF0F460A213846FEF7FFFEC5B26E
:10132000094908880A21FEF7F9FECEB20A200749CA
:101330000870084644708570C670172000F03EFDA6
:10134000024800F0DFFDF8BD3C0000201C0000203A
:1013500070B501242E4D2F48006800280CD17D2542
:101360002D010A202C490870002048708870C87030
:101370002848006829490860294629480068FEF77E
:101380002BFF002833D1002422480068B42802D360
:10139000B320204908601F48006820490968884236
:1013A00025D00A201C4908703C211A480068FEF725
:1013B0009FFE194948703C2116480068FEF798FEC8
:1013C0000E460A213046FEF793FE134988703C21F1
:1013D00010480068FEF78CFE0E460A213046FEF7E4
:1013E00087FE0D48C1700B4800680C490860002C4E
:1013F0000CD0FEF7E9FE0A49086000200949087090
:10140000094800F07FFD102000F0D8FC70BD0000FE
:10141000881300002C000020180000205400002039
:1014200028000020240000201400002010B52248CD
:101430000078022802DD00201F4908701E49097843
:1014400089001E4A505880471D480078002813D054
:101450001C480068002812D10B20FFF7F1F800208B
:101460001749087002F082F8012017490870FEF74A
:10147000ABFE1649086002E0002002F077F812483F
:101480000078002813D0124910480068FEF7A4FE27
:10149000002805D000200C49087000F0DFF806E0B5
:1014A00000F0B6F8002802D0002007490870FFF7C6
:1014B0008DFC00F0F9F810BD240000202C3A000843
:1014C000340000202C000020700000207400002058
:1014D0001027000010B54048007801281BD1FFF705
:1014E0000DFF3E49002000F055FB3D49012000F072
:1014F00051FB3C49022000F04DFB3B49032000F02A
:1015000049FB0220394908700D2000F0B7FD022088
:1015100000F0BCFD5AE03048007802281BD1FFF7EC
:10152000B9FE2E49002000F035FB2D49012000F0C6
:1015300031FB2C49022000F02DFB2D49032000F047
:1015400029FB0220294908700B2000F097FD042098
:1015500000F09CFD3AE02048007803281BD101F000
:101560009DFF0021084600F015FB0021012000F03E
:1015700011FB2049022000F00DFB1F49032000F061
:1015800009FB022019490870072000F077FD0820A8
:1015900000F07CFD1AE0102000F010FC174800F06D
:1015A000B1FC002011490870154900F0F3FA154903
:1015B000012000F0EFFA1449022000F0EBFA134981
:1015C000032000F0E7FA0F2000F058FD02480078F1
:1015D000401C0149087010BD490000202D32000850
:1015E0007D32000855320008B53100082400002083
:1015F00031300008DD340008C93400081400002030
:101600007133000839340008D5330008A5320008CA
:101610000148007870470000100100200148007860
:1016200070470000F000002010B50948007800283D
:101630000CD0084908480068FEF7CEFD002805D008
:10164000002003490870202000F018FD10BD0000A4
:10165000F000002018790000F400002000B58BB0E5
:101660000221684641735521817301210173FFF7FF
:101670007FF90BB000BD10B508210920C006FFF7A7
:1016800097FB002801D0012010BD0020FCE70000DE
:1016900010B50C20FEF7D4FF0249032000F07AFABF
:1016A00010BD0000E532000810B521480078002880
:1016B00022D0FFF7E0FF002817D01E491E4800681F
:1016C000FEF78AFD002832D0FFF7C8FF0B20FEF797
:1016D000B7FF102000F0DAFCFEF776FD164908602F
:1016E0001649032000F056FA21E0102000F0C6FC55
:1016F00000200F4908701AE0FFF7BDFF002813D043
:10170000FFF7ACFF0B20FEF79BFF102000F0BEFCA4
:10171000FEF75AFD0849086001200549087007498D
:10172000032000F037FA02E0102000F0A7FC10BD03
:101730003500002020BF020038000020911600086C
:1017400010B500241C49002000F024FA1B49012098
:1017500000F020FA1A49022000F01CFA194903206F
:1017600000F018FA1849042000F014FA082217496A
:10177000174801F052F9002808D00421144802F05B
:1017800095F813494968884200D10124002C04D1FE
:1017900001200F49088005204880FEF715FD0D49FE
:1017A000086000200C490870102000F007FB0B486F
:1017B00000F0A8FB10BD00007133000839340008A8
:1017C000D5330008A5320008F910000800A0000871
:1017D0003C000020280000202400002014000020ED
:1017E00010B50B480068401C094908600949884247
:1017F0000DD300200649086007480068401E0649CE
:10180000086008460068002801D101F0AFFE10BD55
:101810003000002060EA00002C000020FF20F5309E
:1018200000BF0146421E90B20029FAD17047000065
:101830001CB501212120400400F0A2FD10200090E1
:101840000021684681710121C1710171032141713B
:1018500069460920C006FFF741FA4020009069461A
:101860000920C006FFF73AFA2020009069460920B7
:10187000C006FFF733FA8020009069460348FFF75F
:101880002DFA80210148FFF79FFA1CBD0014004883
:101890001FB5FFF7CDFF522000F060F8022000F0E6
:1018A0005DF8062000F05AF80020009001900290A8
:1018B00003902022694600F0AEF8FF22102168460E
:1018C000FEF752FC002408E060106A4681180222EC
:1018D000204600F0A0F8A01CC4B2202CF4DB1FBDF1
:1018E0001CB500F07DFA00F0D9FB062219491A4810
:1018F00001F0BBFF00282CD1062217491548FEF73E
:1019000021FC154801786846017013484178684603
:10191000417011488178684681700F48C07800078F
:10192000010E0D4800790007000F01436846C170A1
:101930000948C078F0210840001107494979090792
:10194000090E0843694608710A22162000F063F860
:1019500000BF1CBDAC000020B200002070B50646E0
:1019600010210920C006FFF72DFA002404251FE0EE
:1019700004202840002805D020210920C006FFF7B8
:1019800023FA04E020210920C006FFF71BFA4021BA
:101990000920C006FFF716FAFFF740FF4021092093
:1019A000C006FFF711FAFFF739FF601C84B26D1013
:1019B000032CDDDB0024FF2501351FE030462840E5
:1019C000002805D020210920C006FFF7FDF904E01A
:1019D00020210920C006FFF7F5F940210920C006A3
:1019E000FFF7F0F9FFF71AFF40210920C006FFF7C3
:1019F000EBF9FFF713FF601C84B26D10092CDDDBDF
:101A000010210920C006FFF7DFF920210920C006B8
:101A1000FFF7DAF970BDF7B582B00F461021092043
:101A2000C006FFF7CFF9002404251FE00520284059
:101A3000002805D020210920C006FFF7C5F904E0E1
:101A400020210920C006FFF7BDF940210920C0066A
:101A5000FFF7B8F9FFF7E2FE40210920C006FFF7C3
:101A6000B3F9FFF7DBFE601CC4B26D10032CDDDBA5
:101A7000002420251FE002982840002805D02021BE
:101A80000920C006FFF7A0F904E020210920C006C4
:101A9000FFF798F940210920C006FFF793F9FFF7F7
:101AA000BDFE40210920C006FFF78EF9FFF7B6FE04
:101AB000601CC4B26D10062CDDDB002635E0F0079B
:101AC000C00F002804D07010385C0011019004E0B1
:101AD0007010385C0007000F01900024012520E001
:101AE00001982840002805D020210920C006FFF7D2
:101AF0006BF904E020210920C006FFF763F94021BB
:101B00000920C006FFF75EF9FFF788FE4021092093
:101B1000C006FFF759F9FFF781FE601CC4B26806E2
:101B2000050E042CDCDB701C86B204988642C6DBF2
:101B300010210920C006FFF747F920210920C0061F
:101B4000FFF742F905B0F0BD70B500BF012001F00C
:101B5000B3F8012001F0C0F8012001F09DF8002049
:101B600001F0CAF800BF002001F004F9084C142568
:101B70000AE06178227852003E231A40104601F0B4
:101B800037FEA41C681EC5B2002DF2DC70BD00003B
:101B9000483A00080CB507A30CCB01930092052826
:101BA00000D30CBD6A46125C9200044B995000BFF2
:101BB000F7E70000000103020400000064010020B8
:101BC00010B500240121C9030920C006FFF7F0F871
:101BD000002801D10120044308211048FFF7E8F84C
:101BE000002801D102200443FF2101310920C00651
:101BF000FFF7DEF8002801D1042004430121C903C6
:101C00000648FFF7D5F8002801D108200443002C2E
:101C100001D1FF2010BD2046FCE700000004004871
:101C20001CB501210320400400F0AAFB00216846F6
:101C300081710121C17100210171032141710120D4
:101C4000C003009069460920C006FFF747F8082046
:101C5000009069460E48FFF741F8FF2001300090E0
:101C600069460920C006FFF739F80120C00300903B
:101C700069460748FFF732F8002405E00020A1007C
:101C8000044A5050601CC4B2052CF7D31CBD0000A0
:101C900000040048640100207CB541480078002819
:101CA0000FD1FFF78DFF3F49087008460078FF28E5
:101CB00074D0FEF789FA3C49086001203849087061
:101CC0006CE037480078012827D1FFF779FF0446F8
:101CD000C82135480068FEF77FFA002812D0314845
:101CE0000078844207D1FEF76FFA2F49086002207E
:101CF0002B49087010E0002029490870FF2029496D
:101D0000087009E027480078844205D00020244963
:101D10000870FF202349087040E02148007802281D
:101D20003CD10025FFF74CFF06461E480078B04224
:101D300001D0012508E0FF21F5311B480068FEF7BE
:101D40004BFA002800D00125002D26D000241BE0EE
:101D50001648005D13490978884213D1A000144940
:101D60000858002803D0A100114A5058804711A1FB
:101D700003C901910090052C03D26946085DFEF766
:101D80005FFC00BF601CC4B2052CE1D300200449F5
:101D90000870FF200349087000BF00BF7CBD000031
:101DA000A4000020A5000020A8000020184400087E
:101DB000640100200D0E10111200000010B5044641
:101DC00004480470FEF700FA034908600020034944
:101DD000087010BDC9000020CC000020C800002001
:101DE00038B501253F480068002800D138BD3E487D
:101DF0000078002814D07D21C9003C480068FEF717
:101E0000EBF900280CD0FEF7DFF9384908603848B4
:101E10000078002801D1012000E00020344908703A
:101E20000422304801686846FEF78CF92E48007895
:101E300000281AD02E480078002816D100240BE084
:101E40000120A040284909780840002802D00B2032
:101E500069460855601CC4B2042CF1DB22480078A6
:101E600010210840002800D00025002435E021483A
:101E7000005D6946095D884205D1022C2BD11E48C0
:101E80000078A84227D06846005D1A490855022C00
:101E900019D119480570002D0AD0A000174908581B
:101EA0006946095D405C012108431549085512E067
:101EB000A000124908586946095D405C400840008E
:101EC0000F49085507E0A0000C4908586946095D0C
:101ED000405C0B490855601CC4B2042CC7DB00BF32
:101EE00084E70000C4000020C9000020CC000020CE
:101EF000C8000020D9000020D8000020E000002009
:101F0000B2000020002801D001490860704700009D
:101F1000C400002070B506467D2000013418254617
:101F2000E017800F401980108000201A05D164212D
:101F30002046FEF7F3F8002906D1FF219131204613
:101F4000FEF7ECF8002901D1012070BD0020FCE76C
:101F50001021014000290CD0474909780122114382
:101F6000454A11701146497801221143424A517085
:101F70000AE041490978490849003F4A1170114671
:101F8000497849084900517020210140002906D0B4
:101F90003949097908221143374A117105E0364958
:101FA000097908229143344A1171402101400029E6
:101FB00006D031490979042211432F4A117105E0F5
:101FC0002D490979042291432B4A11718021014046
:101FD000002906D02849097902221143264A1171A5
:101FE00005E02549097902229143234A1171C1076D
:101FF000C90F002906D020494979012211431E4A00
:10200000517105E01C494979490849001A4A517142
:1020100002210140002906D01749497902221143C3
:10202000154A517105E01449497902229143124A37
:10203000517104210140002906D00F494979042239
:1020400011430D4A517105E00B494979042291432E
:10205000094A517108210140002906D006494979F1
:1020600008221143044A517105E0034949790822C5
:102070009143014A51717047B2000020024909782A
:102080008143014A11707047B80000200249097865
:102090000143014A11707047B800002010B587480D
:1020A00000781021084000281ED07D21C9008448F6
:1020B0000068FEF791F800281CD0FEF785F88049EB
:1020C00008608048007810210840002805D07D482D
:1020D000007888437B4908700CE07A48007810212A
:1020E00008437849087005E0764800781021884355
:1020F000744908707148007820210840002838D0C1
:102100007148007800281AD07D2109016F480068C5
:10211000FEF762F800282CD000206B490870FEF70B
:1021200053F86A4908606548007820210840002873
:102130001FD06448007888436249087019E07D2107
:10214000C90062480068FEF747F8002811D0012056
:102150005D490870FEF738F85C4908605748007818
:1021600020210840002804D05648007808435549EB
:1021700008705248007820210840002804D15148B6
:10218000007888434F4908704C4800784021084047
:1021900000281BD14E480078002806D04D494E48F3
:1021A0000068FEF719F8002809D000204849087097
:1021B00044480078402188434249087013E0414870
:1021C0000078402108433F4908700CE00120404955
:1021D0000870FDF7F9FF404908603A48007840214F
:1021E00008433849087035480078802108400028A5
:1021F00005D03448007808433249087005E031487A
:102200000078802188432F4908702C480078C00747
:10221000C00F002806D02B48007801210843294927
:10222000087005E0274800784008400025490870FC
:102230002248007802210840002805D02148007873
:1022400008432049087005E01E48007802218843B1
:102250001C4908701948007804210840002805D05E
:102260001848007808431749087005E015480078B9
:102270000421884313490870104800780821084059
:10228000002805D00F48007808430E49087005E083
:102290000C480078082188430A49087009480078EA
:1022A0000E490978884207D0064800780B49087023
:1022B00004480078FFF74CFE10BD0000B800002075
:1022C000BC000020D0000020D2000020C000002070
:1022D000D300002010270000D4000020D1000020EF
:1022E00010B5002819DA1A4A03071B0F083B9B0890
:1022F0009B00D2588307DC0EFF23A3409A438B0731
:102300001B0E8407E40EA3401A43114B0407240F4D
:10231000083CA408A4001A5118E00E4A03231B022B
:10232000D21883089B00D2588307DC0EFF23A340FA
:102330009A438B071B0E8407E40EA3401A43054BF8
:10234000032424021B198408A4001A5110BD0000A4
:102350001CED00E000E100E0002807D00749096813
:10236000FF2201321143054A116006E00349096862
:10237000FF2201329143014A116070470070004012
:10238000002905D0054A52690243044B5A6104E012
:10239000024A52698243014B5A6170470010024061
:1023A000002905D0054AD2690243044BDA6104E0F2
:1023B000024AD2698243014BDA6170470010024041
:1023C000002905D0054A92690243044B9A6104E052
:1023D000024A92698243014B9A61704700100240A1
:1023E00010B502460021002300205111002902D11E
:1023F0000C4C23680BE0012902D10A4C236A06E049
:10240000022902D1074C636A01E0064C636BD106D6
:10241000C90E01248C401C40002C01D0012000E09A
:10242000002010BD001002400849096A490849000F
:10243000064A11621146096A04229143034A116255
:102440001146096A01431162704700000010024002
:10245000002807D00749096A0122D2031143054A1F
:10246000116206E00349096A0122D2039143014A3D
:1024700011627047001002400249096A0143014A93
:102480001162704700100240014600BFF020084072
:1024900000110A23584302460807000F8018C0B2F3
:1024A00070470146002204E0501CC2B208460A38B8
:1024B000C1B20A29F8DA1007000E0843704700007D
:1024C00080210143C903C90BC943044AD268802350
:1024D0001A401143014AD1607047000000280040B3
:1024E00008B50022009200200021124AD268402341
:1024F0001A40002A1BD1421E0E4BDA6000BF0D4A63
:10250000D26840231A401146009A521C00921B02C6
:10251000009A9A4201D00029F1D0064AD26840239D
:102520001A40002A01D0012002E0002000E0012032
:1025300008BD0000002800400348C068802188438F
:102540000149C860704700000028004070B5064689
:102550000C46002513484068134908400546FF20F3
:1025600000042840000CE0701F2000022840000AF0
:102570006070A806800EA070072040032840400B22
:102580002070002E0DD1E078FFF77EFFE0706078BC
:10259000FFF77AFF6070A078FFF776FFA0702078D1
:1025A000207070BD002800403FFFFF0070B5064658
:1025B0000C460025124800681249084005463F2095
:1025C00000042840000C20707F2000022840000AF0
:1025D00060706806400EA070012080052840000C45
:1025E000E070002E0BD12078FFF74EFF207060784E
:1025F000FFF74AFF6070A078FFF746FFA07070BD3C
:10260000002800407F7F7F0030B504460025CA20A7
:102610001249486253204862FFF762FF002800D148
:1026200017E00E488068402188430C4988600846BE
:1026300080682168084309498860A06808610846E5
:102640000069A1880904084304490861FFF774FF81
:102650000125FF2001494862284630BD002800407E
:1026600008B5014600200090044800908800009AB8
:10267000801800900098006808BD000050280040B5
:10268000F8B505460C46002600200090002D08D124
:10269000607810210840102803D1607888430A3000
:1026A0006070002D00D108E06078FFF7EDFE06466F
:1026B000A078FFF7E9FE064600BF002D0BD0E078BA
:1026C0000004617809020843A1780843217849038E
:1026D0000843064610E0E078FFF7E3FE0704607861
:1026E000FFF7DFFE00020743A078FFF7DAFE07439B
:1026F0002078400307433E46CA20134948625320CE
:102700004862FFF7EDFE002801D1009016E00F4867
:1027100030400D494860FFF70FFF0B4880682021CB
:102720000840002808D100F07FF8002801D100906F
:1027300004E00120009001E001200090FF20024908
:1027400048620098F8BD0000002800403FFFFF00ED
:10275000F8B505460C46002600200090002D0AD151
:102760002F48806840210840002800D002E0002067
:10277000E07000BF0EE02A48806840210840002831
:1027800004D02078FFF780FE064602E00020E070CB
:1027900000BF00BF002D0BD0207800046178090233
:1027A0000843A1780843E17809040843064610E08D
:1027B0002078FFF776FE07046078FFF772FE0002CC
:1027C0000743A078FFF76DFE0743E0780004074356
:1027D0003E46CA201249486253204862FFF780FEF5
:1027E000002801D1009016E00E4830400C490860E6
:1027F000FFF7A2FE0A48806820210840002808D17F
:1028000000F012F8002801D1009004E001200090AF
:1028100001E001200090FF20014948620098F8BDC6
:10282000002800407F7F7F0008B500220092002032
:102830000021174A926820231A40002A01D0012063
:1028400025E0CA22124B5A6253225A621A46D268B3
:10285000A0239A430E4BDA6000BF0D4AD2682023B2
:102860001A401146009A521C00929B02009A9A420A
:1028700001D00029F1D0064AD26820231A40002A4C
:1028800001D0012000E00020FF22014B5A6208BD68
:102890000028004008B500220092044A00928200FD
:1028A000009BD2180092009A116008BD5028004089
:1028B00070B504460E461546602000F05BFA00280D
:1028C00007D100211A2000F093FF40213E2000F0A4
:1028D0008FFF0120287000F0B9F900281BD02020BC
:1028E00000F048FA00BF002000F0F6F9002000F0E8
:1028F00019FE2070641C012000F0EEF9701EC0B2B9
:10290000061EF0D11F211C2000F072FF002000F0F5
:1029100031FA0420287070BDF0B5FFB0FFB083B06D
:1029200005460C46164617480088401E214681433E
:102930000F4614480088411E21400091114802882A
:10294000394601A800F069F801AA009950183246EA
:102950002946FDF7F7FB3146384600F03DF80028E0
:102960000ED008480288394601A800F06EF8002809
:1029700004D001207FB07FB003B0F0BD0020F9E7A4
:102980000020F7E79000002010B5030000F050FF92
:10299000061304070A0D10130E4B195C0DE00D4BC6
:1029A000195C0AE00B4B195C07E00A4B195C04E068
:1029B000084B195C01E0052100BF00BF002205E0C3
:1029C000002400E0641C8C42FCD3521C8242F7DBE2
:1029D00010BD0000383A0008FEB504460D46012639
:1029E000601901902746B00200903520FEF798F854
:1029F000FEF720F908E02046FEF798F8042802D1F7
:102A000000983F1800E00026002E02D0019887426F
:102A1000F1D3FEF7CFF83046FEBD30B504460B4685
:102A20001D469007800F002803D19807800F0028CB
:102A300001D0002030BD002103E028886052891CAD
:102A4000AD1C9142F9D30120F4E7F7B582B00546F9
:102A5000164601200190039FB007800F002802D086
:102A6000002005B0F0BD3520FEF75AF8FEF7E2F879
:102A7000002410E029593846FEF7A6F8042806D1AC
:102A800029593868884204D00020019001E00020D4
:102A900001903F1D241D0198012801D1B442E9D3C2
:102AA000FEF788F80198DCE730B5134CA489048060
:102AB0000124A4024480104C403CE16A226B636B09
:102AC00001710C04250E45710C02250E85710D0E49
:102AD000C57102721404250E45721402250E85720A
:102AE000150EC57203731C04250E45731C02250EBA
:102AF00085731D0EC57330BDC0F7FF1F0EB50020D6
:102B0000FFF7AEFD1D49884229D001210807FFF7D4
:102B100047FC0120FFF720FC0120FFF785FC00BFE8
:102B20002120FFF75DFC0028FAD0FF200130FFF7DD
:102B3000A3FC0120FFF78CFCFFF776FE7F200190BD
:102B4000FF200290002000906846FFF75DFD0028FE
:102B500000D10EBD09490020FFF79CFE0CE00121C9
:102B60000807FFF71DFC0120FFF7F6FBFFF75CFEEF
:102B7000FF200130FFF7A4FC0120EAE7F03200005B
:102B800070B50446A0000D490E582021304600F0D3
:102B900020FE012811D1304600F025FEC5B20849BB
:102BA000304600F00DFEA00006490858002804D069
:102BB000A0000A4611582846884770BD78000020BA
:102BC000050105001C01002010B504462046FDF754
:102BD000EFFA10BD10B50446A0B2FFF7D5FE10BD48
:102BE0001CB5012103204004FFF7CAFB0021684601
:102BF00081710121C1710021017103214171002402
:102C00001FE0E0001049401880880090E1000E4A63
:102C100050586946FEF762F8E0000B494018C0883A
:102C200000280CD1E0004018C188601CC000064A92
:102C30008018C088814202D0012069460871601C5A
:102C400084B2072CDDD31CBD6C44000810B50221F2
:102C50000920C006FEF7ACF8002801D0012010BD05
:102C60000020FCE710B501210920C006FEF7A0F8FE
:102C7000002801D0012010BD0020FCE710B5012183
:102C800089020448FEF794F8002801D0012010BD05
:102C90000020FCE70004004810B50446002C04D0D6
:102CA00004210448FEF790F803E004210148FEF7F0
:102CB00089F810BD0004004810B50446002C05D06A
:102CC00080210920C006FEF77FF804E0802109205A
:102CD000C006FEF777F810BD10B50446002C04D0EE
:102CE00001210448FEF770F803E001210148FEF7D6
:102CF00069F810BD0004004810B50446002C04D04B
:102D000002210448FEF760F803E002210148FEF7C3
:102D100059F810BD0004004870B504460D46202047
:102D200000F028F800213E2000F062FD04211A2066
:102D300000F05EFD1F211C2000F05AFD00BF0020A6
:102D4000FFF7CAFF2078641C00F0ECFB0120FFF7BE
:102D5000C3FF681EC0B2051EF1D1802000F00AF842
:102D600000BFFFF77FFF0028FBD0002000F002F833
:102D700070BD000010B504467648007884427DD0CE
:102D8000802C4CD173480078002816D12C2100F0FB
:102D90002FFD0520FFF718FF4C21002000F028FD33
:102DA00019204001FFF716FF8C21002000F020FDC4
:102DB000FF20F530FFF70EFF2DE066480078202851
:102DC00010D14C21002000F013FD19204001FFF725
:102DD00001FF8C21002000F00BFDFF20F530FFF7F4
:102DE000F9FE18E05B480078402808D18C210020CB
:102DF00000F0FEFCFF20F530FFF7ECFE0BE055483D
:102E00000078602807D18C21002000F0F1FCFF2021
:102E1000F530FFF7DFFE80204E49087096E0602C09
:102E20004ED14C480078002816D12C2100F0E0FC4F
:102E30000520FFF7C9FE4C21002000F0D9FC192025
:102E40004001FFF7C7FE6C21002000F0D1FCFF20FD
:102E5000F530FFF7BFFE2FE03E480078202812D162
:102E60004C21002000F0C4FC19204001FFF7B2FE05
:102E70006C21002000F0BCFCFF2000E068E0F53091
:102E8000FFF7A8FE18E033480078402808D16C21ED
:102E9000002000F0ADFCFF20F530FFF79BFE0BE0BB
:102EA0002C480078802807D16C21002000F0A0FC7D
:102EB000FF20F530FFF78EFE60202649087045E0C0
:102EC000402C27D12348007800280ED12C2100F077
:102ED0008FFC0520FFF778FE4C21002000F088FCD5
:102EE00019204001FFF776FE10E01A4800782028EC
:102EF00008D14C21002000F07BFC19204001FFF795
:102F000069FE03E04C21002000F072FC40201149D2
:102F100008701BE0202C12D10E480078002806D142
:102F20002C2100F065FC0520FFF74EFE03E02C216C
:102F3000002000F05DFC20200649087006E00C210E
:102F4000002000F055FC002002490870002010BD50
:102F5000FF20FCE7920000200CB5002001900090BB
:102F6000314800680121090408432F49086000BF67
:102F70002D48006801214904084000900198401C38
:102F800001900098002804D1052109030198884286
:102F9000EED125480068012149040840002802D0EC
:102FA0000120009001E0002000900098012839D114
:102FB00011201E4908601C4840681B4948600846AB
:102FC00040684860084640687F21C9038843164925
:102FD00048600846406811210904084312494860C6
:102FE000084600680121090608430F49086000BF30
:102FF0000D4800680121490608400028F8D00A4819
:1030000040688008800008494860084640680221FE
:1030100008430549486000BF034840680C21084048
:103020000828F9D10CBD0000001002400020024029
:103030001CB51A4840783C21484369464880684698
:103040004188164880780A225043081881B26846A1
:10305000418040881149C978401881B26846418052
:103060000F48418868464088814213D00C48008848
:10307000694608800421684600F018FC0190082287
:1030800008496846FFF748FC002803D06846408896
:1030900003494880FEF71EFA1CBD00001C000020FA
:1030A0003C00002000A0000810B51020FEF786FEAE
:1030B0000D4800780A21484304460B48407804191B
:1030C000601CC0B20446182800DB00240A212046F8
:1030D000FDF724F8044908700A212046FDF71EF880
:1030E000C8B20149487010BD1400002010B510206E
:1030F000FEF764FE0548C078401CC0B20349C870A2
:10310000092801DD0020C87010BD00001400002057
:1031100010B51020FEF752FE05488078401CC0B262
:1031200003498870052801DD0020887010BD00006B
:10313000140000201CB5684600F0F5FB6846FDF75A
:1031400011F9002808D11121684601700A21417047
:103150001621017000214171154800780A21484369
:10316000134949784018C1B26846C1701048807848
:103170000A2148430E49C9784018C1B26846017116
:10318000C078172801DD172001E06846C07869463D
:10319000C87008793B2801DD3B2001E068460079D2
:1031A00069460871684600F033FCFEF793F91CBDD0
:1031B000140000201CB51A4840783C214843694659
:1031C000088068460188164880780A22504308180B
:1031D00081B26846018000881149C978401881B2DF
:1031E000684601800F48018868460088814213D0F4
:1031F0000C484088694648800421684600F056FB28
:103200000190082208496846FFF786FB002803D092
:103210006846008803490880FEF75CF91CBD000081
:103220001C0000203C00002000A0000810B5172062
:10323000FEF7C4FD0648FEF765FE05484078401CD1
:10324000C0B203494870022801DD0020487010BD5B
:103250001C00002010B51720FEF7B0FD0648FEF751
:1032600051FE0548C078401CC0B20349C870092807
:1032700001DD0020C87010BD1C00002010B5172013
:10328000FEF79CFD0648FEF73DFE05488078401C91
:10329000C0B203498870052801DD0020887010BD88
:1032A0001C00002010B500200949086000F05EF9FC
:1032B000002008490870FEF781FD0748FEF722FE4E
:1032C000012006490870FCF77FFF0549086010BD22
:1032D0002C000020340000201800002024000020D2
:1032E0002800002010B51A4840783C21484319496D
:1032F0000860174880780A21484316490968401831
:10330000144908601248C0780968401811490860DB
:1033100008460068002805D00F4800F027F9012072
:103320000E4908700020FEF749FD0948FEF7EAFD46
:1033300001200B490870FCF747FF0A4908600A4959
:103340000320FEF727FC00200849087010BD00008C
:10335000180000202C000020E11700083400002095
:103360002400002028000020A53200085000002082
:1033700010B50A20114908701120FEF71FFD0F48F3
:10338000FEF7C0FD0D484078401CC0B20B494870A4
:10339000022801DD00204870002009490870094911
:1033A0000320FEF7F7FB02200749087001200749B8
:1033B0000870FCF709FF0649086010BD18000020DE
:1033C00034000020E53200082400002050000020D6
:1033D0004C00002010B50A20114908701120FEF79A
:1033E000EDFC0F48FEF78EFD0D48C078401CC0B2C2
:1033F0000B49C870092801DD0020C8700020094968
:10340000087009490320FEF7C5FB02200749087030
:10341000012007490870FCF7D7FE0649086010BD77
:103420001800002034000020E532000824000020AD
:10343000500000204C00002010B50A2011490870EF
:103440001120FEF7BBFC0F48FEF75CFD0D488078AD
:10345000401CC0B20B498870052801DD002088702F
:1034600000200949087009490320FEF793FB022058
:1034700007490870012007490870FCF7A5FE0649B6
:10348000086010BD1800002034000020E53200085C
:1034900024000020500000204C00002010B50A201D
:1034A00007490870487088700020C8700549087086
:1034B0000820FEF783FC0248FEF724FD10BD000043
:1034C000200000204800002010B5034800780028A4
:1034D00001D1FDF7FFFF10BD4800002010B50E48D8
:1034E0000078002816D10D48C078012812D00A2093
:1034F0000A490870487088700020C8700120064989
:103500000870FDF7DFFAFCF75FFE05490860002050
:10351000FEF754FC10BD00004800002020000020F1
:103520004400002070B5044608251AE080202040A1
:10353000002803D00120FFF7AFFB02E00020FFF7D7
:10354000ABFB0120FFF7D8FB6006040EFFF796FBEC
:10355000002801D0601CC4B20020FFF7CDFB681E1C
:10356000C5B2002DE2DC204670BD000001490860B4
:10357000704700008C00002010B57D21C9000C4868
:103580000068FCF7B5FD0446601E0A49884200D970
:103590000CE0601E084948610321081FFEF7A0FEE9
:1035A0000020054988610720086100BF10BD0000A8
:1035B00000000020FFFFFF0000E000E010B506481B
:1035C0000068401C0449086004480068002802D0D4
:1035D00002480068804710BD880000208C00002051
:1035E00010B51B48006801210843194908600846C6
:1035F000406818490840164948600846006816495E
:10360000084013490860084600680121890488437E
:103610000F490860084640683F21090488430C4967
:1036200048600846C06A00090001C8620846006B8D
:10363000FF2154318843064908630846406B40081F
:103640004000486300208860FFF786FC10BD000042
:10365000001002400CB8FF08FFFFF6FE002904D05E
:10366000028801231A43028003E00288014B1A40BA
:1036700002807047FEFF0000002907D04422125A42
:103680000123DB031A4344231A5205E04422125A51
:1036900053045B0C442213527047000070B50024A1
:1036A00000220023058C1C4E35400584028C838843
:1036B000048B194D6F3D2C40B51E2C400D882C43BA
:1036C000751E2A408D892A434D882A43134DA842EE
:1036D00008D0134DA84205D0124DA84202D0124D79
:1036E000A84212D10C4DED1F2A40CD892A430A4D24
:1036F000ED1E2A408D882A43074DFF3D2B400B4D80
:103700002B400D8A2B434D8A2B43838004838D6885
:103710004563028470BD0000FEFF0000002C0140E4
:10372000004001400044014000480140FFFD00000E
:1037300000220288154B984206D001239B0798422D
:1037400002D0134B984203D1124B1A404B881A43B4
:10375000114B984203D0114B1A400B891A43028037
:103760004B68C3620B880385084B984208D00C4B0A
:10377000984205D00B4B984202D00B4B984201D196
:103780008B7A03860123838270470000002C01405E
:10379000000400408FFF000000100040FFFC00000C
:1037A00000400140004401400048014010B50020A5
:1037B000FFF7E6F910BD10B50120FFF7E1F910BDE4
:1037C00010B5002300220B0C01249C40224602620B
:1037D00010BD02460020D3690B40002B01D0012010
:1037E00000E0002070470146888CC005C00D70477E
:1037F00070B505460C4600BF0120FFF75DFA0120B9
:10380000FFF76AFA0120FFF747FA0020FFF774FA82
:1038100000BF0020FFF750FA2846FFF783FE20463E
:10382000FFF780FE06460120FFF746FA304670BDDE
:1038300030B47446641E2578641CAB4204D3635DC7
:103840005B00E31830BC18471D46F8E702E008C8E3
:10385000121F08C1002AFAD170477047002001E00A
:1038600001C1121F002AFBD1704730B503460C4638
:10387000002100E0491C914203D2585C655CA842DB
:10388000F8D0914201D1012030BD0020FCE70000BA
:1038900010B5021203464B401B06DB0D024CE35AE7
:1038A0005A40104610BD0000B4440008F0B585B081
:1038B00006460C4600200390A007800F002801D088
:1038C000012000E0002002900298002812D000257C
:1038D000A007800F0190A0088000009007E00098EA
:1038E000411C0091325C28466D1C03A90A540198C2
:1038F0008542F4D301214020FEF742FDFCF728FD6C
:10390000A1083046FCF70AFD07460298002803D0BC
:103910000398FCF715FD074600214020FEF730FD17
:10392000384605B0F0BD70B504462046FCF762FC91
:103930000546284670BD000008B5FFF71DFEFDF7DF
:10394000A7FF00F061F8FCF7D9FDFEF769F9FCF775
:10395000E7FFFDF7F5FEFFF743F9FEF7F5F8552110
:103960003220FFF745FF00217220FFF741FF552865
:1039700000D000BFAA213220FFF73AFF00217220B9
:10398000FFF736FFAA2800D000BF66213220FFF7DC
:103990002FFF00217220FFF72BFF662800D000BF09
:1039A0002EE0FDF779F9FDF79BFF022100916A46B1
:1039B0002B211448FEF77CFF68460078042817D1B5
:1039C000002401E0601C84B20E482030807AA042BE
:1039D000F8DC002406E02146621C94B2094A505CDF
:1039E000FDF724F807482030807AA042F3DC00BFBE
:1039F000FCF70EFDFEF750F9FDF718FDFDF714FE7C
:103A0000CFE700002C01002010B5FFF777F810BDBC
:103A100070B5044600252046FCF7A4FC002803D01E
:103A20002046FCF705FC0546284670BD890F0008B6
:103A300051130008791000080001020304045B5CC4
:103A40005D5E5F0001020304000C01A00207030297
:103A5000046E068F073808370CC510A311381238CA
:103A600016631764186519661A721B001C2B1E60FA
:103A70008C0A00003C0000003C0000000000000038
:103A800000000000000000008C0A00003C00000064
:103A90003C0000000A000000640000006400000018
:103AA0008C0A00003C0000003C0000000000000008
:103AB00000000000000000008C0A00003C00000034
:103AC0003C0000000A0000006400000064000000E8
:103AD0008C0A00003C0000003C0000000A000000CE
:103AE00064000000640000008C0A00003C0000003C
:103AF0003C0000000000000000000000000000008A
:103B00008C0A00003C0000003C0000000A0000009D
:103B100064000000640000008C0A00003C0000000B
:103B20003C0000000A000000640000006400000087
:103B30008C0A00003C0000003C0000000A0000006D
:103B400064000000640000008C0A00003C000000DB
:103B50003C00000000000000000000000000000029
:103B60008C0A00003C0000003C0000000A0000003D
:103B700064000000640000008C0A00003C000000AB
:103B80003C0000000A000000640000006400000027
:103B90008C0A00003C0000003C0000000A0000000D
:103BA00064000000640000008C0A00003C0000007B
:103BB0003C0000000A0000006400000064000000F7
:103BC0008C0A00003C0000003C00000000000000E7
:103BD00000000000000000008C0A00003C00000013
:103BE0003C0000000A0000006400000064000000C7
:103BF0008C0A00003C0000003C0000000A000000AD
:103C000064000000640000008C0A00003C0000001A
:103C10003C0000000A000000640000006400000096
:103C20008C0A00003C0000003C0000000A0000007C
:103C300064000000640000008C0A00003C000000EA
:103C40003C0000000A000000640000006400000066
:103C50008C0A00003C0000003C0000000000000056
:103C600000000000000000008C0A00003C00000082
:103C70003C0000000A000000640000006400000036
:103C80008C0A00003C0000003C0000000A0000001C
:103C900064000000640000008C0A00003C0000008A
:103CA0003C0000000A000000640000006400000006
:103CB0008C0A00003C0000003C0000000A000000EC
:103CC00064000000640000008C0A00003C0000005A
:103CD0003C0000000A0000006400000064000000D6
:103CE0008C0A00003C0000003C0000000A000000BC
:103CF00064000000640000008C0A00003C0000002A
:103D00003C00000000000000000000000000000077
:103D10008C0A00003C0000003C0000000A0000008B
:103D200064000000640000008C0A00003C000000F9
:103D30003C0000000A000000640000006400000075
:103D40008C0A00003C0000003C0000000A0000005B
:103D500064000000640000008C0A00003C000000C9
:103D60003C0000000A000000640000006400000045
:103D70008C0A00003C0000003C0000000A0000002B
:103D800064000000640000008C0A00003C00000099
:103D90003C0000000A000000640000006400000015
:103DA0008C0A00003C0000003C0000000A000000FB
:103DB00064000000640000008C0A00003C00000069
:103DC0003C000000000000000000000000000000B7
:103DD0008C0A00003C0000003C0000000A000000CB
:103DE00064000000640000008C0A00003C00000039
:103DF0003C0000000A0000006400000064000000B5
:103E00008C0A00003C0000003C0000000A0000009A
:103E100064000000640000008C0A00003C00000008
:103E20003C0000000A000000640000006400000084
:103E30008C0A00003C0000003C0000000A0000006A
:103E400064000000640000008C0A00003C000000D8
:103E50003C0000000A000000640000006400000054
:103E60008C0A00003C0000003C0000000A0000003A
:103E700064000000640000008C0A00003C000000A8
:103E80003C0000000A000000640000006400000024
:103E90008C0A00003C0000003C0000000000000014
:103EA00000000000000000008C0A00003C00000040
:103EB0003C0000000A0000006400000064000000F4
:103EC0008C0A00003C0000003C0000000A000000DA
:103ED00064000000640000008C0A00003C00000048
:103EE0003C0000000A0000006400000064000000C4
:103EF0008C0A00003C0000003C0000000A000000AA
:103F000064000000640000008C0A00003C00000017
:103F10003C0000000A000000640000006400000093
:103F20008C0A00003C0000003C0000000A00000079
:103F300064000000640000008C0A00003C000000E7
:103F40003C0000000A000000640000006400000063
:103F50008C0A00003C0000003C0000000A00000049
:103F600064000000640000008C0A00003C000000B7
:103F70003C0000000A000000640000006400000033
:103F80008C0A00003C0000003C0000000000000023
:103F900000000000000000008C0A00003C0000004F
:103FA0003C0000000A000000640000006400000003
:103FB0008C0A00003C0000003C0000000A000000E9
:103FC00064000000640000008C0A00003C00000057
:103FD0003C0000000A0000006400000064000000D3
:103FE0008C0A00003C0000003C0000000A000000B9
:103FF00064000000640000008C0A00003C00000027
:104000003C0000000A0000006400000064000000A2
:104010008C0A00003C0000003C0000000A00000088
:1040200064000000640000008C0A00003C000000F6
:104030003C0000000A000000640000006400000072
:104040008C0A00003C0000003C0000000A00000058
:1040500064000000640000008C0A00003C000000C6
:104060003C0000000A000000640000006400000042
:104070008C0A00003C0000003C0000000A00000028
:1040800064000000640000008C0A00003C00000096
:104090003C000000000000000000000000000000E4
:1040A0008C0A000014000000140000000A00000048
:1040B00014000000140000008C0A0000140000002E
:1040C000140000000A0000001400000014000000AA
:1040D0008C0A000014000000140000000A00000018
:1040E00014000000140000008C0A000014000000FE
:1040F000140000000A00000014000000140000007A
:104100008C0A000014000000140000000A000000E7
:1041100014000000140000008C0A000014000000CD
:10412000140000000A000000140000001400000049
:104130008C0A000014000000140000000A000000B7
:1041400014000000140000008C0A0000140000009D
:10415000140000000A000000140000001400000019
:104160008C0A000014000000140000000A00000087
:1041700014000000140000008C0A0000140000006D
:10418000140000000A0000001400000014000000E9
:104190008C0A000014000000140000000A00000057
:1041A00014000000140000008C0A0000140000003D
:1041B000140000000A0000001400000014000000B9
:1041C0008C0A000014000000140000000A00000027
:1041D00014000000140000008C0A0000140000000D
:1041E000140000000A000000140000001400000089
:1041F0008C0A000014000000140000000A000000F7
:1042000014000000140000008C0A000014000000DC
:10421000140000000A000000140000001400000058
:104220008C0A000014000000140000000A000000C6
:1042300014000000140000008C0A000014000000AC
:10424000140000000A000000140000001400000028
:10425000480D0000320000003200000000000000A5
:104260000000000000000000200300001400000017
:1042700014000000900100001E0000001E0000005D
:104280005802000028000000280000000000000084
:104290000000000000000000840300001400000083
:1042A00014000000F40100001E0000001E000000C9
:1042B000BC020000280000002800000000000000F0
:1042C0000000000000000000E803000014000000EF
:1042D00014000000580200001E0000001E00000034
:1042E000200300002800000028000000000000005B
:1042F0000000000000000000B004000014000000F6
:1043000014000000200300001E0000001E0000003A
:10431000E803000028000000280000000000000062
:104320000000000000000000B00400000A000000CF
:104330000A000000B00400000A0000000A000000AB
:10434000B00400000A0000000A000000B0040000F1
:104350000A0000000A000000000000000000000049
:1043600000000000D0070000190000001900000044
:10437000FC0800001900000019000000280A0000D5
:104380001900000019000000D0070000190000000B
:1043900019000000D00700001900000019000000FB
:1043A000FC0800001900000019000000280A0000A5
:1043B0001900000019000000D007000019000000DB
:1043C00019000000FC08000019000000190000009E
:1043D000280A00001900000019000000540B00001A
:1043E0003200000019000000FC0800001900000065
:1043F00019000000280A0000190000001900000040
:10440000540B00004B0000001900000000000000E9
:1044100000000000000000000102040805FA60D658
:10442000F46CBCBEE0FEFC0400FA60D6F46CBCBECA
:10443000E0FEFC0400FA60D6F46CBCBEE0FEFC04B6
:1044400000AF066D4FC6CBEB0EEFCF400000000073
:104450006D0800083D080008950700085908000885
:104460001908000871080008C9070008000400487E
:1044700000040000000000480100000000000048A7
:104480000200000000040048010001000000004894
:104490008000010000040048020001000004004800
:1044A0000400010030313233343536373839414277
:1044B000434445460000891112239B322446AD57E0
:1044C0003665BF74488CC19D5AAFD3BE6CCAE5DB5C
:1044D0007EE9F7F88110080193331A22A5562C477C
:1044E000B7753E64C99C408DDBBF52AEEDDA64CB3C
:1044F000FFF976E802218B30100299132667AF7618
:104500003444BD554AADC3BC588ED19F6EEBE7FA1B
:104510007CC8F5D983310A2091121803A7772E663B
:10452000B5543C45CBBD42ACD99E508FEFFB66EAFB
:10453000FDD874C904428D5316619F702004A915DB
:104540003227BB364CCEC5DF5EEDD7FC6888E199DB
:104550007AABF3BA85520C4397711E60A1142805FB
:10456000B3373A26CDDE44CFDFFD56ECE9986089BB
:10457000FBBB72AA06638F7214409D512225AB3497
:104580003006B9174EEFC7FE5CCCD5DD6AA9E3B89B
:10459000788AF19B87730E6295501C41A3352A24BB
:1045A000B1163807CFFF46EEDDDC54CDEBB962A87B
:1045B000F99A708B088481951AA793B62CC2A5D35B
:1045C0003EE1B7F04008C919522BDB3A644EED5F6B
:1045D000766DFF7C899400859BB712A6ADD224C36B
:1045E000BFF136E0C1184809D33B5A2AE55E6C4F4B
:1045F000F77D7E6C0AA583B4188691972EE3A7F207
:104600003CC0B5D14229CB38500AD91B666FEF7E2A
:10461000744CFD5D8BB502A499961087AFF326E22A
:10462000BDD034C1C3394A28D11A580BE77F6E6E0A
:10463000F55C7C4D0CC685D71EE597F42880A191CA
:104640003AA3B3B2444ACD5B5669DF78600CE91DEA
:10465000722FFB3E8DD604C79FF516E4A9902081EA
:10466000BBB332A2C55A4C4BD7795E68E11C680DCA
:10467000F33F7A2E0EE787F61CC495D52AA1A3B086
:104680003882B193466BCF7A5448DD59622DEB3CAA
:10469000700EF91F8FF706E69DD414C5ABB122A0AA
:1046A000B9923083C77B4E6AD5585C49E33D6A2C8A
:1046B000F11E780FD4460008000000201C01000005
:1046C0004C380008F04700081C0100208C04000052
:1046D0005C380008006CDC020000000000000000F4
:1046E00001020304060708090000000000000000A2
:1046F0000A0A00000A0A0A00000000000000000088
:1047000000000000000000000000000000000000A9
:104710000000000000000000000000000000000099
:104720000000000000000000FF000000000000008A
:1047300000000000000000000000FFFF000000007B
:1047400000000000000000000000000000380140F0
:104750000044004000480040004C004000000000C1
:104760000000000000042000020000000000000023
:104770000000000000000000000000000000000039
:10478000FFFFFFFFFFFF000000000000000000002F
:104790000000000000000000000000000000000019
:1047A0000000000000FF00000000000000FFFFFF0D
:1047B000FF0000001D44000829440008354400089B
:1047C000414400080000000000000000000000005C
:1047D00000000000FFFF00000000000000000000DB
:1047E00001000000000000000000000000000000C8
:04000005080000C12E
:00000001FF
