:020000040800F2
:10000000D8050020D5000008DD000008DF0000084A
:1000100000000000000000000000000000000000E0
:10002000000000000000000000000000E1000008E7
:100030000000000000000000E3000008A9370008ED
:10004000E7000008E7000008E7000008E7000008F4
:10005000E7000008E7000008E7000008E7000008E4
:10006000E7000008E7000008E7000008E7000008D4
:10007000E7000008E7000008E7000008E7000008C4
:10008000E7000008E700000800000000E7000008A3
:10009000E7000008E7000008E7000008E7000008A4
:1000A000E7000008E7000008E700000899390008A9
:1000B000A339000800000000E7000008000000006D
:1000C0000348854600F062F8004800476D3B000891
:1000D000D80500200448804704480047FEE7FEE7B3
:1000E000FEE7FEE7FEE7FEE7CD370008C1000008A7
:1000F00030B50B46014600202022012409E00D46C0
:10010000D5409D4205D31D469540491B2546954047
:1001100040191546521E002DF1DC30BD70B500248B
:100120002546002801DA01244042002901DA012590
:100130004942FFF7DDFFAC4200D04042002C00D026
:10014000494270BD03460B439B0703D009E008C931
:10015000121F08C0042AFAD203E00B780370401C77
:10016000491C521EF9D27047D2B201E00270401C05
:10017000491EFBD270470022F6E710B513460A4627
:1001800004461946FFF7F0FF204610BD064C012536
:10019000064E05E0E36807CC2B430C3C984710342F
:1001A000B442F7D3FFF790FF2C4900084C490008F0
:1001B00070B58C180578401C6B075B0F01D1037874
:1001C000401C2A1106D10278401C03E006780E700C
:1001D000401C491C5B1EF9D12B0705D40023521E7D
:1001E0000DD40B70491CFAE70378401CCB1A921C03
:1001F00003E01D780D70491C5B1C521EF9D5A1420D
:10020000D8D3002070BD0000044A116800BF034A23
:100210001268521A8242FAD3704700008C00002004
:1002200072B60249086862B6704700008C00002070
:10023000024672B60448036862B6981A884201D32F
:10024000012070470020FCE78C0000201CB504460C
:1002500001A9002002F0A0FA6946002002F06CFA21
:100260006846C0782070684640786070684680783C
:10027000A07068460079E070684640792071684651
:100280008079607101201CBD1CB5044601A90020C5
:1002900002F082FA6946002002F04EFA21786846A0
:1002A000C17061784170A1788170E1780171217924
:1002B0004171617981710021C17101A9002002F0B1
:1002C0003DFB6946002002F0D1FA01201CBD000070
:1002D00070B505461E2901D9002070BD0D4B2C4676
:1002E000CAB205E020781870641C5B1C501EC2B2B4
:1002F000002AF7DCBB20074EB07707480078401C87
:10030000C0B2054E3070034EF07730462030017099
:100310000120E2E760010020970000201CB50121C8
:10032000880402F023F90120400200900121684670
:10033000017103214171002181710121C17169465F
:10034000014800F025FD1CBD0004004810B5012146
:100350004902024800F092FD10BD00000004004870
:1003600010B501214902024800F086FD10BD0000D1
:100370000004004810B502460B46002100BF04E00F
:1003800088001058034C2060491C9942F8D301485A
:10039000006810BD0030024001460248016000685C
:1003A0007047000000300240034880680121084384
:1003B00001498860704700000030024070B5044673
:1003C00001252078632805DC60780C2802DC607841
:1003D000002800D100256078030003F043FB0D36B0
:1003E0000816092B0A2C0B0C2D0D2E0E360000BF03
:1003F00000BF00BF00BF00BF00BFA0781F2802DC05
:10040000A078002800D1002520E0207801F02AFE05
:10041000002807D0A0781D2802DCA078002808D189
:10042000002506E0A0781C2802DCA078002800D176
:1004300000250BE000BF00BF00BFA0781E2802DC33
:10044000A078002800D1002500E000BF00BFE078C0
:10045000172805DC20793B2802DC60793B2800DD89
:100460000025284670BD000010B50A2136480068F6
:10047000FFF7DEFE002804D0FFF7D2FE3249086005
:1004800000E010BD31480078002804D001282ED0AB
:10049000022855D14CE02E482E490B680ECB0EC0D9
:1004A0000C388068002807D029488068401E2849F9
:1004B0008860FFF755FF03E00220244908703FE001
:1004C00023484068002808D021484068401E204941
:1004D0004860086800F08EF805E0FFF737FF02205B
:1004E0001A4908702CE001201849087028E01848C3
:1004F0008068002805D016488068401E144988602E
:1005000001E0FFF723FF12484068002805D010489B
:100510004068401E0E49486009E000F045F80D486B
:1005200000680C300B49086000200849087007E09B
:10053000FFF70CFF00F038F800200749087000BFF3
:1005400000BF00BF9DE70000A4000020980000202D
:10055000840100209C000020A000002010B5FFF7BF
:10056000DDFE00F003F8FFF7F1FE10BD1CB5012120
:10057000880401F0FBFFFF20013000900221684653
:10058000017103214171002181710121C17169460D
:10059000044800F0FDFB02220821024800F040FC64
:1005A0001CBD00000004004800B585B0602168460D
:1005B000018000214180042181800221818100216C
:1005C000C181FF210131018200214182002002907E
:1005D0006946064803F058F90121044803F042F93E
:1005E00001200349087005B000BD0000004401402F
:1005F0004001002030B589B004460121480401F0D3
:10060000D5FFE10022480068FFF772FD401E214936
:1006100008600846006807900721684601830021AA
:100620000184418308A8817006A91B4803F076F96C
:100630000121194803F008F918480078002825D04E
:1006400014490968491E3222514308466421FFF7C4
:100650004FFD85B26021684681800121C18004215F
:10066000018100210182082141824901818200210A
:10067000C182039501A9084803F006F90121064843
:1006800003F0F0F800200549087000BF09B030BD44
:10069000000000203C0100200044014040010020F7
:1006A00070B50446012534480078002806D00C2C8B
:1006B00003D100203049087003E070BD01202E49AD
:1006C0000870230003F0CEF9140B0F13171B1F2320
:1006D000272B2F33373B4B4B4B4B4B4B474B274831
:1006E000274908603FE02748254908603BE0264845
:1006F0002349086037E025482149086033E0244851
:100700001F4908602FE023481D4908602BE022485C
:100710001B49086027E021481949086023E0204868
:10072000174908601FE01F48154908601BE01E4874
:100730001349086017E01D481149086013E00025BF
:1007400000200F490860FFF701FEFFF72DFF022090
:100750001749087007E017480949086003E007488F
:100760000749086000BF00BF002D02D000201049DB
:10077000087000BFA1E70000A0000020C43C0008F2
:100780009C000020DC3C00080C3D0008543D0008A3
:10079000B43D00082C3E0008BC3E0008643F000841
:1007A00024400008FC400008EC410008F442000826
:1007B00098000020B845000810B509490B68096881
:1007C000491C074C21600749C854214609680C2977
:1007D00005D30021224611600321034A117010BD88
:1007E00030010020A80100202C0100203EB5044665
:1007F0000E480068401C0D490860022814D30020F0
:1008000008600B4800680B4988420DD1684600F02B
:1008100006F90C220849684603F041F9002802D085
:10082000054800F057F800BF3EBD00003001002031
:1008300034010020B8F00000A8010020064A5073DF
:100840001146097B002903D00521044A117002E0FA
:100850000621024A11707047A80100202C010020D7
:10086000C1B2432903D10221034A117002E00021E1
:10087000014A1170704700002C010020024A1073D9
:100880000421024A11707047A80100202C010020A9
:100890007047000010B50C490B680968491C0A4CE8
:1008A00021600A49C8540E39097B224612689142D8
:1008B00003D9214609681E2905D30021024A116087
:1008C0000621034A117010BD30010020B60100203E
:1008D0002C01002010B50446607B030003F0C2F831
:1008E000050408274159710001203749087069E063
:1008F000207B01281AD1A07BAA2806D1202001F054
:100900007FFC01203149087005E0202001F070FCD7
:1009100000202E490870FFF783FC2D490860AA20AB
:10092000A07301202073204600F084F84AE0207B69
:10093000012815D1A07B552807D1FF20013001F0F7
:100940005FFC01202349087006E0FF20013001F020
:100950004FFC00201F490870FFF762FC1E49086029
:1009600030E0207B012813D1A07BAA2806D12020CB
:1009700001F046FC01201549087005E0202001F037
:1009800037FC002011490870FFF74AFC1049086045
:1009900018E0207B012813D1A07B552806D18020A8
:1009A00001F02EFC01200D49087005E0802001F0C7
:1009B0001FFC002009490870FFF732FC0849086055
:1009C00000E000BF00BF10BDFD000020FC000020C3
:1009D00000010020FF00002008010020FE00002090
:1009E000040100201CB50121480401F0BFFD0420D2
:1009F000009000216846017103214171002181713D
:100A00000121C17169460920C00600F0C1F9082022
:100A1000009069460920C00600F0BAF91CBD1FB558
:100A20000446684602F036F90C2201A92046FFF779
:100A300089FB1FBDF0B593B006462C4C0025432220
:100A400028466D1C01A90A542046432103F03AF8B8
:100A5000044610A8FFF7E3FF00270CE010A8C25DD2
:100A600028466D1C01A90A5410AAD15DA0B203F05A
:100A700029F804467F1C0C2FF0D3327B28466D1CCE
:100A800001A90A54317BA0B203F01CF80446727B22
:100A900028466D1C01A90A54717B204603F012F808
:100AA000044600270EE030460E30C25D28466D1C1D
:100AB00001A90A5432460E32D15DA0B203F002F809
:100AC00004467F1C307BB842EDD8E44328466D1CB9
:100AD00001A90C542004020E28466D1C0A54294614
:100AE00001A800F067F8284613B0F0BDFFFF000032
:100AF00010B504461D480078062802DD00201B4979
:100B000008701A48007800280BD0FFF789FB1849B5
:100B10000968401AFF21F531884202D900201349A3
:100B200008701248007800280CD12C211148FFF7DA
:100B300022FB11481149086000201149086001207A
:100B40000A490870FFF76CFB09490860E1B20B4ADB
:100B5000128890B202F0B6FF084908600348007896
:100B60008000084A11582046884710BD2C010020FB
:100B700038010020A8010020FFFF00003401002000
:100B800030010020C846000800B58BB0002168463F
:100B9000417301730020034908706846FFF74AFF5C
:100BA0000BB000BDFD000020014800787047000038
:100BB000FD00002070B504460D4629462046FFF78B
:100BC00087FB002803D02121014802F09BF970BD6A
:100BD000600100200149C860704700000020024009
:100BE00030B5044604250B20000400F08FF80546BC
:100BF000042D17D10C480069022108430A490861F5
:100C000008464461006940210843074908610B20F8
:100C1000000400F07BF80546034800690221884380
:100C200001490861284630BD0020024004200D49DA
:100C3000C968C907C90F002901D0012010E009497E
:100C4000C96810221140002901D0022008E005499E
:100C5000C96804221140002901D0032000E00420CB
:100C600070470000002002400348006980210843CB
:100C700001490861704700000020024078B506462F
:100C80000C460425002000900B20000400F03EF8E4
:100C90000546042D24D11348006901210843114958
:100CA000086134800B20000400F030F80546042D64
:100CB00010D1B01C0090200C009908800B2000047B
:100CC00000F024F80546074800694008400005493F
:100CD000086105E0034800694008400001490861D7
:100CE000284678BD00200240054800698021084060
:100CF000002804D003480249486003484860704710
:100D00000020024023016745AB89EFCD10B50346B3
:100D10000424FFF78BFF044603E0FFF787FF044638
:100D20005B1E012C01D1002BF7D1002B00D1052433
:100D3000204610BD10B504210920C00600F092F82D
:100D4000002801D1012010BD0020FCE710B5FFF7FD
:100D5000F1FF04460B480078A04205D00948047012
:100D6000FFF75EFA08490860FF212D310648006848
:100D7000FFF75EFA002803D00248007803490870A4
:100D800010BD00004C01002048010020440100205B
:100D9000F0B50A4600210023002400BF3DE00125F4
:100DA0008D402B4615681D402C469C4234D1157948
:100DB000012D02D01579022D16D185684F0003262A
:100DC000BE40B543856055794E00B54086683543D1
:100DD0008560858801268E40B54385808588967913
:100DE0008E40B6B23543858005684F000326BE406D
:100DF000B543056015794E00B5400668354305607A
:100E0000C5684F000326BE40B543C560D5794E0086
:100E1000B540C6683543C560491C1029BFD3F0BD35
:100E2000F0B5002300244D07EE0E1546B5402B46C5
:100E3000CD10AE0005462035AD594E07F70E0F26F2
:100E4000BE40B543CE10B60007462037BD51CD1089
:100E5000AE003D46AD591D432C46CD10AD003E467B
:100E60007451F0BD02460020138A0B40002B01D0C4
:100E7000012000E0002070470185704781617047C4
:100E80003EB55FA207CA6B4607C30C2500F01AFCEB
:100E9000002803D0402001F0B3F902E0402001F027
:100EA000A7F95A480068002800D03EBD584800788D
:100EB000002832D100F006FC002826D155480078E1
:100EC000002814D000F004FC00280CD052495348EC
:100ED0000068FFF7ADF9002804D000204D490870E4
:100EE00000F016FC89E000204A49087085E00120E6
:100EF00047490870FFF794F94949086000204949BB
:100F00000880401E4849088077E042480078002861
:100F100073D000203F4908706FE000F0D9FB002833
:100F200003D000F0CFFB002803D000203849087020
:100F3000BBE73E4800883E4A5043014638480068B7
:100F4000FFF776F9002858D03748008835490988D6
:100F500088421DD0344800883649884214D133482D
:100F600000880C2801DB0C2001E030480088044692
:100F70006946085DFFF794FB2C48008829490880E2
:100F8000FFF74EF92C49086026480088264908805A
:100F9000274929480068FFF74BF900281AD0214853
:100FA0000088401C1F4908802048408809888842E2
:100FB0000CDD1C4800880C2801DB0C2001E01948DE
:100FC000008804466946085DFFF76AFBFFF728F9C9
:100FD00019490860154840881249098888420CDC84
:100FE0000B20FFF75DFB002009490870012009492B
:100FF0000870FFF715F90949086000BF55E70000C0
:1010000000000102030405060708090A3000002059
:101010005C0000206C000020102700007000002001
:1010200060000020680000206A00002040000020CE
:1010300060EA0000FFFF0000640000201CB5334997
:1010400033480068FFF7F4F8002811D0FFF7E8F8FC
:101050002F4908602F480068002856D001202E49EB
:1010600008702E4800F0F6FF112000F04FFF4CE012
:10107000684602F072FD6846C078294909788842BE
:1010800005D1684600792749097888423CD06946ED
:10109000C8780A21FFF742F8C4B2092C01DD092003
:1010A00000E02046204908706946C8780A21FFF709
:1010B00035F8CCB2092C01DD092000E020461A49A0
:1010C0004870694608790A21FFF728F8C4B2092C4C
:1010D00001DD092000E0204613498870694608793F
:1010E0000A21FFF71BF8CCB2092C01DD092000E032
:1010F00020460D49C8706846C0780949087068469E
:1011000000790849087000BF00BF1CBD88130000AB
:101110002C00002030000020280000201C000020AF
:1011200055000020560000201800002010B5194876
:101130000078002809D07D21490117480068FFF791
:1011400077F8002801D002F0C3F91448007800288D
:101150001ED0FFF729FD00280AD00A201049087088
:10116000487088700120C87000200C4908700FE09A
:101170000C490D480068FFF75BF8002808D00A20EA
:101180000749087048708870C870002003490870CB
:1011900010BD000054000020500000204C00002032
:1011A00024000020881300004800002010B5544897
:1011B0000078042802DD002051490870504800786A
:1011C00000281BD100F0EAF84E49002000F08AFD0B
:1011D0004D49012000F086FD4C49022000F082FDBF
:1011E0004B49032000F07EFD02204A4908700E2082
:1011F00000F0FEFF012001F003F87AE0404800789B
:1012000001281BD100F0D4F84349002000F06AFD0A
:101210004249012000F066FD4149022000F062FDD4
:101220004049032000F05EFD02203A4908700D207D
:1012300000F0DEFF022000F0E3FF5AE030480078C3
:1012400002281BD100F080F83349002000F04AFD4D
:101250003249012000F046FD3149022000F042FDF4
:101260003149032000F03EFD02202A4908700B207E
:1012700000F0BEFF042000F0C3FF3AE020480078F1
:1012800003281BD102F000FA0021084600F02AFDD5
:101290000021012000F026FD2449022000F022FD5B
:1012A0002349032000F01EFD02201A490870072080
:1012B00000F09EFF082000F0A3FF1AE0102000F0CD
:1012C00025FE1C4800F0C6FE0020124908701A498D
:1012D00000F008FD1949012000F004FD1849022022
:1012E00000F000FD1749032000F0FCFC0F2000F087
:1012F0007FFF03480078401C0149087010BD0000C2
:101300004D00002095320008FD320008D932000857
:10131000213300082800002019340008693400082F
:1013200041340008A13300081D320008C936000806
:10133000B5360008180000205D3500082536000885
:10134000C135000891340008F8B5124948883C219D
:10135000FEF7E4FEC4B20F4948883C21FEF7DEFEEA
:101360000F460A213846FEF7D9FEC5B2094948881A
:101370000A21FEF7D3FECEB20A20074908700846BC
:1013800044708570C670172000F0C0FD024800F060
:1013900061FEF8BD400000202000002010B51020A4
:1013A00000F0B4FD014800F055FE10BD180000200B
:1013B000F8B5124908883C21FEF7B0FEC4B20F49C7
:1013C00008883C21FEF7AAFE0F460A213846FEF7A0
:1013D000A5FEC5B2094908880A21FEF79FFECEB2D4
:1013E0000A2007490870084644708570C6701720A7
:1013F00000F08CFD024800F02DFEF8BD40000020FA
:101400002000002070B501242E4D2F4800680028D0
:101410000CD17D252D010A202C4908700020487030
:101420008870C870284800682949086029462948FA
:101430000068FEF7FDFE002833D100242248006832
:10144000B42802D3B320204908601F48006820490F
:101450000968884225D00A201C4908703C211A4896
:101460000068FEF745FE194948703C21164800689F
:10147000FEF73EFE0E460A213046FEF739FE1349BE
:1014800088703C2110480068FEF732FE0E460A21A3
:101490003046FEF72DFE0D48C1700B4800680C4920
:1014A0000860002C0CD0FEF7BBFE0A490860002043
:1014B00009490870094800F0CDFD102000F026FD14
:1014C00070BD000088130000300000201C000020C8
:1014D000580000202C0000202800002018000020C8
:1014E00010B522480078022802DD00201F4908704C
:1014F0001E49097889001E4A505880471D480078C7
:10150000002813D01C480068002812D10B20FFF7D8
:10151000C7F800201749087002F01EF9012017498A
:101520000870FEF77DFE1649086002E0002002F018
:1015300013F912480078002813D0124910480068A7
:10154000FEF776FE002805D000200C49087000F058
:10155000DFF806E000F0B6F8002802D000200749C6
:101560000870FFF78DFC00F041F910BD2800002045
:10157000803C00083800002030000020740000206B
:10158000780000201027000010B54048007801289E
:101590001BD1FFF70DFF3E49002000F0A3FB3D49A2
:1015A000012000F09FFB3C49022000F09BFB3B49DF
:1015B000032000F097FB0220394908700D2000F04D
:1015C00017FE022000F01CFE5AE030480078022886
:1015D0001BD1FFF7B9FE2E49002000F083FB2D49F7
:1015E000012000F07FFB2C49022000F07BFB2D49FD
:1015F000032000F077FB0220294908700B2000F03F
:10160000F7FD042000F0FCFD3AE0204800780328B4
:101610001BD102F039F80021084600F063FB0021DD
:10162000012000F05FFB2049022000F05BFB1F4916
:10163000032000F057FB022019490870072000F032
:10164000D7FD082000F0DCFD1AE0102000F05EFC61
:10165000174800F0FFFC002011490870154900F000
:1016600041FB1549012000F03DFB1449022000F028
:1016700039FB1349032000F035FB0F2000F0B8FDC3
:1016800002480078401C0149087010BD4D00002040
:10169000193400086934000841340008A1330008F7
:1016A000280000201D320008C9360008B5360008A1
:1016B000180000205D35000825360008C1350008F7
:1016C0009134000801480078704700004401002070
:1016D0000148007870470000FC00002010B5094860
:1016E000007800280CD0084908480068FEF7A0FDE3
:1016F000002805D0002003490870202000F078FD64
:1017000010BD0000FC00002018790000000100203E
:1017100010B58CB0002402F061F9AA221E210E48F7
:10172000FEF722FD00BF04E01E210B48FFF742FA3E
:10173000641CFF20A1308442F6D302F061F902213B
:1017400068464174552181740121017401A8FFF795
:1017500071F90CB010BD00000C01002010B512484A
:10176000007800280CD0114911480068FEF760FD90
:10177000002805D0802000F03BFD00200A490870B9
:101780000C48007800280DD008490B480068FEF787
:101790004FFD002806D0FF20013000F029FD002079
:1017A0000449087010BD0000FE00002018790000F8
:1017B00004010020FF0000200801002010B50821CE
:1017C0000920C006FFF74EFB002801D0012010BD04
:1017D0000020FCE710B50C20FEF762FF0249032051
:1017E00000F080FA10BD0000D134000810B5214887
:1017F0000078002822D0FFF7E1FF002817D01E490B
:101800001E480068FEF714FD002832D0FFF780FF65
:101810000B20FEF745FF102000F0F2FCFEF700FD64
:10182000164908601649032000F05CFA21E01020F8
:1018300000F0DEFC00200F4908701AE0FFF7BEFF41
:10184000002813D0FFF764FF0B20FEF729FF1020BC
:1018500000F0D6FCFEF7E4FC0849086001200549C9
:1018600008700749032000F03DFA02E0102000F064
:10187000BFFC10BD3900002020BF02003C0000204A
:10188000D517000810B500241E49002000F02AFAE0
:101890001D49012000F026FA1C49022000F022FA1E
:1018A0001B49032000F01EFA1A49042000F01AFA1E
:1018B0001949052000F016FA08221849184801F0C5
:1018C000A2F9002808D00421154802F009F91449AA
:1018D0004968884200D10124002C04D1012010491C
:1018E000088005204880FEF79BFC0E490860002018
:1018F0000D490870102000F009FB0C4800F0AAFB0D
:1019000010BD00005D35000825360008C13500080F
:1019100091340008AD1100081117000800A000085C
:10192000400000202C00002028000020180000208B
:1019300010B50B480068401C0949086009498842F5
:101940000DD300200649086007480068401E06497C
:10195000086008460068002801D101F0FDFE10BDB6
:101960003400002060EA000030000020FF20F53045
:1019700000BF0146421E90B20029FAD17047000014
:101980001CB501212120400400F0F0FD1020009042
:101990000021684681710121C171017103214171EA
:1019A00069460920C006FFF7F3F940200090694618
:1019B0000920C006FFF7ECF92020009069460920B5
:1019C000C006FFF7E5F98020009069460348FFF75D
:1019D000DFF980210148FFF751FA1CBD00140048CF
:1019E0001FB5FFF7CDFF522000F060F8022000F095
:1019F0005DF8062000F05AF8002000900190029057
:101A000003902022694600F0AEF8FF2210216846BC
:101A1000FEF7AAFB002408E060106A468118022243
:101A2000204600F0A0F8A01CC4B2202CF4DB1FBD9F
:101A30001CB500F07DFA00F0EBFB062219491A48AC
:101A400002F02DF800282CD1062217491548FEF780
:101A500079FB15480178684601701348417868465B
:101A6000417011488178684681700F48C07800073E
:101A7000010E0D4800790007000F01436846C17050
:101A80000948C078F0210840001107494979090741
:101A9000090E0843694608710A22162000F063F80F
:101AA00000BF1CBDB0000020B600002070B5064687
:101AB00010210920C006FFF7DFF9002404251FE0EC
:101AC00004202840002805D020210920C006FFF767
:101AD000D5F904E020210920C006FFF7CDF9402107
:101AE0000920C006FFF7C8F9FFF740FF4021092091
:101AF000C006FFF7C3F9FFF739FF601C84B26D1011
:101B0000032CDDDB0024FF2501351FE03046284093
:101B1000002805D020210920C006FFF7AFF904E016
:101B200020210920C006FFF7A7F940210920C0069F
:101B3000FFF7A2F9FFF71AFF40210920C006FFF7BF
:101B40009DF9FFF713FF601C84B26D10092CDDDBDB
:101B500010210920C006FFF791F920210920C006B5
:101B6000FFF78CF970BDF7B582B00F461021092040
:101B7000C006FFF781F9002404251FE00520284056
:101B8000002805D020210920C006FFF777F904E0DE
:101B900020210920C006FFF76FF940210920C00667
:101BA000FFF76AF9FFF7E2FE40210920C006FFF7C0
:101BB00065F9FFF7DBFE601CC4B26D10032CDDDBA2
:101BC000002420251FE002982840002805D020216D
:101BD0000920C006FFF752F904E020210920C006C1
:101BE000FFF74AF940210920C006FFF745F9FFF742
:101BF000BDFE40210920C006FFF740F9FFF7B6FE01
:101C0000601CC4B26D10062CDDDB002635E0F00749
:101C1000C00F002804D07010385C0011019004E05F
:101C20007010385C0007000F01900024012520E0AF
:101C300001982840002805D020210920C006FFF780
:101C40001DF904E020210920C006FFF715F9402105
:101C50000920C006FFF710F9FFF788FE4021092090
:101C6000C006FFF70BF9FFF781FE601CC4B26806DF
:101C7000050E042CDCDB701C86B204988642C6DBA1
:101C800010210920C006FFF7F9F820210920C0061D
:101C9000FFF7F4F805B0F0BD70B500BF012001F00A
:101CA00001F9012001F00EF9012001F0EBF800200C
:101CB00001F018F900BF002001F052F9084C14257A
:101CC0000AE06178227852003E231A40104601F063
:101CD000A9FEA41C681EC5B2002DF2DC70BD000078
:101CE0009C3C00080CB507A30CCB0193009206287E
:101CF00000D30CBD6A46125C9200044B995000BFA1
:101D0000F7E7000000010302040500009001002035
:101D100010B500240121C9030920C006FFF7A2F86D
:101D2000002801D10120044308211048FFF79AF848
:101D3000002801D102200443FF2101310920C006FF
:101D4000FFF790F8002801D1042004430121C903C2
:101D50000648FFF787F8002801D108200443002C2B
:101D600001D1FF2010BD2046FCE700000004004820
:101D70001CB501210320400400F0F8FB0021684657
:101D800081710121C1710021017103214171012083
:101D9000C003009069460920C006FEF7F9FF08203D
:101DA000009069460E48FEF7F3FFFF2001300090D7
:101DB00069460920C006FEF7EBFF0120C003009032
:101DC00069460748FEF7E4FF002405E00020A10073
:101DD000044A5050601CC4B2062CF7D31CBD00004E
:101DE00000040048900100207CB54148007800289C
:101DF0000FD1FFF78DFF3F49087008460078FF2894
:101E000074D0FEF70DFA3C4908600120384908708B
:101E10006CE037480078012827D1FFF779FF0446A6
:101E2000C82135480068FEF703FA002812D031486F
:101E30000078844207D1FEF7F3F92F4908600220A9
:101E40002B49087010E0002029490870FF2029491B
:101E5000087009E027480078844205D00020244912
:101E60000870FF202349087040E0214800780228CC
:101E70003CD10025FFF74CFF06461E480078B042D3
:101E800001D0012508E0FF21F5311B480068FEF76D
:101E9000CFF9002800D00125002D26D000241BE01A
:101EA0001648005D13490978884213D1A0001449EF
:101EB0000858002803D0A100114A5058804711A1AA
:101EC00003C901910090062C03D26946085DFEF714
:101ED000E7FB00BF601CC4B2062CE1D3002004491C
:101EE0000870FF200349087000BF00BF7CBD0000E0
:101EF000A8000020A9000020AC00002090460008A7
:101F0000900100200D0E10111213000010B50446B0
:101F100004480470FEF784F903490860002003496F
:101F2000087010BDD1000020D4000020D000002097
:101F300038B501253F480068002800D138BD3E482B
:101F40000078002814D07D21C9003C480068FEF7C5
:101F50006FF900280CD0FEF763F93849086038485B
:101F60000078002801D1012000E0002034490870E9
:101F70000422304801686846FEF7E4F82E480078ED
:101F800000281AD02E480078002816D100240BE033
:101F90000120A040284909780840002802D00B20E1
:101FA00069460855601CC4B2042CF1DB2248007855
:101FB00010210840002800D00025002435E02148E9
:101FC000005D6946095D884205D1022C2BD11E486F
:101FD0000078A84227D06846005D1A490855022CAF
:101FE00019D119480570002D0AD0A00017490858CA
:101FF0006946095D405C012108431549085512E016
:10200000A000124908586946095D405C400840003C
:102010000F49085507E0A0000C4908586946095DBA
:10202000405C0B490855601CC4B2042CC7DB00BFE0
:1020300084E70000CC000020D1000020D400002064
:10204000D0000020E5000020E4000020EC0000208B
:10205000B6000020002801D0014908607047000048
:10206000CC00002070B506467D20000134182546BE
:10207000E017800F401980108000201A05D16421DC
:102080002046FEF74BF8002906D1FF21913120466A
:10209000FEF744F8002901D1012070BD0020FCE7C3
:1020A0001021014000290CD0504909780122114328
:1020B0004E4A117011464978012211434B4A517022
:1020C0000AE04A49097849084900484A117011460E
:1020D0004978490849005170FF2101310140002928
:1020E00006D04249C97810221143404AD17005E018
:1020F0003E49C978102291433C4AD17020210140C9
:10210000002906D03949097908221143374A11714B
:1021100005E03649097908229143344A117140217A
:102120000140002906D031490979042211432F4A80
:10213000117105E02D490979042291432B4A11714F
:1021400080210140002906D0284909790222114343
:10215000264A117105E02549097902229143234A53
:102160001171C107C90F002906D020494979012200
:1021700011431E4A517105E01C494979490849003B
:102180001A4A517102210140002906D017494979A4
:1021900002221143154A517105E01449497902227E
:1021A0009143124A517104210140002906D00F4980
:1021B0004979042211430D4A517105E00B494979CF
:1021C00004229143094A517108210140002906D097
:1021D0000649497908221143044A517105E003492F
:1021E000497908229143014A51717047B600002095
:1021F000024909788143014A11707047BC000020F0
:10220000024909780143014A11707047BC0000205F
:1022100010B5A34800781021084000281ED07D2169
:10222000C900A0480068FEF703F800281CD0FDF79D
:10223000F7FF9C4908609C4800781021084000285E
:1022400005D0994800788843974908700CE0964873
:102250000078102108439449087005E092480078FE
:1022600010218843904908708D480078202108404B
:10227000002838D08D48007800281AD07D21090127
:102280008B480068FDF7D4FF00282CD00020874938
:102290000870FDF7C5FF8649086081480078202155
:1022A000084000281FD08048007888437E49087085
:1022B00019E07D21C9007E480068FDF7B9FF0028BC
:1022C00011D0012079490870FDF7AAFF784908600C
:1022D0007348007820210840002804D07248007814
:1022E0000843714908706E48007820210840002892
:1022F00004D16D48007888436B49087068480078BD
:102300004021084000281BD16A480078002806D0E8
:1023100069496A480068FDF78BFF002809D0002052
:102320006449087060480078402188435E4908701D
:1023300013E05D480078402108435B4908700CE0D9
:1023400001205C490870FDF76BFF5C490860564846
:102350000078402108435449087051480078802192
:102360000840002838D05648007800281AD07D212F
:10237000090154480068FDF75BFF00282CD00020BD
:102380004F490870FDF74CFF4E49086044480078FB
:102390008021084000281FD04348007888434249E4
:1023A000087019E07D21C90046480068FDF740FF2C
:1023B000002811D0012042490870FDF731FF414942
:1023C00008603748007880210840002804D036484B
:1023D000007808433449087031480078802108406B
:1023E000002804D13048007888432F4908702C48D1
:1023F0000078C007C00F002806D02B4800780121C4
:1024000008432949087005E0274800784008400043
:10241000254908702248007802210840002805D08C
:102420002148007808432049087005E01E480078DC
:10243000022188431C49087019480078042108408B
:10244000002805D01848007808431749087005E0AF
:102450001548007804218843134908701048007813
:1024600008210840002805D00F48007808430E498D
:10247000087005E00C480078082188430A49087074
:102480000948007810490978884207D00648007842
:102490000D49087004480078FFF702FE10BD0000E7
:1024A000BC000020C0000020D8000020DA0000207E
:1024B000C4000020DC00002010270000E000002005
:1024C000DB000020C8000020D900002010B5002843
:1024D00019DA1A4A03071B0F083B9B089B00D258C6
:1024E0008307DC0EFF23A3409A438B071B0E840750
:1024F000E40EA3401A43114B0407240F083CA40820
:10250000A4001A5118E00E4A03231B02D2188308B4
:102510009B00D2588307DC0EFF23A3409A438B070E
:102520001B0E8407E40EA3401A43054B0324240228
:102530001B198408A4001A5110BD00001CED00E016
:1025400000E100E0002807D007490968FF220132B6
:102550001143054A116006E003490968FF22013270
:102560009143014A1160704700700040002905D076
:10257000054A52690243044B5A6104E0024A526917
:102580008243014B5A61704700100240002905D078
:10259000054AD2690243044BDA6104E0024AD26977
:1025A0008243014BDA61704700100240002905D0D8
:1025B000054A92690243044B9A6104E0024A926917
:1025C0008243014B9A6170470010024010B50246E9
:1025D0000021002300205111002902D10C4C236856
:1025E0000BE0012902D10A4C236A06E0022902D13C
:1025F000074C636A01E0064C636BD106C90E0124E7
:102600008C401C40002C01D0012000E0002010BDB7
:10261000001002400849096A49084900064A116247
:102620001146096A04229143034A11621146096A5C
:10263000014311627047000000100240002807D0DB
:102640000749096A0122D2031143054A116206E0D3
:102650000349096A0122D2039143014A116270477A
:10266000001002400249096A0143014A11627047A1
:1026700000100240014600BFF020084000110A236C
:10268000584302460807000F8018C0B27047014641
:10269000002204E0501CC2B208460A38C1B20A291E
:1026A000F8DA1007000E084370470000802101434C
:1026B000C903C90BC943044AD26880231A40114395
:1026C000014AD160704700000028004008B5002290
:1026D000009200200021124AD26840231A40002AAA
:1026E0001BD1421E0E4BDA6000BF0D4AD268402358
:1026F0001A401146009A521C00921B02009A9A42FC
:1027000001D00029F1D0064AD26840231A40002A9D
:1027100001D0012002E0002000E0012008BD0000FF
:10272000002800400348C068802188430149C860F0
:10273000704700000028004070B506460C46002592
:1027400013484068134908400546FF20000428400C
:10275000000CE0701F2000022840000A6070A806EC
:10276000800EA070072040032840400B2070002EF0
:102770000DD1E078FFF77EFFE0706078FFF77AFF19
:102780006070A078FFF776FFA0702078207070BD91
:10279000002800403FFFFF0070B506460C460025AC
:1027A000124800681249084005463F2000042840AE
:1027B000000C20707F2000022840000A607068062C
:1027C000400EA070012080052840000CE070002E13
:1027D0000BD12078FFF74EFF20706078FFF74AFF9B
:1027E0006070A078FFF746FFA07070BD0028004021
:1027F0007F7F7F0030B504460025CA201249486219
:1028000053204862FFF762FF002800D117E00E480E
:102810008068402188430C498860084680682168A8
:10282000084309498860A068086108460069A188D2
:102830000904084304490861FFF774FF0125FF20DC
:1028400001494862284630BD0028004008B50146CD
:1028500000200090044800908800009A80180090A2
:102860000098006808BD000050280040F8B50546F3
:102870000C46002600200090002D08D16078102121
:102880000840102803D1607888430A306070002D1A
:1028900000D108E06078FFF7EDFE0646A078FFF76C
:1028A000E9FE064600BF002D0BD0E07800046178F9
:1028B00009020843A17808432178490308430646E2
:1028C00010E0E078FFF7E3FE07046078FFF7DFFE33
:1028D00000020743A078FFF7DAFE074320784003A1
:1028E00007433E46CA201349486253204862FFF717
:1028F000EDFE002801D1009016E00F4830400D4950
:102900004860FFF70FFF0B4880682021084000282F
:1029100008D100F07FF8002801D1009004E00120E8
:10292000009001E001200090FF20024948620098D9
:10293000F8BD0000002800403FFFFF00F8B5054645
:102940000C46002600200090002D0AD12F488068F8
:1029500040210840002800D002E00020E07000BFC5
:102960000EE02A48806840210840002804D02078E2
:10297000FFF780FE064602E00020E07000BF00BFC7
:10298000002D0BD020780004617809020843A1785B
:102990000843E17809040843064610E02078FFF771
:1029A00076FE07046078FFF772FE00020743A07806
:1029B000FFF76DFE0743E078000407433E46CA2058
:1029C0001249486253204862FFF780FE002801D177
:1029D000009016E00E4830400C490860FFF7A2FE58
:1029E0000A48806820210840002808D100F012F829
:1029F000002801D1009004E00120009001E00120B6
:102A00000090FF20014948620098F8BD002800406E
:102A10007F7F7F0008B50022009200200021174A26
:102A2000926820231A40002A01D0012025E0CA2202
:102A3000124B5A6253225A621A46D268A0239A4312
:102A40000E4BDA6000BF0D4AD26820231A401146AF
:102A5000009A521C00929B02009A9A4201D00029CF
:102A6000F1D0064AD26820231A40002A01D0012062
:102A700000E00020FF22014B5A6208BD0028004000
:102A800008B500220092044A00928200009BD218EE
:102A90000092009A116008BD5028004070B50446AD
:102AA0000E461546602000F05BFA002807D1002191
:102AB0001A2000F0B7FF40213E2000F0B3FF0120B4
:102AC000287000F0B9F900281BD0202000F048FA47
:102AD00000BF002000F0F6F9002000F019FE207081
:102AE000641C012000F0EEF9701EC0B2061EF0D189
:102AF0001F211C2000F096FF002000F031FA042076
:102B0000287070BDF0B5FFB0FFB083B005460C462D
:102B1000164617480088401E214681430F46144838
:102B20000088411E2140009111480288394601A8C1
:102B300000F069F801AA0099501832462946FDF7BD
:102B400001FB3146384600F03DF800280ED0084819
:102B50000288394601A800F06EF8002804D0012050
:102B60007FB07FB003B0F0BD0020F9E70020F7E7A9
:102B70009400002010B5030000F074FF0613040752
:102B80000A0D10130E4B195C0DE00D4B195C0AE099
:102B90000B4B195C07E00A4B195C04E0084B195C0D
:102BA00001E0052100BF00BF002205E0002400E095
:102BB000641C8C42FCD3521C8242F7DB10BD000027
:102BC0008C3C0008FEB504460D46012660190190B4
:102BD0002746B00200903520FDF7FCFFFEF784F891
:102BE00008E02046FDF7FCFF042802D100983F18BA
:102BF00000E00026002E02D001988742F1D3FEF7B4
:102C000033F83046FEBD30B504460B461D469007EE
:102C1000800F002803D19807800F002801D00020E2
:102C200030BD002103E028886052891CAD1C914210
:102C3000F9D30120F4E7F7B582B005461646012026
:102C40000190039FB007800F002802D0002005B03C
:102C5000F0BD3520FDF7BEFFFEF746F8002410E07A
:102C600029593846FEF70AF8042806D12959386848
:102C7000884204D00020019001E0002001903F1D17
:102C8000241D0198012801D1B442E9D3FDF7ECFFDE
:102C90000198DCE730B5134CA48904800124A40218
:102CA0004480104C403CE16A226B636B01710C0460
:102CB000250E45710C02250E85710D0EC57102722F
:102CC0001404250E45721402250E8572150EC57268
:102CD00003731C04250E45731C02250E85731D0EFF
:102CE000C57330BDC0F7FF1F0EB50020FFF7AEFD66
:102CF0001D49884229D001210807FFF747FC012020
:102D0000FFF720FC0120FFF785FC00BF2120FFF723
:102D10005DFC0028FAD0FF200130FFF7A3FC012062
:102D2000FFF78CFCFFF776FE7F200190FF200290DA
:102D3000002000906846FFF75DFD002800D10EBD21
:102D400009490020FFF79CFE0CE001210807FFF76E
:102D50001DFC0120FFF7F6FBFFF75CFEFF200130B2
:102D6000FFF7A4FC0120EAE7F032000070B504464A
:102D7000A0000D490E582021304600F020FE012809
:102D800011D1304600F025FEC5B20849304600F0AA
:102D90000DFEA00006490858002804D0A0000A46ED
:102DA00011582846884770BD7C00002005010500A9
:102DB0005001002010B504462046FDF725FA10BD4D
:102DC00010B50446A0B2FFF7D5FE10BD1CB5012119
:102DD00003204004FFF7CAFB0021684681710121EE
:102DE000C171002101710321417100241FE0E00045
:102DF0001049401880880090E1000E4A50586946FA
:102E0000FDF7C6FFE0000B494018C08800280CD130
:102E1000E0004018C188601CC000064A8018C088C5
:102E2000814202D0012069460871601C84B2072CDF
:102E3000DDD31CBDE446000810B502210920C00600
:102E4000FEF710F8002801D0012010BD0020FCE79B
:102E500010B501210920C006FEF704F8002801D0B2
:102E6000012010BD0020FCE710B5012189020448B3
:102E7000FDF7F8FF002801D0012010BD0020FCE77D
:102E80000004004810B50446002C04D00421044876
:102E9000FDF7F4FF03E004210148FDF7EDFF10BD4D
:102EA0000004004810B50446002C05D080210920FC
:102EB000C006FDF7E3FF04E080210920C006FDF70E
:102EC000DBFF10BD10B50446002C04D001210448DE
:102ED000FDF7D4FF03E001210148FDF7CDFF10BD50
:102EE0000004004810B50446002C04D00221044818
:102EF000FDF7C4FF03E002210148FDF7BDFF10BD4F
:102F00000004004870B504460D46202000F028F863
:102F100000213E2000F086FD04211A2000F082FDF1
:102F20001F211C2000F07EFD00BF0020FFF7CAFF1C
:102F30002078641C00F0ECFB0120FFF7C3FF681E43
:102F4000C0B2051EF1D1802000F00AF800BFFFF7E3
:102F50007FFF0028FBD0002000F002F870BD0000C9
:102F600010B504467648007884427DD0802C4CD140
:102F700073480078002816D12C2100F053FD05205D
:102F8000FFF718FF4C21002000F04CFD19204001F4
:102F9000FFF716FF8C21002000F044FDFF20F530E4
:102FA000FFF70EFF2DE066480078202810D14C2155
:102FB000002000F037FD19204001FFF701FF8C21B0
:102FC000002000F02FFDFF20F530FFF7F9FE18E09C
:102FD0005B480078402808D18C21002000F022FDB9
:102FE000FF20F530FFF7ECFE0BE055480078602835
:102FF00007D18C21002000F015FDFF20F530FFF7F0
:10300000DFFE80204E49087096E0602C4ED14C487F
:103010000078002816D12C2100F004FD0520FFF7D0
:10302000C9FE4C21002000F0FDFC19204001FFF7F3
:10303000C7FE6C21002000F0F5FCFF20F530FFF703
:10304000BFFE2FE03E480078202812D14C210020FE
:1030500000F0E8FC19204001FFF7B2FE6C210020CF
:1030600000F0E0FCFF2000E068E0F530FFF7A8FE8C
:1030700018E033480078402808D16C21002000F087
:10308000D1FCFF20F530FFF79BFE0BE02C480078C9
:10309000802807D16C21002000F0C4FCFF20F5300F
:1030A000FFF78EFE60202649087045E0402C27D1AE
:1030B0002348007800280ED12C2100F0B3FC052015
:1030C000FFF778FE4C21002000F0ACFC19204001F5
:1030D000FFF776FE10E01A480078202808D14C212E
:1030E000002000F09FFC19204001FFF769FE03E07B
:1030F0004C21002000F096FC4020114908701BE094
:10310000202C12D10E480078002806D12C2100F086
:1031100089FC0520FFF74EFE03E02C21002000F083
:1031200081FC20200649087006E00C21002000F0F8
:1031300079FC002002490870002010BDFF20FCE748
:10314000960000200CB500200190009031480068E6
:103150000121090408432F49086000BF2D48006879
:1031600001214904084000900198401C01900098FA
:10317000002804D10521090301988842EED1254891
:103180000068012149040840002802D00120009075
:1031900001E0002000900098012839D111201E493B
:1031A00008601C4840681B49486008464068486001
:1031B000084640687F21C90388431649486008468D
:1031C0004068112109040843124948600846006814
:1031D0000121090608430F49086000BF0D48006837
:1031E0000121490608400028F8D00A4840688008B4
:1031F00080000849486008464068022108430549A4
:10320000486000BF034840680C2108400828F9D1F5
:103210000CBD000000100240002002401CB51A48FE
:1032200040783C21484369464880684641881648B2
:1032300080780A225043081881B26846418040884D
:103240001149C978401881B2684641800F484188C9
:1032500068464088814213D00C480088694608803F
:103260000421684600F03CFC0190082208496846A9
:10327000FFF748FC002803D068464088034948808F
:10328000FEF782F91CBD0000200000204000002055
:1032900000A0000810B51020FEF738FE0D48007899
:1032A0000A21484304460B4840780419601CC0B208
:1032B0000446182800DB00240A212046FCF72EFFD4
:1032C000044908700A212046FCF728FFC8B20149CA
:1032D000487010BD1800002010B51020FEF716FE33
:1032E0000548C078401CC0B20349C870092801DDF8
:1032F0000020C87010BD00001800002010B510207C
:10330000FEF704FE05488078401CC0B2034988706F
:10331000052801DD0020887010BD00001800002085
:103320001CB5684600F019FC6846FDF747F8002810
:1033300008D11121684601700A21417016210170DF
:1033400000214171154800780A2148431349497802
:103350004018C1B26846C170104880780A214843BD
:103360000E49C9784018C1B268460171C078172863
:1033700001DD172001E06846C0786946C870087909
:103380003B2801DD3B2001E0684600796946087171
:10339000684600F067FCFEF7F7F81CBD1800002037
:1033A0001CB51A4840783C21484369460880684665
:1033B0000188164880780A225043081881B268466E
:1033C000018000881149C978401881B2684601809F
:1033D0000F48018868460088814213D00C48408815
:1033E000694648800421684600F07AFB0190082273
:1033F00008496846FFF786FB002803D06846008826
:1034000003490880FEF7C0F81CBD00002000002022
:103410004000002000A0000810B51720FEF776FD40
:103420000648FEF717FE05484078401CC0B2034925
:103430004870022801DD0020487010BD20000020E7
:1034400010B51720FEF762FD0648FEF703FE05489B
:10345000C078401CC0B20349C870092801DD0020B3
:10346000C87010BD2000002010B51720FEF74EFDDB
:103470000648FEF7EFFD05488078401CC0B20349BE
:103480008870052801DD0020887010BD2000002014
:1034900010B500200949086000F05EF900200849D5
:1034A0000870FEF733FD0748FEF7D4FD01200649FA
:1034B0000870FCF7B5FE0549086010BD300000201B
:1034C000380000201C000020280000202C000020D4
:1034D00010B51A4840783C214843194908601748FC
:1034E00080780A2148431649096840181449086041
:1034F0001248C078096840181149086008460068F9
:10350000002805D00F4800F027F901200E49087067
:103510000020FEF7FBFC0948FEF79CFD01200B494B
:103520000870FCF77DFE0A4908600A490320FEF78F
:10353000D9FB00200849087010BD00001C000020C5
:103540003000002031190008380000202800002039
:103550002C000020913400085400002010B50A20EF
:10356000114908701120FEF7D1FC0F48FEF772FDDB
:103570000D484078401CC0B20B494870022801DD5C
:103580000020487000200949087009490320FEF70F
:10359000A9FB022007490870012007490870FCF7C1
:1035A0003FFE0649086010BD1C00002038000020C6
:1035B000D1340008280000205400002050000020D2
:1035C00010B50A20114908701120FEF79FFC0F4822
:1035D000FEF740FD0D48C078401CC0B20B49C870D2
:1035E000092801DD0020C870002009490870094938
:1035F0000320FEF777FB02200749087001200749E6
:103600000870FCF70DFE0649086010BD1C00002084
:1036100038000020D1340008280000205400002089
:103620005000002010B50A20114908701120FEF743
:103630006DFC0F48FEF70EFD0D488078401CC0B2AF
:103640000B498870052801DD002088700020094999
:10365000087009490320FEF745FB0220074908705E
:10366000012007490870FCF7DBFD0649086010BD22
:103670001C00002038000020D13400082800002061
:10368000540000205000002010B50A20074908709F
:10369000487088700020C870054908700820FEF73F
:1036A00035FC0248FEF7D6FC10BD000024000020C7
:1036B0004C00002010B503480078002801D1FDF728
:1036C00063FF10BD4C00002010B50E4800780028A4
:1036D00016D10D48C078012812D00A200A49087076
:1036E000487088700020C870012006490870FDF7F6
:1036F0004BFAFCF795FD054908600020FEF706FC33
:1037000010BD00004C0000202400002048000020D4
:1037100070B5044608251AE080202040002803D018
:103720000120FFF7AFFB02E00020FFF7ABFB012019
:10373000FFF7D8FB6006040EFFF796FB002801D0C8
:10374000601CC4B20020FFF7CDFB681EC5B2002D7F
:10375000E2DC204670BD00000149086070470000AF
:103760009000002010B57D21C9000C480068FCF7CE
:10377000BFFC0446601E0A49884200D90CE0601E66
:10378000084948610321081FFEF7A0FE00200549F3
:1037900088610720086100BF10BD00000000002004
:1037A000FFFFFF0000E000E010B506480068401C85
:1037B0000449086004480068002802D002480068F4
:1037C000804710BD8C0000209000002010B51B48E1
:1037D00000680121084319490860084640681849F3
:1037E00008401649486008460068164908401349D1
:1037F0000860084600680121890488430F49086071
:10380000084640683F21090488430C49486008463F
:10381000C06A00090001C8620846006BFF215431EC
:103820008843064908630846406B400840004863E7
:1038300000208860FFF786FC10BD000000100240E9
:103840000CB8FF08FFFFF6FE002904D00288012310
:103850001A43028003E00288014B1A40028070473D
:10386000FEFF0000002907D04422125A0123DB0387
:103870001A4344231A5205E04422125A53045B0CA3
:10388000442213527047000070B500240022002328
:10389000058C1C4E35400584028C8388048B194DA1
:1038A0006F3D2C40B51E2C400D882C43751E2A40C0
:1038B0008D892A434D882A43134DA84208D0134DC1
:1038C000A84205D0124DA84202D0124DA84212D1F2
:1038D0000C4DED1F2A40CD892A430A4DED1E2A408A
:1038E0008D882A43074DFF3D2B400B4D2B400D8A01
:1038F0002B434D8A2B43838004838D684563028468
:1039000070BD0000FEFF0000002C0140004001409F
:103910000044014000480140FFFD000000220288F1
:10392000154B984206D001239B07984202D0134BB7
:10393000984203D1124B1A404B881A43114B9842BC
:1039400003D0114B1A400B891A4302804B68C362A3
:103950000B880385084B984208D00C4B984205D041
:103960000B4B984202D00B4B984201D18B7A0386C5
:103970000123838270470000002C014000040040B6
:103980008FFF000000100040FFFC000000400140DD
:10399000004401400048014010B50020FFF7E6F95F
:1039A00010BD10B50120FFF7E1F910BD10B50023DF
:1039B00000220B0C01249C402246026210BD0246EC
:1039C0000020D3690B40002B01D0012000E0002033
:1039D00070470146888CC005C00D704710B5AA21FC
:1039E0002C2000F01FF8AA212E2000F01BF8AA219D
:1039F000302000F017F8AA21322000F013F810BD93
:103A000010B563212C2000F00DF864212E2000F069
:103A100009F86521302000F005F86621322000F019
:103A200001F810BD70B505460C4600BF0120FFF738
:103A300039FA0120FFF746FA0120FFF723FA0020A8
:103A4000FFF750FA00BF0020FFF72CFA2846FFF7D7
:103A50005FFE2046FFF75CFE06460120FFF722FAD4
:103A6000304670BD30B47446641E2578641CAB4289
:103A700004D3635D5B00E31830BC18471D46F8E7CC
:103A800002E008C8121F08C1002AFAD17047704727
:103A9000002001E001C1121F002AFBD1704730B5A0
:103AA00003460C46002100E0491C914203D2585CB9
:103AB000655CA842F8D0914201D1012030BD0020C0
:103AC000FCE7000010B5021203464B401B06DB0D5D
:103AD000024CE35A5A40104610BD00002C47000823
:103AE000F0B585B006460C4600200390A007800F75
:103AF000002801D0012000E0002002900298002858
:103B000012D00025A007800F0190A008800000902F
:103B100007E00098411C0091325C28466D1C03A907
:103B20000A5401988542F4D301214020FEF71EFD7E
:103B3000FCF73AFCA1083046FCF71CFC074602984B
:103B4000002803D00398FCF727FC074600214020FB
:103B5000FEF70CFD384605B0F0BD70B504462046B2
:103B6000FCF774FB0546284670BD000008B5FFF75A
:103B7000F9FDFDF735FF00F071F8FCF7EFFCFEF7FB
:103B8000F7F8FCF72FFFFDF77DFEFFF71FF9FEF7B3
:103B900083F855213220FFF745FF00217220FFF7FF
:103BA00041FF552800D000BFAA213220FFF73AFF7D
:103BB00000217220FFF736FFAA2800D000BF66213F
:103BC0003220FFF72FFF00217220FFF72BFF66281E
:103BD00000D000BF3DE0FDF7B9F8FDF729FF002058
:103BE0001C49087027E0022100916A4621211A48E9
:103BF000FEF754FF68460078042817D1002401E03E
:103C0000601C84B2144820300078A042F8DC002404
:103C100006E02146621C94B20F4A505CFCF768FF34
:103C20000D4820300078A042F3DC00BF094800783E
:103C3000401C08490870074800783228D3DBFCF79D
:103C400013FCFEF7D1F8FDF74BFCFDF747FDFDF740
:103C500085FDC0E7140000206001002010B5FFF7CB
:103C600043F810BD70B5044600252046FCF7A6FBBE
:103C7000002803D02046FCF707FB0546284670BD08
:103C80003D100008051400082D1100080001020372
:103C900004045B5C5D5E5F0001020304000C01A094
:103CA00002070302046E068F073808370CC510A3FD
:103CB0001138123816631764186519661A721B00DA
:103CC0001C211E608C0A000032000000460000002B
:103CD0000000000000000000000000008C0A00004E
:103CE00032000000460000000A00000064000000EE
:103CF000640000008C0A0000320000004600000052
:103D00000000000000000000000000008C0A00001D
:103D100032000000460000000A00000064000000BD
:103D2000640000008C0A0000320000004600000021
:103D30000A00000064000000640000008C0A00001B
:103D400032000000460000000000000000000000FB
:103D5000000000008C0A0000320000004600000055
:103D60000A00000064000000640000008C0A0000EB
:103D700032000000460000000A000000640000005D
:103D8000640000008C0A00003200000046000000C1
:103D90000A00000064000000640000008C0A0000BB
:103DA000320000004600000000000000000000009B
:103DB000000000008C0A00003200000046000000F5
:103DC0000A00000064000000640000008C0A00008B
:103DD00032000000460000000A00000064000000FD
:103DE000640000008C0A0000320000004600000061
:103DF0000A00000064000000640000008C0A00005B
:103E000032000000460000000A00000064000000CC
:103E1000640000008C0A0000320000004600000030
:103E20000000000000000000000000008C0A0000FC
:103E300032000000460000000A000000640000009C
:103E4000640000008C0A0000320000004600000000
:103E50000A00000064000000640000008C0A0000FA
:103E600032000000460000000A000000640000006C
:103E7000640000008C0A00003200000046000000D0
:103E80000A00000064000000640000008C0A0000CA
:103E900032000000460000000A000000640000003C
:103EA000640000008C0A00003200000046000000A0
:103EB0000000000000000000000000008C0A00006C
:103EC00032000000460000000A000000640000000C
:103ED000640000008C0A0000320000004600000070
:103EE0000A00000064000000640000008C0A00006A
:103EF00032000000460000000A00000064000000DC
:103F0000640000008C0A000032000000460000003F
:103F10000A00000064000000640000008C0A000039
:103F200032000000460000000A00000064000000AB
:103F3000640000008C0A000032000000460000000F
:103F40000A00000064000000640000008C0A000009
:103F500032000000460000000000000000000000E9
:103F6000000000008C0A0000320000004600000043
:103F70000A00000064000000640000008C0A0000D9
:103F800032000000460000000A000000640000004B
:103F9000640000008C0A00003200000046000000AF
:103FA0000A00000064000000640000008C0A0000A9
:103FB00032000000460000000A000000640000001B
:103FC000640000008C0A000032000000460000007F
:103FD0000A00000064000000640000008C0A000079
:103FE00032000000460000000A00000064000000EB
:103FF000640000008C0A000032000000460000004F
:104000000A00000064000000640000008C0A000048
:104010003200000046000000000000000000000028
:10402000000000008C0A0000320000004600000082
:104030000A00000064000000640000008C0A000018
:1040400032000000460000000A000000640000008A
:10405000640000008C0A00003200000046000000EE
:104060000A00000064000000640000008C0A0000E8
:1040700032000000460000000A000000640000005A
:10408000640000008C0A00003200000046000000BE
:104090000A00000064000000640000008C0A0000B8
:1040A00032000000460000000A000000640000002A
:1040B000640000008C0A000032000000460000008E
:1040C0000A00000064000000640000008C0A000088
:1040D00032000000460000000A00000064000000FA
:1040E000640000008C0A000032000000460000005E
:1040F0000000000000000000000000008C0A00002A
:1041000032000000460000000A00000064000000C9
:10411000640000008C0A000032000000460000002D
:104120000A00000064000000640000008C0A000027
:1041300032000000460000000A0000006400000099
:10414000640000008C0A00003200000046000000FD
:104150000A00000064000000640000008C0A0000F7
:1041600032000000460000000A0000006400000069
:10417000640000008C0A00003200000046000000CD
:104180000A00000064000000640000008C0A0000C7
:1041900032000000460000000A0000006400000039
:1041A000640000008C0A000032000000460000009D
:1041B0000A00000064000000640000008C0A000097
:1041C00032000000460000000A0000006400000009
:1041D000640000008C0A000032000000460000006D
:1041E0000000000000000000000000008C0A000039
:1041F00032000000460000000A00000064000000D9
:10420000640000008C0A000032000000460000003C
:104210000A00000064000000640000008C0A000036
:1042200032000000460000000A00000064000000A8
:10423000640000008C0A000032000000460000000C
:104240000A00000064000000640000008C0A000006
:1042500032000000460000000A0000006400000078
:10426000640000008C0A00003200000046000000DC
:104270000A00000064000000640000008C0A0000D6
:1042800032000000460000000A0000006400000048
:10429000640000008C0A00003200000046000000AC
:1042A0000A00000064000000640000008C0A0000A6
:1042B00032000000460000000A0000006400000018
:1042C000640000008C0A000032000000460000007C
:1042D0000A00000064000000640000008C0A000076
:1042E0003200000046000000000000000000000056
:1042F000000000008C0A00001A0000003C000000D2
:104300000A00000014000000140000008C0A0000E5
:104310001A0000003C0000000A0000001400000029
:10432000140000008C0A00001A0000003C0000008D
:104330000A00000014000000140000008C0A0000B5
:104340001A0000003C0000000A00000014000000F9
:10435000140000008C0A00001A0000003C0000005D
:104360000A00000014000000140000008C0A000085
:104370001A0000003C0000000A00000014000000C9
:10438000140000008C0A00001A0000003C0000002D
:104390000A00000014000000140000008C0A000055
:1043A0001A0000003C0000000A0000001400000099
:1043B000140000008C0A00001A0000003C000000FD
:1043C0000A00000014000000140000008C0A000025
:1043D0001A0000003C0000000A0000001400000069
:1043E000140000008C0A00001A0000003C000000CD
:1043F0000A00000014000000140000008C0A0000F5
:104400001A0000003C0000000A0000001400000038
:10441000140000008C0A00001A0000003C0000009C
:104420000A00000014000000140000008C0A0000C4
:104430001A0000003C0000000A0000001400000008
:10444000140000008C0A00001A0000003C0000006C
:104450000A00000014000000140000008C0A000094
:104460001A0000003C0000000A00000014000000D8
:10447000140000008C0A00001A0000003C0000003C
:104480000A00000014000000140000008C0A000064
:104490001A0000003C0000000A00000014000000A8
:1044A00014000000480D00001C0000003200000055
:1044B00000000000000000000000000020030000D9
:1044C0001400000014000000840300000A00000033
:1044D000140000004C040000280000003C00000014
:1044E000000000000000000000000000F4010000D7
:1044F0001400000014000000580200000A00000030
:104500001400000020030000280000003C00000010
:104510000000000000000000000000002C0100006E
:104520001400000014000000900100000A000000C8
:1045300014000000F4010000280000003C0000000E
:10454000000000000000000000000000E803000080
:1045500014000000140000002003000014000000FC
:104560001E000000F40100003200000050000000B6
:10457000000000000000000000000000B004000087
:104580000A0000000A000000B00400000A00000059
:104590000A000000B00400000A0000000A00000049
:1045A000B00400000A0000000A0000000000000043
:1045B0000000000000000000200300000A000000CE
:1045C0000A000000C4090000280000000A000000E2
:1045D000000000000000000000000000D007000004
:1045E0001900000019000000FC080000190000007C
:1045F00019000000280A000019000000190000003E
:10460000D00700001900000019000000D0070000CA
:104610001900000019000000FC080000190000004B
:1046200019000000280A000019000000190000000D
:10463000D00700001900000019000000FC0800006D
:104640001900000019000000280A000019000000ED
:1046500019000000540B0000320000001900000097
:10466000FC0800001900000019000000280A0000E2
:104670001900000019000000540B00004B0000005E
:104680001900000000000000000000000000000011
:1046900001020408050CFA60D6F46CBCBEE0FEFC16
:1046A0000400FA60D6F46CBCBEE0FEFC0400FA60C4
:1046B000D6F46CBCBEE0FEFC0400AF066D4FC6CB6A
:1046C000EB0EEFCF400000009108000861080008E1
:1046D000B90700087D0800083D0800089508000893
:1046E000ED07000800040048000400000000004836
:1046F0000100000000000048020000000004004823
:104700000100010000000048800001000004004892
:10471000020001000004004804000100303132337F
:104720003435363738394142434445460000891113
:1047300012239B322446AD573665BF74488CC19D09
:104740005AAFD3BE6CCAE5DB7EE9F7F881100801E9
:1047500093331A22A5562C47B7753E64C99C408DE9
:10476000DBBF52AEEDDA64CBFFF976E802218B3085
:10477000100299132667AF763444BD554AADC3BCC9
:10478000588ED19F6EEBE7FA7CC8F5D983310A20A9
:1047900091121803A7772E66B5543C45CBBD42ACA9
:1047A000D99E508FEFFB66EAFDD874C904428D5341
:1047B00016619F702004A9153227BB364CCEC5DF89
:1047C0005EEDD7FC6888E1997AABF3BA85520C4369
:1047D00097711E60A1142805B3373A26CDDE44CF69
:1047E000DFFD56ECE9986089FBBB72AA06638F7205
:1047F00014409D512225AB343006B9174EEFC7FE49
:104800005CCCD5DD6AA9E3B8788AF19B87730E6228
:1048100095501C41A3352A24B1163807CFFF46EE28
:10482000DDDC54CDEBB962A8F99A708B08848195D0
:104830001AA793B62CC2A5D33EE1B7F04008C91918
:10484000522BDB3A644EED5F766DFF7C89940085D8
:104850009BB712A6ADD224C3BFF136E0C1184809F8
:10486000D33B5A2AE55E6C4FF77D7E6C0AA583B474
:10487000188691972EE3A7F23CC0B5D14229CB38D8
:10488000500AD91B666FEF7E744CFD5D8BB502A498
:1048900099961087AFF326E2BDD034C1C3394A28B8
:1048A000D11A580BE77F6E6EF55C7C4D0CC685D730
:1048B0001EE597F42880A1913AA3B3B2444ACD5B98
:1048C0005669DF78600CE91D722FFB3E8DD604C758
:1048D0009FF516E4A9902081BBB332A2C55A4C4B78
:1048E000D7795E68E11C680DF33F7A2E0EE787F6F4
:1048F0001CC495D52AA1A3B03882B193466BCF7A58
:104900005448DD59622DEB3C700EF91F8FF706E617
:104910009DD414C5ABB122A0B9923083C77B4E6A37
:10492000D5585C49E33D6A2CF11E780F4C490008CC
:104930000000002050010000B0010008A04900085C
:104940005001002088040000903A000811846CDCBB
:1049500002C00901020304060708092B0A0A041908
:1049600005012F0A10FF12091013143801401244D8
:1049700012401A48041A4C04811304207995F94610
:104980002901092D8159331396461B08A2041AAE3A
:10499000041ABA0401100A26AADC995CF20100008C
:04000005080000C12E
:00000001FF
