:020000040800F2
:1000000058050020D5000008DD000008DF000008CA
:1000100000000000000000000000000000000000E0
:10002000000000000000000000000000E1000008E7
:100030000000000000000000E3000008952F000809
:10004000E7000008E7000008E7000008E7000008F4
:10005000E7000008E7000008E7000008E7000008E4
:10006000E7000008E7000008E7000008E7000008D4
:10007000E7000008E7000008E7000008E7000008C4
:10008000E7000008E700000800000000E7000008A3
:10009000E7000008E7000008E7000008E7000008A4
:1000A000E7000008E7000008E7000008ED3000085E
:1000B000F730000800000000E70000080000000022
:1000C0000348854600F062F8004800477732000890
:1000D000580500200448804704480047FEE7FEE733
:1000E000FEE7FEE7FEE7FEE7B92F0008C1000008C3
:1000F00030B50B46014600202022012409E00D46C0
:10010000D5409D4205D31D469540491B2546954047
:1001100040191546521E002DF1DC30BD70B500248B
:100120002546002801DA01244042002901DA012590
:100130004942FFF7DDFFAC4200D04042002C00D026
:10014000494270BD03460B439B0703D009E008C931
:10015000121F08C0042AFAD203E00B780370401C77
:10016000491C521EF9D27047D2B201E00270401C05
:10017000491EFBD270470022F6E710B513460A4627
:1001800004461946FFF7F0FF204610BD064C012536
:10019000064E05E0E36807CC2B430C3C984710342F
:1001A000B442F7D3FFF790FF743F0008943F000874
:1001B000044A116800BF034A1268521A8242FAD3F5
:1001C000704700008800002072B60249086862B6D5
:1001D0007047000088000020024672B60448036899
:1001E00062B6981A884201D3012070470020FCE7CC
:1001F000880000201CB5044601A9002001F002FF80
:100200006946002001F0CEFE6846C078207068463E
:100210004078607068468078A07068460079E07029
:1002200068464079207168468079607101201CBD64
:100230001CB5044601A9002001F0E4FE6946002037
:1002400001F0B0FE21786846C17061784170A178F4
:100250008170E178017121794171617981710021A9
:10026000C17101A9002001F09FFF6946002001F043
:1002700033FF01201CBD000070B50546282901D9B7
:10028000002070BD0D4B2C46CAB205E020781870D6
:10029000641C5B1C501EC2B2002AF7DCBB26074858
:1002A0002030067206480078401CC6B2044806702A
:1002B00002482030467281720120E2E714010020DA
:1002C000930000201CB50121880401F095FD012058
:1002D0004002009001216846017103214171002113
:1002E00081710121C1716946014800F00FFB1CBDFD
:1002F0000004004810B501214902024800F07CFBCF
:1003000010BD00000004004810B502460B46002155
:1003100000BF04E088001058034C2060491C99423B
:10032000F8D30148006810BD003002400146024881
:100330000160006870470000003002400348806898
:1003400001210843014988607047000000300240E5
:1003500070B5044601252078632805DC60780C28F8
:1003600002DC6078002800D100256078030002F0EC
:10037000FFFE0D360816092B0A2C0B0C2D0D2E0E28
:10038000360000BF00BF00BF00BF00BF00BFA078A5
:100390001F2802DCA078002800D1002520E020786A
:1003A00001F0F4FA002807D0A0781D2802DCA0781C
:1003B000002808D1002506E0A0781C2802DCA078DF
:1003C000002800D100250BE000BF00BF00BFA078CF
:1003D0001E2802DCA078002800D1002500E000BF24
:1003E00000BFE078172805DC20793B2802DC607923
:1003F0003B2800DD0025284670BD10B5FFF762FFE1
:1004000000F004F8FFF776FF10BD00001CB50121D5
:10041000880401F0F1FCFF200130009002216846C1
:10042000017103214171002181710121C17169466E
:10043000044800F06BFA02220821024800F0AEFAEC
:100440001CBD00000004004800B585B0602168466E
:1004500001800021418004218180022181810021CD
:10046000C181FF21013101820021418200200290DF
:100470006946064802F0F0FD0121044802F0DAFD69
:1004800001200349087005B000BD00000044014090
:10049000F400002070B5044601253E48007800288D
:1004A00006D00C2C03D100203A49087003E070BD3F
:1004B000012038490870230002F05AFE130B0F1375
:1004C000171B1F23272B2F33373B474B4F53575BAC
:1004D0005F0031483149086053E031482F490860D6
:1004E0004FE030482D4908604BE02F482B49086009
:1004F00047E02E482949086043E02D482749086015
:100500003FE02C48254908603BE02B482349086020
:1005100037E02A482149086033E029481F4908602C
:100520002FE028481D4908602BE027481B49086038
:1005300027E00025002019490860FFF7DBFEFFF7E0
:1005400083FF0220214908701BE0214813490860FD
:1005500017E020481149086013E01F480F49086060
:100560000FE01E480D4908600BE01D480B4908606C
:1005700007E01C480949086003E00748074908608C
:1005800000BF00BF002D02D000201049087000BF3E
:100590008DE700009C0000205433000898000020E4
:1005A0006C3300089C330008E4330008443400082E
:1005B000BC3400084C350008F4350008B436000897
:1005C0008C3700087C38000884390008940000202B
:1005D0004C3B00087C3B0008483C0008DC3B000822
:1005E000AC3B00080C3C00081CB50121480401F09C
:1005F00003FC042000900021684601710321417131
:10060000002181710121C17169460920C00600F0F5
:100610007DF90820009069460920C00600F076F9AF
:100620001CBD1FB50446684601F036FF0C2201A927
:100630002046FFF787FD1FBDF0B593B006462C4C52
:100640000025432228466D1C01A90A542046432157
:1006500002F0BEFD044610A8FFF7E3FF00270CE000
:1006600010A8C25D28466D1C01A90A5410AAD15DCC
:10067000A0B202F0ADFD04467F1C0C2FF0D3327BFC
:1006800028466D1C01A90A54317BA0B202F0A0FDDE
:100690000446727B28466D1C01A90A54717B2046D2
:1006A00002F096FD044600270EE030460E30C25D93
:1006B00028466D1C01A90A5432460E32D15DA0B203
:1006C00002F086FD04467F1C307BB842EDD8E4433F
:1006D00028466D1C01A90C542004020E28466D1CEE
:1006E0000A54294601A800F01BF8284613B0F0BDB3
:1006F000FFFF000000B58BB0002168464173017315
:100700000020034908706846FFF796FF0BB000BD54
:10071000E90000200148007870470000E90000204F
:1007200070B504460D4629462046FFF7A5FD002872
:1007300003D02B21054801F0DBFF002000E0401C26
:1007400002492031897A8142F9D870BD1401002014
:100750000149C860704700000020024030B50446DF
:1007600004250B20000400F08FF80546042D17D156
:100770000C480069022108430A490861084644619F
:10078000006940210843074908610B20000400F07C
:100790007BF8054603480069022188430149086146
:1007A000284630BD0020024004200D49C968C90711
:1007B000C90F002901D0012010E00949C9681022A1
:1007C0001140002901D0022008E00549C96804222F
:1007D0001140002901D0032000E0042070470000F0
:1007E0000020024003480069802108430149086154
:1007F000704700000020024078B506460C460425EC
:10080000002000900B20000400F03EF80546042D67
:1008100024D113480069012108431149086134803B
:100820000B20000400F030F80546042D10D1B01C58
:100830000090200C009908800B20000400F024F8A0
:10084000054607480069400840000549086105E081
:10085000034800694008400001490861284678BD06
:10086000002002400548006980210840002804D08B
:10087000034802494860034848607047002002402E
:1008800023016745AB89EFCD10B503460424FFF77C
:100890008BFF044603E0FFF787FF04465B1E012C35
:1008A00001D1002BF7D1002B00D10524204610BD2B
:1008B00010B504210920C00600F092F8002801D1EB
:1008C000012010BD0020FCE710B5FFF7F1FF044642
:1008D0000B480078A04205D009480470FFF774FC6B
:1008E00008490860FF212D3106480068FFF774FCB5
:1008F000002803D0024800780349087010BD0000AA
:1009000000010020FC000020F8000020F0B50A469D
:1009100000210023002400BF3DE001258D402B462F
:1009200015681D402C469C4234D11579012D02D00A
:100930001579022D16D185684F000326BE40B543B8
:10094000856055794E00B540866835438560858859
:1009500001268E40B5438580858896798E40B6B253
:100960003543858005684F000326BE40B5430560CA
:1009700015794E00B540066835430560C5684F00DF
:100980000326BE40B543C560D5794E00B540C66864
:100990003543C560491C1029BFD3F0BDF0B5002315
:1009A00000244D07EE0E1546B5402B46CD10AE0087
:1009B00005462035AD594E07F70E0F26BE40B5430C
:1009C000CE10B60007462037BD51CD10AE003D46D3
:1009D000AD591D432C46CD10AD003E467451F0BDBF
:1009E00002460020138A0B40002B01D0012000E0BA
:1009F0000020704701857047816170473EB55FA256
:100A000007CA6B4607C30C2500F01AFC002803D068
:100A1000402001F077F802E0402001F06BF85A48DE
:100A20000068002800D03EBD58480078002832D128
:100A300000F006FC002826D155480078002814D084
:100A400000F004FC00280CD0524953480068FFF71E
:100A5000C3FB002804D000204D49087000F0FCFBC7
:100A600089E000204A49087085E001204749087064
:100A7000FFF7AAFB49490860002049490880401E49
:100A80004849088077E042480078002873D0002069
:100A90003F4908706FE000F0D9FB002803D000F058
:100AA000CFFB002803D0002038490870BBE73E4840
:100AB00000883E4A5043014638480068FFF78CFBE7
:100AC000002858D0374800883549098888421DD009
:100AD000344800883649884214D1334800880C28AD
:100AE00001DB0C2001E03048008804466946085DBF
:100AF000FFF7D0FC2C48008829490880FFF764FBE9
:100B00002C4908602648008826490880274929483A
:100B10000068FFF761FB00281AD021480088401CBC
:100B20001F49088020484088098888420CDD1C48FD
:100B300000880C2801DB0C2001E0194800880446DD
:100B40006946085DFFF7A6FCFFF73EFB1949086000
:100B5000154840881249098888420CDC0B20FFF7B1
:100B600099FC002009490870012009490870FFF725
:100B70002BFB0949086000BF55E700000000010297
:100B8000030405060708090A2C000020580000206D
:100B900068000020102700006C0000205C0000208E
:100BA00064000020660000203C00002060EA000095
:100BB000FFFF0000600000201CB533493348006887
:100BC000FFF70AFB002811D0FFF7FEFA2F49086053
:100BD0002F480068002856D001202E4908702E4862
:100BE00000F0CCFE112000F025FE4CE0684602F03B
:100BF0003AFB6846C07829490978884205D1684699
:100C000000792749097888423CD06946C8780A218A
:100C1000FFF784FAC4B2092C01DD092000E0204668
:100C2000204908706946C8780A21FFF777FACCB2E4
:100C3000092C01DD092000E020461A494870694668
:100C400008790A21FFF76AFAC4B2092C01DD0920EC
:100C500000E0204613498870694608790A21FFF7A9
:100C60005DFACCB2092C01DD092000E020460D49D7
:100C7000C8706846C0780949087068460079084914
:100C8000087000BF00BF1CBD8813000028000020B2
:100C90002C0000202400002018000020510000201B
:100CA000520000201400002010B5194800780028D8
:100CB00009D07D21490117480068FFF78DFA002807
:100CC00001D001F0FBFF1448007800281ED0FFF788
:100CD00021FD00280AD00A20104908704870887049
:100CE0000120C87000200C4908700FE00C490D4825
:100CF0000068FFF771FA002808D00A200749087039
:100D000048708870C87000200349087010BD00004A
:100D1000500000204C00002048000020200000204F
:100D2000881300004400002010B5544800780428BF
:100D300002DD0020514908705048007800281BD17E
:100D400000F0EAF84E49002000F022FD4D49012054
:100D500000F01EFD4C49022000F01AFD4B49032013
:100D600000F016FD02204A4908700E2000F0C2FE75
:100D7000012000F0C7FE7AE04048007801281BD12E
:100D800000F0D4F84349002000F002FD4249012060
:100D900000F0FEFC4149022000F0FAFC404903202B
:100DA00000F0F6FC02203A4908700D2000F0A2FE87
:100DB000022000F0A7FE5AE03048007802281BD13C
:100DC00000F080F83349002000F0E2FC32490120B5
:100DD00000F0DEFC3149022000F0DAFC314903204A
:100DE00000F0D6FC02202A4908700B2000F082FE99
:100DF000042000F087FE3AE02048007803281BD149
:100E000002F038F80021084600F0C2FC0021012061
:100E100000F0BEFC2449022000F0BAFC2349032064
:100E200000F0B6FC02201A490870072000F062FEAC
:100E3000082000F067FE1AE0102000F0FBFC1C48C0
:100E400000F09CFD0020124908701A4900F0A0FC37
:100E50001949012000F09CFC1849022000F098FC80
:100E60001749032000F094FC0F2000F043FE0348D4
:100E70000078401C0149087010BD000049000020A6
:100E8000812A0008E92A0008C52A00080D2B00085D
:100E900024000020052C0008552C00082D2C0008EB
:100EA0008D2B0008092A0008B52E0008A12E000885
:100EB00014000020492D0008112E0008AD2D000857
:100EC0007D2C0008F8B5124948883C21FFF726F927
:100ED000C4B20F4948883C21FFF720F90F460A2188
:100EE0003846FFF71BF9C5B2094948880A21FFF7C0
:100EF00015F9CEB20A20074908700846447085707B
:100F0000C670172000F096FC024800F037FDF8BDCF
:100F10003C0000201C00002010B5102000F08AFCCE
:100F2000014800F02BFD10BD14000020F8B5124957
:100F300008883C21FFF7F2F8C4B20F4908883C2129
:100F4000FFF7ECF80F460A213846FFF7E7F8C5B27D
:100F5000094908880A21FFF7E1F8CEB20A200749BB
:100F60000870084644708570C670172000F062FC57
:100F7000024800F003FDF8BD3C0000201C000020EA
:100F800070B501242E4D2F48006800280CD17D2516
:100F90002D010A202C490870002048708870C87004
:100FA0002848006829490860294629480068FFF751
:100FB00013F9002833D1002422480068B42802D352
:100FC000B320204908601F4800682049096888420A
:100FD00025D00A201C4908703C211A480068FFF7F8
:100FE00087F8194948703C2116480068FFF780F8D7
:100FF0000E460A213046FFF77BF8134988703C21E2
:1010000010480068FFF774F80E460A213046FFF7D3
:101010006FF80D48C1700B4800680C490860002C3F
:101020000CD0FFF7D1F80A49086000200949087080
:10103000094800F0A3FC102000F0FCFB70BD00008C
:10104000881300002C00002018000020540000200D
:1010500028000020240000201400002010B52248A1
:101060000078022802DD00201F4908701E49097817
:1010700089001E4A505880471D480078002813D028
:101080001C480068002812D10B20FFF703FA00204B
:101090001749087001F056FF012017490870FFF743
:1010A00093F81649086002E0002001F04BFF124857
:1010B0000078002813D0124910480068FFF78CF818
:1010C000002805D000200C49087000F0C5F806E0A3
:1010D00000F0B6F8002802D0002007490870FFF79A
:1010E0008DFC00F0DFF810BD240000201033000854
:1010F000340000202C00002070000020740000202C
:101100001027000010B54048007801281BD1FFF7D8
:101110000DFF3E49002000F03BFB3D49012000F05F
:1011200037FB3C49022000F033FB3B49032000F031
:101130002FFB0220394908700D2000F0DBFC022053
:1011400000F0E0FC5AE03048007802281BD1FFF79D
:10115000B9FE2E49002000F01BFB2D49012000F0B4
:1011600017FB2C49022000F013FB2D49032000F04F
:101170000FFB0220294908700B2000F0BBFC042063
:1011800000F0C0FC3AE02048007803281BD101F0B1
:1011900071FE0021084600F0FBFA0021012000F05A
:1011A000F7FA2049022000F0F3FA1F49032000F06B
:1011B000EFFA022019490870072000F09BFC082074
:1011C00000F0A0FC1AE0102000F034FB174800F0FB
:1011D000D5FB002011490870154900F0D9FA1549CE
:1011E000012000F0D5FA1449022000F0D1FA134989
:1011F000032000F0CDFA0F2000F07CFC02480078BC
:10120000401C0149087010BD49000020052C000851
:10121000552C00082D2C00088D2B000824000020E0
:10122000092A0008B52E0008A12E0008140000208D
:10123000492D0008112E0008AD2D00087D2C000856
:101240000148007870470000F8000020014800784D
:1012500070470000E800002000B58BB0022168460E
:1012600041735521817301210173FFF7E5F90BB03B
:1012700000BD10B508210920C006FFF7B1FB00280A
:1012800001D0012010BD0020FCE7000010B50C20AB
:10129000FFF700F90249032000F07AFA10BD0000C0
:1012A000BD2C000810B521480078002822D0FFF797
:1012B000E0FF002817D01E491E480068FEF78CFF8B
:1012C000002832D0FFF7C8FF0B20FFF7E3F810200B
:1012D00000F018FCFEF778FF164908601649032055
:1012E00000F056FA21E0102000F004FC00200F4925
:1012F00008701AE0FFF7BDFF002813D0FFF7ACFF1E
:101300000B20FFF7C7F8102000F0FCFBFEF75CFF96
:10131000084908600120054908700749032000F0CA
:1013200037FA02E0102000F0E5FB10BD3500002088
:1013300020BF0200380000208D12000810B50024E4
:101340001C49002000F024FA1B49012000F020FA7B
:101350001A49022000F01CFA1949032000F018FA7B
:101360001849042000F014FA08221749174801F020
:101370004CF8002808D00421144801F037FF134925
:101380004968884200D10124002C04D101200F4972
:10139000088005204880FEF717FF0D4908600020EF
:1013A0000C490870102000F045FA0B4800F0E6FAEE
:1013B00010BD0000492D0008112E0008AD2D0008B9
:1013C0007D2C0008290D000800A000083C0000202A
:1013D00028000020240000201400002010B50B4835
:1013E0000068401C09490860094988420DD3002063
:1013F0000649086007480068401E0649086008461C
:101400000068002801D101F09DFD10BD30000020D2
:1014100060EA00002C000020FF20F53000BF0146EC
:10142000421E90B20029FAD1704700001CB501217C
:101430002120400400F0E0FC1020009000216846CC
:1014400081710121C1710171032141716946092036
:10145000C006FFF75BFA4020009069460920C006ED
:10146000FFF754FA2020009069460920C006FFF7D4
:101470004DFA8020009069460348FFF747FA802123
:101480000148FFF7B9FA1CBD001400481FB5FFF76B
:10149000CDFF522000F060F8022000F05DF8062039
:1014A00000F05AF800200090019002900390202252
:1014B000694600F0AEF8FF2210216846FEF754FEA0
:1014C000002408E060106A4681180222204600F0DD
:1014D000A0F8A01CC4B2202CF4DB1FBD1CB500F08A
:1014E000BBF900F017FB062219491A4801F05DFE0E
:1014F00000282CD1062217491548FEF723FE15486F
:101500000178684601701348417868464170114877
:101510008178684681700F48C0780007010E0D4839
:1015200000790007000F01436846C1700948C07880
:10153000F02108400011074949790907090E0843BD
:10154000694608710A22162000F063F800BF1CBD2E
:10155000A4000020AA00002070B506461021092032
:10156000C006FFF747FA002404251FE004202840A6
:10157000002805D020210920C006FFF73DFA04E02D
:1015800020210920C006FFF735FA40210920C006B6
:10159000FFF730FAFFF740FF40210920C006FFF7B0
:1015A0002BFAFFF739FF601C84B26D10032CDDDBD2
:1015B0000024FF2501351FE030462840002805D0D3
:1015C00020210920C006FFF717FA04E02021092096
:1015D000C006FFF70FFA40210920C006FFF70AFAFC
:1015E000FFF71AFF40210920C006FFF705FAFFF7B1
:1015F00013FF601C84B26D10092CDDDB1021092063
:10160000C006FFF7F9F920210920C006FFF7F4F919
:1016100070BDF7B582B00F4610210920C006FFF754
:10162000E9F9002404251FE005202840002805D002
:1016300020210920C006FFF7DFF904E0202109205E
:10164000C006FFF7D7F940210920C006FFF7D2F9FD
:10165000FFF7E2FE40210920C006FFF7CDF9FFF7B2
:10166000DBFE601CC4B26D10032CDDDB00242025E2
:101670001FE002982840002805D020210920C0063C
:10168000FFF7BAF904E020210920C006FFF7B2F9FC
:1016900040210920C006FFF7ADF9FFF7BDFE40214C
:1016A0000920C006FFF7A8F9FFF7B6FE601CC4B218
:1016B0006D10062CDDDB002635E0F007C00F00289A
:1016C00004D07010385C0011019004E07010385C98
:1016D0000007000F01900024012520E00198284018
:1016E000002805D020210920C006FFF785F904E075
:1016F00020210920C006FFF77DF940210920C006FE
:10170000FFF778F9FFF788FE40210920C006FFF7B0
:1017100073F9FFF781FE601CC4B26806050E042C45
:10172000DCDB701C86B204988642C6DB10210920DF
:10173000C006FFF761F920210920C006FFF75CF918
:1017400005B0F0BD70B500BF012000F0A1FF012081
:1017500000F0AEFF012000F08BFF002000F0B8FF8A
:1017600000BF002000F0F2FF084C14250AE0617869
:10177000227852003E231A40104601F0D9FCA41CE6
:10178000681EC5B2002DF2DC70BD00002C330008CD
:101790000CB507A30CCB01930092052800D30CBD18
:1017A0006A46125C9200044B995000BFF7E70000B4
:1017B0000001030204000000400100201CB50121CB
:1017C0000320400400F018FB0021684681710121CC
:1017D000C17100210171032141710120C0030090FA
:1017E00069460920C006FFF791F808200090694675
:1017F0000E48FFF78BF8FF20013000906946092062
:10180000C006FFF783F80120C0030090694607482F
:10181000FFF77CF8002405E00020A100044A5050A6
:10182000601CC4B2052CF7D31CBD000000040048A6
:101830004001002010B5044604480470FEF7C4FCC3
:101840000349086000200349087010BDC100002052
:10185000C4000020C000002038B501253F480068C2
:10186000002800D138BD3E480078002814D07D21E2
:10187000C9003C480068FEF7AFFC00280CD0FEF71A
:10188000A3FC3849086038480078002801D10120BD
:1018900000E000203449087004223048016868469E
:1018A000FEF750FC2E48007800281AD02E48007809
:1018B000002816D100240BE00120A0402849097817
:1018C0000840002802D00B2069460855601CC4B2AD
:1018D000042CF1DB2248007810210840002800D0B9
:1018E0000025002435E02148005D6946095D8842F5
:1018F00005D1022C2BD11E480078A84227D068467B
:10190000005D1A490855022C19D119480570002D9F
:101910000AD0A000174908586946095D405C0121BA
:1019200008431549085512E0A000124908586946B5
:10193000095D405C400840000F49085507E0A000E1
:101940000C4908586946095D405C0B490855601C04
:10195000C4B2042CC7DB00BF84E70000BC00002039
:10196000C1000020C4000020C0000020D1000020E1
:10197000D0000020D8000020AA000020002801D0BC
:101980000149086070470000BC00002070B50646A1
:101990007D20000134182546E017800F4019801083
:1019A0008000201A05D164212046FEF7B7FB0029EC
:1019B00006D1FF2191312046FEF7B0FB002901D16D
:1019C000012070BD0020FCE71021014000290CD04F
:1019D0004749097801221143454A11701146497857
:1019E00001221143424A51700AE0414909784908ED
:1019F00049003F4A11701146497849084900517021
:101A000020210140002906D03949097908221143D3
:101A1000374A117105E03649097908229143344A61
:101A2000117140210140002906D031490979042271
:101A300011432F4A117105E02D4909790422914380
:101A40002B4A117180210140002906D028490979CB
:101A500002221143264A117105E025490979022223
:101A60009143234A1171C107C90F002906D02049AB
:101A70004979012211431E4A517105E01C494979F7
:101A8000490849001A4A517102210140002906D033
:101A90001749497902221143154A517105E0144949
:101AA000497902229143124A5171042101400029CF
:101AB00006D00F494979042211430D4A517105E0BE
:101AC0000B49497904229143094A51710821014087
:101AD000002906D00649497908221143044A517168
:101AE00005E00349497908229143014A5171704741
:101AF000AA000020024909788143014A1170704709
:101B0000B0000020024909780143014A1170704772
:101B1000B000002010B58748007810210840002848
:101B20001ED07D21C90084480068FEF755FB0028BF
:101B30001CD0FEF749FB80490860804800781021DE
:101B40000840002805D07D48007888437B4908700C
:101B50000CE07A480078102108437849087005E0C5
:101B600076480078102188437449087071480078DD
:101B700020210840002838D07148007800281AD069
:101B80007D2109016F480068FEF726FB00282CD054
:101B900000206B490870FEF717FB6A49086065482A
:101BA00000782021084000281FD06448007888432E
:101BB0006249087019E07D21C90062480068FEF79B
:101BC0000BFB002811D001205D490870FEF7FCFADC
:101BD0005C4908605748007820210840002804D05C
:101BE000564800780843554908705248007820212B
:101BF0000840002804D15148007888434F490870B4
:101C00004C4800784021084000281BD14E480078FD
:101C1000002806D04D494E480068FEF7DDFA00283E
:101C200009D0002048490870444800784021884382
:101C30004249087013E041480078402108433F4979
:101C400008700CE0012040490870FEF7BDFA4049D9
:101C500008603A4800784021084338490870354800
:101C6000007880210840002805D0344800780843D7
:101C70003249087005E031480078802188432F49B7
:101C800008702C480078C007C00F002806D02B48E9
:101C90000078012108432949087005E027480078A9
:101CA0004008400025490870224800780221084079
:101CB000002805D02148007808432049087005E035
:101CC0001E480078022188431C4908701948007892
:101CD00004210840002805D0184800780843174917
:101CE000087005E0154800780421884313490870FE
:101CF0001048007808210840002805D00F480078D7
:101D000008430E49087005E00C4800780821884314
:101D10000A490870094800780E490978884207D0B6
:101D2000064800780B49087004480078FFF74CFE1D
:101D300010BD0000B0000020B4000020C80000204A
:101D4000CA000020B8000020CB00002010270000AF
:101D5000CC000020C900002010B5002819DA1A4A6A
:101D600003071B0F083B9B089B00D2588307DC0E20
:101D7000FF23A3409A438B071B0E8407E40EA34066
:101D80001A43114B0407240F083CA408A4001A515D
:101D900018E00E4A03231B02D21883089B00D25876
:101DA0008307DC0EFF23A3409A438B071B0E840797
:101DB000E40EA3401A43054B032424021B19840894
:101DC000A4001A5110BD00001CED00E000E100E08D
:101DD000002807D007490968FF2201321143054A4C
:101DE000116006E003490968FF2201329143014A6C
:101DF0001160704700700040002905D0054A526903
:101E00000243044B5A6104E0024A52698243014B87
:101E10005A61704700100240002905D0054AD26976
:101E20000243044BDA6104E0024AD2698243014B67
:101E3000DA6170470010024010B50246002100230D
:101E400000205111002902D10C4C23680BE001291C
:101E500002D10A4C236A06E0022902D1074C636AC8
:101E600001E0064C636BD106C90E01248C401C4076
:101E7000002C01D0012000E0002010BD0010024025
:101E80000849096A49084900064A11621146096A67
:101E900004229143034A11621146096A0143116207
:101EA0007047000000100240002807D00749096A67
:101EB0000122D2031143054A116206E00349096A6F
:101EC0000122D2039143014A11627047001002407F
:101ED0000249096A0143014A116270470010024039
:101EE000014600BFF020084000110A235843024673
:101EF0000807000F8018C0B270470146002204E0B6
:101F0000501CC2B208460A38C1B20A29F8DA1007D2
:101F1000000E08437047000080210143C903C90B2C
:101F2000C943044AD26880231A401143014AD16050
:101F3000704700000028004008B5002200920020F1
:101F40000021124AD26840231A40002A1BD1421EA7
:101F50000E4BDA6000BF0D4AD26840231A4011468A
:101F6000009A521C00921B02009A9A4201D000294A
:101F7000F1D0064AD26840231A40002A01D001203D
:101F800002E0002000E0012008BD00000028004021
:101F90000348C068802188430149C8607047000039
:101FA0000028004070B506460C46002513484068DE
:101FB000134908400546FF2000042840000CE0704B
:101FC0001F2000022840000A6070A806800EA07042
:101FD000072040032840400B2070002E0DD1E078F0
:101FE000FFF77EFFE0706078FFF77AFF6070A078FF
:101FF000FFF776FFA0702078207070BD00280040A9
:102000003FFFFF0070B506460C46002512480068E9
:102010001249084005463F2000042840000C20706B
:102020007F2000022840000A60706806400EA07001
:10203000012080052840000CE070002E0BD1207894
:10204000FFF74EFF20706078FFF74AFF6070A078BE
:10205000FFF746FFA07070BD002800407F7F7F0023
:1020600030B504460025CA20124948625320486210
:10207000FFF762FF002800D117E00E48806840217A
:1020800088430C49886008468068216808430949EC
:102090008860A068086108460069A18809040843AF
:1020A00004490861FFF774FF0125FF2001494862D8
:1020B000284630BD0028004008B5014600200090A9
:1020C000044800908800009A8018009000980068EA
:1020D00008BD000050280040F8B505460C46002613
:1020E00000200090002D08D16078102108401028B1
:1020F00003D1607888430A306070002D00D108E079
:102100006078FFF7EDFE0646A078FFF7E9FE064689
:1021100000BF002D0BD0E07800046178090208436D
:10212000A1780843217849030843064610E0E07887
:10213000FFF7E3FE07046078FFF7DFFE00020743C6
:10214000A078FFF7DAFE07432078400307433E46B6
:10215000CA201349486253204862FFF7EDFE002869
:1021600001D1009016E00F4830400D494860FFF75C
:102170000FFF0B48806820210840002808D100F09C
:102180007FF8002801D1009004E00120009001E0D8
:1021900001200090FF20024948620098F8BD00002D
:1021A000002800403FFFFF00F8B505460C4600261A
:1021B00000200090002D0AD12F488068402108405F
:1021C000002800D002E00020E07000BF0EE02A48A6
:1021D000806840210840002804D02078FFF780FE66
:1021E000064602E00020E07000BF00BF002D0BD0CB
:1021F00020780004617809020843A1780843E17857
:1022000009040843064610E02078FFF776FE07042D
:102210006078FFF772FE00020743A078FFF76DFEBB
:102220000743E078000407433E46CA20124948624B
:1022300053204862FFF780FE002801D1009016E08D
:102240000E4830400C490860FFF7A2FE0A4880683B
:1022500020210840002808D100F012F8002801D100
:10226000009004E00120009001E001200090FF2098
:10227000014948620098F8BD002800407F7F7F0038
:1022800008B50022009200200021174A92682023FE
:102290001A40002A01D0012025E0CA22124B5A62BE
:1022A00053225A621A46D268A0239A430E4BDA6030
:1022B00000BF0D4AD26820231A401146009A521CD2
:1022C00000929B02009A9A4201D00029F1D0064A5E
:1022D000D26820231A40002A01D0012000E000200B
:1022E000FF22014B5A6208BD0028004008B50022B9
:1022F0000092044A00928200009BD2180092009A39
:10230000116008BD50280040F0B5FFB0FFB083B0A9
:1023100005460C46164617480088401E2146814354
:102320000F4614480088411E214000911148028840
:10233000394601A800F069F801AA00995018324600
:102340002946FDF7FFFE3146384600F03DF80028EB
:102350000ED008480288394601A800F06EF800281F
:1023600004D001207FB07FB003B0F0BD0020F9E7BA
:102370000020F7E79000002010B5030000F0F8FE01
:10238000061304070A0D10130E4B195C0DE00D4BDC
:10239000195C0AE00B4B195C07E00A4B195C04E07E
:1023A000084B195C01E0052100BF00BF002205E0D9
:1023B000002400E0641C8C42FCD3521C8242F7DBF8
:1023C00010BD00001C330008FEB504460D46012672
:1023D000601901902746B00200903520FEF7B8F949
:1023E000FEF740FA08E02046FEF7B8F9042802D1CB
:1023F00000983F1800E00026002E02D00198874286
:10240000F1D3FEF7EFF93046FEBD30B504460B467A
:102410001D469007800F002803D19807800F0028E1
:1024200001D0002030BD002103E028886052891CC3
:10243000AD1C9142F9D30120F4E7F7B582B005460F
:10244000164601200190039FB007800F002802D09C
:10245000002005B0F0BD3520FEF77AF9FEF702FA4C
:10246000002410E029593846FEF7C6F9042806D1A1
:1024700029593868884204D00020019001E00020EA
:1024800001903F1D241D0198012801D1B442E9D3D8
:10249000FEF7A8F90198DCE730B5134CA489048055
:1024A0000124A4024480104C403CE16A226B636B1F
:1024B00001710C04250E45710C02250E85710D0E5F
:1024C000C57102721404250E45721402250E857220
:1024D000150EC57203731C04250E45731C02250ED0
:1024E00085731D0EC57330BDC0F7FF1F0EB50020EC
:1024F000FFF7E2FD1D49884229D001210807FFF7B7
:102500008BFC0120FFF764FC0120FFF7B9FC00BF42
:102510002120FFF791FC0028FAD0FF200130FFF7BF
:10252000D7FC0120FFF7C0FCFFF7AAFE7F20019037
:10253000FF200290002000906846FFF791FD0028E0
:1025400000D10EBD09490020FFF7D0FE0CE00121AB
:102550000807FFF761FC0120FFF73AFCFFF790FE48
:10256000FF200130FFF7D8FC0120EAE7F03200003D
:1025700070B50446A0000D490E582021304600F0E9
:10258000C8FD012811D1304600F0CDFDC5B2084983
:10259000304600F0B5FDA00006490858002804D0D8
:1025A000A0000A4611582846884770BD78000020D0
:1025B000050105000401002010B504462046FDF782
:1025C000F7FD10BD10B50446A0B2FFF7D5FE10BD53
:1025D0001CB5012103204004FFF70EFC00216846D2
:1025E00081710121C1710021017103214171002418
:1025F0001FE0E0001049401880880090E1000E4A7A
:1026000050586946FEF782F9E0000B494018C0882F
:1026100000280CD1E0004018C188601CC000064AA8
:102620008018C088814202D0012069460871601C70
:1026300084B2072CDDD31CBD2C3D000810B5012150
:102640000920C006FEF7CCF9002801D0012010BDFA
:102650000020FCE710B5012189020448FEF7C0F90B
:10266000002801D0012010BD0020FCE70004004834
:1026700010B50446002C04D004210448FEF7BCF930
:1026800003E004210148FEF7B5F910BD000400483D
:1026900010B50446002C05D080210920C006FEF7A5
:1026A000ABF904E080210920C006FEF7A3F910BDB4
:1026B00010B50446002C04D001210448FEF79CF913
:1026C00003E001210148FEF795F910BD0004004820
:1026D00010B50446002C04D002210448FEF78CF902
:1026E00003E002210148FEF785F910BD000400480F
:1026F00070B504460D46202000F028F800213E2049
:1027000000F016FD04211A2000F012FD1F211C20EC
:1027100000F00EFD00BF0020FFF7CAFF2078641C08
:1027200000F0ECFB0120FFF7C3FF681EC0B2051EDE
:10273000F1D1802000F00AF800BFFFF77FFF0028EA
:10274000FBD0002000F002F870BD000010B5044678
:102750007648007884427DD0802C4CD17348007834
:10276000002816D12C2100F0E3FC0520FFF724FF00
:102770004C21002000F0DCFC19204001FFF722FF73
:102780008C21002000F0D4FCFF20F530FFF71AFF69
:102790002DE066480078202810D14C21002000F060
:1027A000C7FC19204001FFF70DFF8C21002000F02D
:1027B000BFFCFF20F530FFF705FF18E05B4800780D
:1027C000402808D18C21002000F0B2FCFF20F53019
:1027D000FFF7F8FE0BE055480078602807D18C2100
:1027E000002000F0A5FCFF20F530FFF7EBFE802075
:1027F0004E49087096E0602C4ED14C480078002875
:1028000016D12C2100F094FC0520FFF7D5FE4C21B9
:10281000002000F08DFC19204001FFF7D3FE6C2151
:10282000002000F085FCFF20F530FFF7CBFE2FE005
:102830003E480078202812D14C21002000F078FC7E
:1028400019204001FFF7BEFE6C21002000F070FC53
:10285000FF2000E068E0F530FFF7B4FE18E03348F1
:102860000078402808D16C21002000F061FCFF2096
:10287000F530FFF7A7FE0BE02C480078802807D141
:102880006C21002000F054FCFF20F530FFF79AFE89
:1028900060202649087045E0402C27D12348007865
:1028A00000280ED12C2100F043FC0520FFF784FE08
:1028B0004C21002000F03CFC19204001FFF782FE73
:1028C00010E01A480078202808D14C21002000F0A0
:1028D0002FFC19204001FFF775FE03E04C2100207A
:1028E00000F026FC4020114908701BE0202C12D17A
:1028F0000E480078002806D12C2100F019FC052094
:10290000FFF75AFE03E02C21002000F011FC2020EC
:102910000649087006E00C21002000F009FC0020A8
:1029200002490870002010BDFF20FCE79200002043
:102930000CB5002001900090314800680121090485
:1029400008432F49086000BF2D4800680121490451
:10295000084000900198401C01900098002804D184
:102960000521090301988842EED12548006801211C
:1029700049040840002802D00120009001E0002016
:1029800000900098012839D111201E4908601C4888
:1029900040681B49486008464068486008464068EF
:1029A0007F21C903884316494860084640681121C1
:1029B00009040843124948600846006801210906D5
:1029C00008430F49086000BF0D480068012149060F
:1029D00008400028F8D00A4840688008800008496C
:1029E000486008464068022108430549486000BF26
:1029F000034840680C2108400828F9D10CBD0000AC
:102A000000100240002002401CB51A4840783C21CA
:102A100048436946488068464188164880780A22BB
:102A20005043081881B26846418040881149C978EE
:102A3000401881B2684641800F4841886846408806
:102A4000814213D00C4800886946088004216846FA
:102A500000F0CCFB0190082208496846FFF754FCBF
:102A6000002803D06846408803494880FEF74AFBA7
:102A70001CBD00001C0000203C00002000A000083D
:102A800010B51020FEF7D6FE0D4800780A21484305
:102A900004460B4840780419601CC0B2044618284C
:102AA00000DB00240A212046FDF738FB04490870AA
:102AB0000A212046FDF732FBC8B20149487010BD1B
:102AC0001400002010B51020FEF7B4FE0548C078B1
:102AD000401CC0B20349C870092801DD0020C8703D
:102AE00010BD00001400002010B51020FEF7A2FE5B
:102AF00005488078401CC0B203498870052801DD74
:102B00000020887010BD0000140000201CB568462D
:102B100000F0A9FB6846FDF71BFC002808D1112135
:102B2000684601700A21417016210170002141712F
:102B3000154800780A214843134949784018C1B222
:102B40006846C170104880780A2148430E49C97808
:102B50004018C1B268460171C078172801DD1720FE
:102B600001E06846C0786946C87008793B2801DDF5
:102B70003B2001E06846007969460871684600F02C
:102B8000B9FBFEF7BFFA1CBD140000201CB51A48A3
:102B900040783C21484369460880684601881648C9
:102BA00080780A225043081881B268460180008864
:102BB0001149C978401881B2684601800F480188E0
:102BC00068460088814213D00C4840886946488096
:102BD0000421684600F00AFB019008220849684673
:102BE000FFF792FB002803D068460088034908805D
:102BF000FEF788FA1CBD00001C0000203C000020ED
:102C000000A0000810B51720FEF714FE0648FEF7D6
:102C1000B5FE05484078401CC0B203494870022800
:102C200001DD0020487010BD1C00002010B51720E9
:102C3000FEF700FE0648FEF7A1FE0548C078401CDE
:102C4000C0B20349C870092801DD0020C87010BD5A
:102C50001C00002010B51720FEF7ECFD0648FEF71B
:102C60008DFE05488078401CC0B203498870052855
:102C700001DD0020887010BD1C00002010B5002070
:102C80000949086000F05EF9002008490870FEF765
:102C9000D1FD0748FEF772FE012006490870FDF7D6
:102CA00093FA0549086010BD2C0000203400002074
:102CB00018000020240000202800002010B51A4829
:102CC00040783C21484319490860174880780A2118
:102CD0004843164909684018144908601248C078EA
:102CE000096840181149086008460068002805D0A6
:102CF0000F4800F027F901200E4908700020FEF768
:102D000099FD0948FEF73AFE01200B490870FDF7CE
:102D10005BFA0A4908600A490320FEF739FD0020E2
:102D20000849087010BD0000180000202C00002089
:102D3000DD130008340000202400002028000020BB
:102D40007D2C00085000002010B50A2011490870A1
:102D50001120FEF76FFD0F48FEF710FE0D4840787A
:102D6000401CC0B20B494870022801DD00204870A9
:102D700000200949087009490320FEF709FD0220D7
:102D800007490870012007490870FDF71DFA064938
:102D9000086010BD1800002034000020BD2C000881
:102DA00024000020500000204C00002010B50A2014
:102DB000114908701120FEF73DFD0F48FEF7DEFDBA
:102DC0000D48C078401CC0B20B49C870092801DD0D
:102DD0000020C87000200949087009490320FEF747
:102DE000D7FC022007490870012007490870FDF749
:102DF000EBF90649086010BD1800002034000020DF
:102E0000BD2C000824000020500000204C000020B1
:102E100010B50A20114908701120FEF70BFD0F486C
:102E2000FEF7ACFD0D488078401CC0B20B4988709D
:102E3000052801DD00208870002009490870094933
:102E40000320FEF7A5FC022007490870012007496E
:102E50000870FDF7B9F90649086010BD1800002098
:102E600034000020BD2C0008240000205000002069
:102E70004C00002010B50A2007490870487088707F
:102E80000020C870054908700820FEF7D3FC0248EE
:102E9000FEF774FD10BD0000200000204800002057
:102EA00010B503480078002801D1FEF72BF910BDBA
:102EB0004800002010B50E480078002816D10D48B3
:102EC000C078012812D00A200A490870487088701A
:102ED0000020C870012006490870FDF70BFCFDF7C3
:102EE00073F9054908600020FEF7A4FC10BD00003E
:102EF00048000020200000204400002070B5044657
:102F000008251AE080202040002803D00120FFF788
:102F1000AFFB02E00020FFF7ABFB0120FFF7D8FB7F
:102F20006006040EFFF796FB002801D0601CC4B2B7
:102F30000020FFF7CDFB681EC5B2002DE2DC204665
:102F400070BD000001490860704700008C0000203F
:102F500010B57D21C9000C480068FDF7C9F804468A
:102F6000601E0A49884200D90CE0601E0849486189
:102F70000321081FFEF7F0FE0020054988610720A5
:102F8000086100BF10BD000000000020FFFFFF002F
:102F900000E000E010B506480068401C04490860E5
:102FA00004480068002802D002480068804710BD2D
:102FB000880000208C00002010B51B48006801210B
:102FC00008431949086008464068184908401649EE
:102FD00048600846006816490840134908600846DA
:102FE00000680121890488430F4908600846406849
:102FF0003F21090488430C4948600846C06A00091B
:103000000001C8620846006BFF215431884306491D
:1030100008630846406B4008400048630020886011
:10302000FFF786FC10BD0000001002400CB8FF083E
:10303000FFFFF6FE002907D04422125A0123DB03CA
:103040001A4344231A5205E04422125A53045B0CDB
:10305000442213527047000070B500240022002360
:10306000058C1C4E35400584028C8388048B194DD9
:103070006F3D2C40B51E2C400D882C43751E2A40F8
:103080008D892A434D882A43134DA84208D0134DF9
:10309000A84205D0124DA84202D0124DA84212D12A
:1030A0000C4DED1F2A40CD892A430A4DED1E2A40C2
:1030B0008D882A43074DFF3D2B400B4D2B400D8A39
:1030C0002B434D8A2B43838004838D6845630284A0
:1030D00070BD0000FEFF0000002C014000400140D8
:1030E0000044014000480140FFFD000010B50020F1
:1030F000FFF73EFA10BD10B50120FFF739FA10BDF9
:1031000010B5002300220B0C01249C4022460262D1
:1031100010BD02460020D3690B40002B01D00120D6
:1031200000E0002070470146888CC005C00D704744
:1031300070B505460C4600BF0120FFF7A9FA012033
:10314000FFF7B6FA0120FFF793FA0020FFF7C0FA65
:1031500000BF0020FFF79CFA2846FFF7CFFE20466D
:10316000FFF7CCFE06460120FFF792FA304670BD0D
:1031700030B47446641E2578641CAB4204D3635D8E
:103180005B00E31830BC18471D46F8E702E008C8AA
:10319000121F08C1002AFAD170477047002001E0D1
:1031A00001C1121F002AFBD1704730B503460C46FF
:1031B000002100E0491C914203D2585C655CA842A2
:1031C000F8D0914201D1012030BD0020FCE7000081
:1031D00010B5021203464B401B06DB0D024CE35AAE
:1031E0005A40104610BD0000743D0008F0B585B08F
:1031F00006460C4600200390A007800F002801D04F
:10320000012000E0002002900298002812D0002542
:10321000A007800F0190A0088000009007E00098B0
:10322000411C0091325C28466D1C03A90A54019888
:103230008542F4D301214020FEF7DEFDFDF77EF844
:10324000A1083046FDF760F807460298002803D031
:103250000398FDF76BF8074600214020FEF7CCFDF0
:10326000384605B0F0BD70B504462046FCF7C2FFF5
:103270000546284670BDFFF76BFEFEF707F900F024
:1032800035F8FDF7BAF8FEF799FAFDF7ADF9FEF754
:1032900055F8FFF79DF9FEF755FA55213220FFF753
:1032A00047FF00217220FFF743FF552800D000BFE1
:1032B000AA213220FFF73CFF00217220FFF738FFE0
:1032C000AA2800D000BF66213220FFF731FF00217D
:1032D0007220FFF72DFF662800D000BF05E0FDF744
:1032E000F3FAFEF7FBF8FDF7B9FEF8E710B5FFF7C4
:1032F000FDF810BD70B5044600252046FDF728F8FE
:10330000002803D02046FCF793FF0546284670BDF1
:10331000B90B0008810F0008A90C00080001020386
:1033200004045B5C5D5E5F0001020304000C01A00D
:1033300002070302046E068F073808370CC510A376
:103340001138123816631764186519661A721B0053
:103350001C2B1E608C0A000032000000460000009A
:103360000000000000000000000000008C0A0000C7
:1033700032000000460000000A0000006400000067
:10338000640000008C0A00003200000046000000CB
:103390000000000000000000000000008C0A000097
:1033A00032000000460000000A0000006400000037
:1033B000640000008C0A000032000000460000009B
:1033C0000A00000064000000640000008C0A000095
:1033D0003200000046000000000000000000000075
:1033E000000000008C0A00003200000046000000CF
:1033F0000A00000064000000640000008C0A000065
:1034000032000000460000000A00000064000000D6
:10341000640000008C0A000032000000460000003A
:103420000A00000064000000640000008C0A000034
:103430003200000046000000000000000000000014
:10344000000000008C0A000032000000460000006E
:103450000A00000064000000640000008C0A000004
:1034600032000000460000000A0000006400000076
:10347000640000008C0A00003200000046000000DA
:103480000A00000064000000640000008C0A0000D4
:1034900032000000460000000A0000006400000046
:1034A000640000008C0A00003200000046000000AA
:1034B0000000000000000000000000008C0A000076
:1034C00032000000460000000A0000006400000016
:1034D000640000008C0A000032000000460000007A
:1034E0000A00000064000000640000008C0A000074
:1034F00032000000460000000A00000064000000E6
:10350000640000008C0A0000320000004600000049
:103510000A00000064000000640000008C0A000043
:1035200032000000460000000A00000064000000B5
:10353000640000008C0A0000320000004600000019
:103540000000000000000000000000008C0A0000E5
:1035500032000000460000000A0000006400000085
:10356000640000008C0A00003200000046000000E9
:103570000A00000064000000640000008C0A0000E3
:1035800032000000460000000A0000006400000055
:10359000640000008C0A00003200000046000000B9
:1035A0000A00000064000000640000008C0A0000B3
:1035B00032000000460000000A0000006400000025
:1035C000640000008C0A0000320000004600000089
:1035D0000A00000064000000640000008C0A000083
:1035E0003200000046000000000000000000000063
:1035F000000000008C0A00003200000046000000BD
:103600000A00000064000000640000008C0A000052
:1036100032000000460000000A00000064000000C4
:10362000640000008C0A0000320000004600000028
:103630000A00000064000000640000008C0A000022
:1036400032000000460000000A0000006400000094
:10365000640000008C0A00003200000046000000F8
:103660000A00000064000000640000008C0A0000F2
:1036700032000000460000000A0000006400000064
:10368000640000008C0A00003200000046000000C8
:103690000A00000064000000640000008C0A0000C2
:1036A00032000000460000000000000000000000A2
:1036B000000000008C0A00003200000046000000FC
:1036C0000A00000064000000640000008C0A000092
:1036D00032000000460000000A0000006400000004
:1036E000640000008C0A0000320000004600000068
:1036F0000A00000064000000640000008C0A000062
:1037000032000000460000000A00000064000000D3
:10371000640000008C0A0000320000004600000037
:103720000A00000064000000640000008C0A000031
:1037300032000000460000000A00000064000000A3
:10374000640000008C0A0000320000004600000007
:103750000A00000064000000640000008C0A000001
:1037600032000000460000000A0000006400000073
:10377000640000008C0A00003200000046000000D7
:103780000000000000000000000000008C0A0000A3
:1037900032000000460000000A0000006400000043
:1037A000640000008C0A00003200000046000000A7
:1037B0000A00000064000000640000008C0A0000A1
:1037C00032000000460000000A0000006400000013
:1037D000640000008C0A0000320000004600000077
:1037E0000A00000064000000640000008C0A000071
:1037F00032000000460000000A00000064000000E3
:10380000640000008C0A0000320000004600000046
:103810000A00000064000000640000008C0A000040
:1038200032000000460000000A00000064000000B2
:10383000640000008C0A0000320000004600000016
:103840000A00000064000000640000008C0A000010
:1038500032000000460000000A0000006400000082
:10386000640000008C0A00003200000046000000E6
:103870000000000000000000000000008C0A0000B2
:1038800032000000460000000A0000006400000052
:10389000640000008C0A00003200000046000000B6
:1038A0000A00000064000000640000008C0A0000B0
:1038B00032000000460000000A0000006400000022
:1038C000640000008C0A0000320000004600000086
:1038D0000A00000064000000640000008C0A000080
:1038E00032000000460000000A00000064000000F2
:1038F000640000008C0A0000320000004600000056
:103900000A00000064000000640000008C0A00004F
:1039100032000000460000000A00000064000000C1
:10392000640000008C0A0000320000004600000025
:103930000A00000064000000640000008C0A00001F
:1039400032000000460000000A0000006400000091
:10395000640000008C0A00003200000046000000F5
:103960000A00000064000000640000008C0A0000EF
:1039700032000000460000000000000000000000CF
:10398000000000008C0A00001A0000003C0000004B
:103990000A00000014000000140000008C0A00005F
:1039A0001A0000003C0000000A00000014000000A3
:1039B000140000008C0A00001A0000003C00000007
:1039C0000A00000014000000140000008C0A00002F
:1039D0001A0000003C0000000A0000001400000073
:1039E000140000008C0A00001A0000003C000000D7
:1039F0000A00000014000000140000008C0A0000FF
:103A00001A0000003C0000000A0000001400000042
:103A1000140000008C0A00001A0000003C000000A6
:103A20000A00000014000000140000008C0A0000CE
:103A30001A0000003C0000000A0000001400000012
:103A4000140000008C0A00001A0000003C00000076
:103A50000A00000014000000140000008C0A00009E
:103A60001A0000003C0000000A00000014000000E2
:103A7000140000008C0A00001A0000003C00000046
:103A80000A00000014000000140000008C0A00006E
:103A90001A0000003C0000000A00000014000000B2
:103AA000140000008C0A00001A0000003C00000016
:103AB0000A00000014000000140000008C0A00003E
:103AC0001A0000003C0000000A0000001400000082
:103AD000140000008C0A00001A0000003C000000E6
:103AE0000A00000014000000140000008C0A00000E
:103AF0001A0000003C0000000A0000001400000052
:103B0000140000008C0A00001A0000003C000000B5
:103B10000A00000014000000140000008C0A0000DD
:103B20001A0000003C0000000A0000001400000021
:103B300014000000480D00001C00000032000000CE
:103B40000000000000000000000000002003000052
:103B50001400000014000000840300000A000000AC
:103B6000140000004C040000280000003C0000008D
:103B7000000000000000000000000000F401000050
:103B80001400000014000000580200000A000000A9
:103B90001400000020030000280000003C0000008A
:103BA0000000000000000000000000002C010000E8
:103BB0001400000014000000900100000A00000042
:103BC00014000000F4010000280000003C00000088
:103BD000000000000000000000000000E8030000FA
:103BE0001400000014000000200300001400000076
:103BF0001E000000F4010000320000005000000030
:103C0000000000000000000000000000B004000000
:103C10000A0000000A000000B00400000A000000D2
:103C20000A000000B00400000A0000000A000000C2
:103C3000B00400000A0000000A00000000000000BC
:103C40000000000000000000D00700001900000084
:103C500019000000FC080000190000001900000015
:103C6000280A00001900000019000000D007000019
:103C70001900000019000000D00700001900000022
:103C800019000000FC0800001900000019000000E5
:103C9000280A00001900000019000000D0070000E9
:103CA0001900000019000000FC08000019000000C5
:103CB00019000000280A0000190000001900000087
:103CC000540B00003200000019000000FC08000046
:103CD0001900000019000000280A00001900000067
:103CE00019000000540B00004B00000019000000F8
:103CF000000000000000000000000000FA60D6F4A0
:103D00006CBCBEE0FEFC0400FA60D6F46CBCBEE005
:103D1000FEFC0400FA60D6F46CBCBEE0FEFC0400BD
:103D2000AF066D4FC6CBEB0EEFCF4000000400484E
:103D300000040000000000480100000000000048EE
:103D400002000000000400480100010000000048DB
:103D50008000010000040048020001000004004847
:103D600004000100303132333435363738394142BE
:103D7000434445460000891112239B322446AD5727
:103D80003665BF74488CC19D5AAFD3BE6CCAE5DBA3
:103D90007EE9F7F88110080193331A22A5562C47C3
:103DA000B7753E64C99C408DDBBF52AEEDDA64CB83
:103DB000FFF976E802218B30100299132667AF765F
:103DC0003444BD554AADC3BC588ED19F6EEBE7FA63
:103DD0007CC8F5D983310A2091121803A7772E6683
:103DE000B5543C45CBBD42ACD99E508FEFFB66EA43
:103DF000FDD874C904428D5316619F702004A91523
:103E00003227BB364CCEC5DF5EEDD7FC6888E19922
:103E10007AABF3BA85520C4397711E60A114280542
:103E2000B3373A26CDDE44CFDFFD56ECE998608902
:103E3000FBBB72AA06638F7214409D512225AB34DE
:103E40003006B9174EEFC7FE5CCCD5DD6AA9E3B8E2
:103E5000788AF19B87730E6295501C41A3352A2402
:103E6000B1163807CFFF46EEDDDC54CDEBB962A8C2
:103E7000F99A708B088481951AA793B62CC2A5D3A2
:103E80003EE1B7F04008C919522BDB3A644EED5FB2
:103E9000766DFF7C899400859BB712A6ADD224C3B2
:103EA000BFF136E0C1184809D33B5A2AE55E6C4F92
:103EB000F77D7E6C0AA583B4188691972EE3A7F24E
:103EC0003CC0B5D14229CB38500AD91B666FEF7E72
:103ED000744CFD5D8BB502A499961087AFF326E272
:103EE000BDD034C1C3394A28D11A580BE77F6E6E52
:103EF000F55C7C4D0CC685D71EE597F42880A19112
:103F00003AA3B3B2444ACD5B5669DF78600CE91D31
:103F1000722FFB3E8DD604C79FF516E4A990208131
:103F2000BBB332A2C55A4C4BD7795E68E11C680D11
:103F3000F33F7A2E0EE787F61CC495D52AA1A3B0CD
:103F40003882B193466BCF7A5448DD59622DEB3CF1
:103F5000700EF91F8FF706E69DD414C5ABB122A0F1
:103F6000B9923083C77B4E6AD5585C49E33D6A2CD1
:103F7000F11E780F943F00080000002004010000AB
:103F80008C3100089840000804010020540400000F
:103F90009C310008006CDC02000000000000000002
:103FA00001020304060708090000000000000000E9
:103FB0000A0A00000A0A0A000000000000000000CF
:103FC00000000000000000000000000000000000F1
:103FD00000000000000000000000000000000000E1
:103FE0000000000000000000FF00000000000000D2
:103FF00000000000000000000000FFFF00000000C3
:104000000000000000000000000000000038014037
:104010000044004000480040004C00400000000008
:10402000000000000004200002000000000000006A
:104030000000000000000000FFFFFFFFFFFF000086
:104040000000000000000000000000000000000070
:1040500000000000000000000000000000FF000061
:104060000000000000FFFFFFFF000000FC3C000814
:10407000083D0008143D0008203D00080000000035
:10408000000000000000000001000000000000002F
:08409000000000000000000028
:04000005080000C12E
:00000001FF
